:020000040800F2
:1000000018E90020310300081DBB000855830008D3
:100010003DB20008D5160008811601080000000056
:100020000000000000000000000000007102000855
:10003000C533000800000000CD020008B9E1000847
:100040004B0300084B0300084B0300084B03000858
:100050004B03000855D000084B0300084B03000871
:100060004B0300084B0300084B0300084B03000838
:10007000492C00084B0300084B0300084B03000801
:100080004B0300084B0300084B030008F916000857
:10009000D9160008E91600084B0300084B030008B6
:1000A0004B0300084B0300084B0300084B030008F8
:1000B0004B0300084B0300084B0300084B030008E8
:1000C0004B0300084B0300084B0300084B030008D8
:1000D0004B0300084B0300084B030008E5EC000845
:1000E0004B0300084B0300084B0300084B030008B8
:1000F0004B0300084B0300084B0300084B030008A8
:100100004B0300084B0300084B0300084B03000897
:100110004B0300084B0300084B0300084B03000887
:10012000592C00084B0300084B030008692C0008F9
:100130004B0300084B0300084B0300082917000875
:1001400009170008191700084B030008E1BD000853
:100150004B0300084B0300084B0300084B03000847
:100160004B0300084B0300084B0300084B03000837
:100170004B0300084B0300084B030008000000007D
:100180004B0300084B03000800F002F800F060F891
:100190000AA090E8000C82448344AAF10107DA45E2
:1001A00001D100F055F8AFF2090EBAE80F0013F0D4
:1001B000010F18BFFB1A43F001031847B473010085
:1001C000D47301000A444FF0000C10F8013B13F007
:1001D000070408BF10F8014B1D1108BF10F8015BA0
:1001E000641E05D010F8016B641E01F8016BF9D193
:1001F00013F0080F1EBF10F8014BAD1C0C1B09D1EA
:100200006D1E58BF01F801CBFAD505E014F8016B5B
:1002100001F8016B6D1EF9D59142D6D370470000ED
:100220000023002400250026103A28BF78C1FBD8FF
:10023000520728BF30C148BF0B6070471FB516F08A
:10024000C2FA9DE8030000F047FA1FBD10B510BDCB
:1002500000F0AEFA1146FFF7F1FF13F0EDFA00F0EF
:10026000CCFA03B4FFF7F2FF03BC00F0FDFA000084
:100270002C4B19680868B0E8F04F80F30988BFF389
:100280006F8F4FF0000080F311887047000000006E
:1002900008480068006880F308884FF0000080F389
:1002A000148862B661B6BFF34F8FBFF36F8F00DF64
:1002B00000BF00BF08ED00E0DFF80C00016841F46A
:1002C00070010160704700BF88ED00E0EFF3098026
:1002D000BFF36F8F134B1A681EF0100F08BF20ED8D
:1002E000108A20E9F04F106009B44FF0500080F3FD
:1002F0001188BFF34F8FBFF36F8F14F047FD4FF09E
:10030000000080F3118809BC19680868B0E8F04F54
:100310001EF0100F08BFB0EC108A80F30988BFF3FD
:100320006F8F70473C000020EFF30580704700009E
:100330000948804709480047FEE7FEE7FEE7FEE779
:10034000FEE7FEE7FEE7FEE7FEE7FEE704480549B5
:10035000054A064B7047000081E200088901000849
:1003600018A9002018E9002018C9002018C9002089
:1003700070B5064600F094F9056806F10B0020F010
:100380000704B4429CBF002070BD2B466A68BAB116
:100390001068A04210D304F1080188423CBF5068A5
:1003A000586007D35168101941601168091B01603A
:1003B00058601460101D70BD13465268002AE7D1C2
:1003C0002146284600F074F90028DED170BD70B5D2
:1003D0000446051F00F064F90068002C14BF44684F
:1003E00070BD002C18BFAC423CBF20466468F8D3F7
:1003F00001680A18AA4218BF456003D12A68054659
:100400001144016028684119A1421CBF6C6070BD95
:100410006168696021680844286070BD53EA020C75
:1004200000F069802DE9F04B4FF00006002B1FBF54
:10043000B3FA83F503FA05F424FA05F65E4012BF19
:100440001643B2FA82F502FA05F4C5F120051EBF83
:1004500022FA05FC44EA0C04203556EA044C4FEA23
:10046000144418BF641C4FF000084FF0000990427C
:1004700071EB030C39D3002919BFB1FA81F701FAE6
:1004800007F6B0FA80F700FA07F6C7F120071EBF9B
:1004900020FA07FC46EA0C062037B6FBF4FCA7EB73
:1004A0000507103F07F01F0BCBF120060CFA0BFBE2
:1004B0002CFA06F644BFB3460026202FA4BF5E46A2
:1004C0004FF0000B5BEA060C08BF4FF0010B19EB75
:1004D0000B09ABFB027C48EB0608C01B06FB02CCF9
:1004E0000BFB03CC71EB0C01C1E70B460246414606
:1004F0004846BDE8F08B13B54FF000004FF0000107
:10050000AFF30080BDE81C407047032A40F2308002
:1005100010F0030C00F0158011F8013BBCF1020F44
:10052000624498BF11F801CB00F8013B38BF11F8C5
:10053000013BA2F1040298BF00F801CB38BF00F8DC
:10054000013B11F0030300F02580083AC0F0088059
:1005500051F8043B083A51F804CBA0E80810F5E73D
:10056000121D5CBF51F8043B40F8043BAFF3008020
:10057000D20724BF11F8013B11F801CB48BF11F895
:10058000012B24BF00F8013B00F801CB48BF00F865
:10059000012B704710B5203AC0F00B80B1E818501D
:1005A000203AA0E81850B1E81850A0E81850BFF45D
:1005B000F5AF5FEA027C24BFB1E81850A0E81850FC
:1005C00044BF18C918C0BDE810405FEA827C24BF50
:1005D00051F8043B40F8043B08BF7047D20728BFDE
:1005E00031F8023B48BF11F8012B28BF20F8023B2D
:1005F00048BF00F8012B704702F0FF0343EA0322D3
:1006000042EA024200F002B84FF000020429C0F0B2
:10061000128010F0030C00F01B80CCF1040CBCF134
:10062000020F18BF00F8012BA8BF20F8022BA1EB86
:100630000C0100F00DB85FEAC17C24BF00F8012B6B
:1006400000F8012B48BF00F8012B70474FF0000263
:1006500000B5134694469646203922BFA0E80C50B8
:10066000A0E80C50B1F12001BFF4F7AF090728BF93
:10067000A0E80C5048BF0CC05DF804EB890028BF0F
:1006800040F8042B08BF704748BF20F8022B11F038
:10069000804F18BF00F8012B7047704770477047B4
:1006A00000487047C0A800207047704770477047E7
:1006B00038B504460A4600206946AFF3008000289A
:1006C00008BF38BD02460099204600F04FF80120CF
:1006D00038BD012000F064B8F8B5AFF300800546DE
:1006E00000200C46102000BF0646A819A0420DD9D4
:1006F000324669460020AFF30080070008BF00F0D3
:100700004FF80098A04218BF0546C419FFF7C8FF6C
:1007100005600746F01D20F007004619284600F046
:100720000AF8B44208BFF8BDA21B31463868BDE8DC
:10073000F84000F01BB800210160C0E901107047CB
:100740001020704710B500F00DF8006810BD10B50E
:10075000044600F007F8046010BD00000048704730
:10076000B8A8002000487047B8A800200346406899
:100770008C46002818BF88423CBF03464068F8D327
:1007800018681844884207D00CF1030020F00700D5
:10079000001D411A521A0146081D0A60FFF717BED4
:1007A00010B500F039F8BDE8104000F02FB87047E0
:1007B0007546FFF7D3FFAE4605006946534620F065
:1007C0000700854618B020B5FFF7C0FDBDE8204002
:1007D0004FF000064FF000074FF000084FF0000BFD
:1007E00021F00701AC46ACE8C009ACE8C009ACE8B0
:1007F000C009ACE8C0098D46704710B50446AFF398
:1008000000802046BDE81040FFF72BBD002801D036
:1008100000F02AB87047000010B5012805D000216B
:1008200003A000F027F8012010BD09A1F8E700009F
:1008300053494752544D454D3A204F7574206F66C9
:100840002068656170206D656D6F72790000000031
:100850003A2048656170206D656D6F727920636F15
:10086000727275707465640001491820ABBEFEE7B2
:100870002600020070B505460C460A2000E06D1CFB
:1008800000F011F835B128780028F8D102E0641C96
:1008900000F009F814B120780028F8D1BDE87040C4
:1008A0000A20AFF3008008B569468DF800000320E8
:1008B000ABBE08BDF0B581B04FF68311C3F622611F
:1008C00015F032FF4FF07A5115F051FE044615F045
:1008D000AFFE054620460021002715F074FE0028D3
:1008E00018BF013D284615F0B1FE0146204615F01F
:1008F00074FF4FF0884115F017FF054615F09FFE75
:10090000044628464FF0444115F031FE0646B7EB49
:10091000542F0CBF2E460024204615F0CEFE014673
:10092000304615F05AFF05464FF07E50294615F027
:1009300054FF46F66C57C0F6010757F8241015F01F
:10094000F3FE064607EB84004168284615F0ECFEEE
:100950000146304615F00BFE01B0F0BD2DE9F04127
:1009600003880F88BB423FD147884E88B7423BD1AE
:100970001688B34238D15688B74235D14668546894
:100980004D6807FB03F80020B0EB980F1BD04FEA2F
:10099000980047423068296815F0E9FD20607068CA
:1009A000696815F0E4FD6060B068A96815F0DFFDC6
:1009B000A060F068E96815F0DAFDE06010341035E9
:1009C00010360137E6D118F003000BD0474200BFC4
:1009D00056F8040B55F8041B15F0C9FD44F8040B38
:1009E0000137F5D1002000E0FD2040B2BDE8F081E4
:1009F00043604280018070472DE9F04F93B0B0F81A
:100A000002A0B0F800B0D34540F05D810A88FD2512
:100A1000934540F059814B889A4240F05581476890
:100A2000BBF1000F00F039814C686FF003000197B3
:100A300000274FF07E585E46CDF820A000EB8B09D2
:100A400020460494BBEB060008D0B9002046FFF70F
:100A5000FDFD0020013004348742FBD104F1040A7B
:100A6000751EC4F800800FD0A9EB87015046FFF730
:100A7000EDFD0120544600BF013004348642FBD115
:100A80000137002D2E46DDD1019FDDF820A0BBF1FE
:100A9000000F00F00281042007EB8A023C1DABF13D
:100AA00001080021CDF824A0CDF81CB000EB8A008D
:100AB0000290CAF100000B904FEA8A00129000BF2A
:100AC000594580F0058101FB0AF0109104990597C2
:100AD000002593460392CDF8188057F8209001EB3B
:100AE000800107EB80004F460E910D9008E000BF9B
:100AF0001298DBF80070A8F1010835465844834687
:100B00003846002115F058FD40B93846294615F001
:100B100045FD00283E4608D008E000BF87F00046AB
:100B20002846314615F04FFD00B92E46B8F1000FAA
:100B3000DED13046002115F023FD002840F0C880AA
:100B400029F00040314615F01BFDDDE9062140B9D2
:100B50001098C043401804D0002000BF01308242EA
:100B6000FCD14846002115F00BFD099E002840F0FD
:100B7000AF800D994FF07E500F9408601098AAEB4B
:100B80000001012908460C910BD00F9D012400BFE4
:100B90002868494615F02AFD013445F8040BA642A1
:100BA000F6D10B9C0E9D00BF2868494615F01EFD2E
:100BB00045F8040B0134F7D10C98DDF81C804FF098
:100BC000000B01380A90DDE90465DDE90F4100BF43
:100BD0008B4505D10C9806EB8A0605EB80053CE0B9
:100BE0000D98D5F800900168484615F09DFD014626
:100BF000484615F0F2FD45F8040B0A98E0B1CDF82F
:100C00004480DDF8248001274FF0000A54F80A10D0
:100C1000484615F089FD014655F80A0015F0DDFD3E
:100C2000013745F80A000AF1040AB845EED15544E7
:100C3000DDF820A0DDF844800B9F0E9C54F8041BC7
:100C4000484615F071FD0146306815F0C6FD46F8BE
:100C5000040B0137F2D1DDE90F4105EB81050BF102
:100C6000010BB8F10108B3D10298039ADDF818809E
:100C7000059FDDF81CB00131044402440998A8F135
:100C800001080437013809907FF41AAF4846002163
:100C9000002515F075FC019FB0B10AFB0BF500248F
:100CA000002645B13868002115F06AFC18B10136FC
:100CB0000437AE42F6D3AE4208BF6FF004042046BC
:100CC00013B0BDE8F08FFD2568B213B0BDE8F08F1A
:100CD000FB25F9E72DE9F04F91B047880B889F423B
:100CE00040F0AF80068813889E4240F0AA804D886D
:100CF00053889D4240F0A58052684FF00009496832
:100D00004FEA850805960497039502924268A9EB7D
:100D100097000191079027F0030002EB80000C92EE
:100D20000990B8080B90684301EB00102946009029
:100D300007F003000A904042069000BF029800EBC3
:100D4000890ADDE9000BCDF8209010900B980F91E7
:100D5000002847D0CDF838A0CDF834B0D946DDF81A
:100D60001CA0DDF830B000249BE8C100D9F80010C9
:100D7000DBF80C5015F0D8FC0146204615F0F7FBC7
:100D800059F808100446304615F0CEFC01462046BE
:100D900015F0EDFB09EB08060446384656F8081036
:100DA00015F0C2FC0146204615F0E1FB464404461E
:100DB000284656F8081015F0B7FC0146204615F0F5
:100DC000D6FB044606EB08000BF1100B1AF1010AE2
:100DD00000EB0809C8D1109DDDE90896DDE90DBAE0
:100DE00003E000BF0C9E00245D460A9868B1069F90
:100DF00056F8040B296815F097FC0146204615F0BB
:100E0000B6FB044645440137F2D110980F994AF8D1
:100E1000044B0BF1040B04300139109096D1049867
:100E2000099901EB800109910C9901EB800105986A
:100E30000C9103990138894405907FF47FAF00201D
:100E400000E0FD2040B211B0BDE8F08F2DE9F04187
:100E500003880F88BB423FD147884E88B7423BD1B9
:100E60001688B34238D15688B74235D1466854689F
:100E70004D6807FB03F80020B0EB980F1BD04FEA3A
:100E8000980047423068296815F0A7FC2060706818
:100E9000696815F0A2FC6060B068A96815F09DFC57
:100EA000A060F068E96815F098FCE0601034103537
:100EB00010360137E6D118F003000BD0474200BFCF
:100EC00056F8040B55F8041B15F087FC44F8040B86
:100ED0000137F5D1002000E0FD2040B2BDE8F081EF
:100EE0002DE9F04F82B0B0F800E04B889E454BD121
:100EF00044880B889C4247D100234E6804F0030BC2
:100F000040684FEA0E184FEA940AA3EB9401CBF124
:100F1000000901914FEA8E0132460096BAF1000FA6
:100F20001CD0019F344600BF2546046801372C6061
:100F300044686C5005EB0104D0F808C044F801C0C7
:100F40000C44C26800F11000625004EB010202EB95
:100F50000104E9D105EB080703E000BF009A02EBAA
:100F60008307BBF1000F07D04D4600BF50F8042B9C
:100F700001353A600F44F9D10436BEF1010E03F198
:100F80000103CBD1002000E0FD2040B202B0BDE85B
:100F9000F08FF0B581B04FF68311C3F6226115F0E2
:100FA000C3FB044615F044FB0546204600210027FC
:100FB00015F009FB002818BF013D284615F046FB37
:100FC0000146204615F009FC4FF0884115F0ACFBB6
:100FD000054615F034FB044628464FF0444115F011
:100FE000C6FA0646B7EB542F0CBF2E460024204607
:100FF00015F063FB0146304615F0EFFB05464FF058
:101000007E50294615F0E9FB46F66C57C0F60107FD
:1010100057F8241015F088FB064607EB840041685A
:10102000284615F081FB0146304615F0A0FA01B0C4
:10103000F0BD000008B500BF4FF4FA6013F05CFD8E
:101040000B4802F0A3F8012013F056FD0FE014F056
:1010500059FB0090064802F099F805480C3880EDDD
:10106000040A12F0EDFA0421684613F073FDEEE76E
:101070007476002070B505460C4600260DB1022C92
:1010800000D870BD611EFF22284602F0F3FB064621
:10109000601E2E5400BFF4E710B501221021024853
:1010A00004F0ACFD10BD00000000024010B50022AD
:1010B0001021024804F0A2FD10BD00000000024013
:1010C00070B50024FFF7F2FF802000F0DFF9552013
:1010D00000F0DCF9552000F0D9F90546FFF7DCFFF8
:1010E0001E2D01D144F0010400F01AF8802000F018
:1010F000CDF9552000F0CAF9054600F007F80F2D8C
:1011000001D144F00204204670BD000010B5012258
:101110001146024804F072FD10BD000000040240B8
:1011200010B500220121024804F068FD10BD000046
:101130000004024010B50446FFF7B8FF922000F00B
:10114000A5F906229549122000F080F9FFF7A4FFC7
:1011500092484078000200B29049097808439049CB
:1011600008800846B0F9000000EE100AB8EEC00A88
:101170008C48D0ED000A20EE200AD4ED080A20EEBB
:10118000200A84ED000A8548C078000200B2834935
:1011900089780843824908800846B0F9000000EECB
:1011A000100AB8EEC00A7F48D0ED000A20EE200AEF
:1011B000D4ED080A20EE200A84ED010A7748407930
:1011C000000200B27549097908437549088008464C
:1011D000B0F9000000EE100AB8EEC00A7148D0ED78
:1011E000000A20EE200AD4ED080A20EE200A84ED41
:1011F000020AFFF795FF08226849002000F026F94F
:10120000FFF784FF654800780F284FD166480078C3
:10121000F0B36248C078000200B2604989780843A0
:101220005F49088094ED090A0846B0F9000000EE15
:10123000900AF8EEE00A5D4890ED001A10EE810A7F
:1012400084ED030A55484079000200B253490979F8
:1012500008435349088094ED0A0A0846B0F9000093
:1012600000EE900AF8EEE00A504890ED001A10EEF9
:10127000810A84ED040A4948C079000200B2474956
:10128000897908434649088094ED0B0A084600E036
:101290000DE0B0F9000000EE900AF8EEE00A4348D5
:1012A00090ED001A10EE810A84ED050A44E03B48F7
:1012B000C078000200B2394989780843384908806B
:1012C0000846B0F9000000EE100AB8EEC00A374830
:1012D000D0ED000A20EE200A84ED030A2F48407961
:1012E000000200B22D49097908432D4908800846BB
:1012F000B0F9000000EE100AB8EEC00A2B48D0ED9D
:10130000000A20EE200A84ED040A2448C079000275
:1013100000B2224989790843214908800846B0F97A
:10132000000000EE100AB8EEC00A2048D0ED000A16
:1013300020EE200A84ED050AFFF7B8FEA22000F097
:10134000A5F802221549222000F080F8FFF7A4FE3C
:1013500012480078C0001149497840EA61101049EC
:1013600008800846B0F90000B0F5806F05DB08463C
:101370000088A0F5006000B208800948B0F90000BC
:1013800000EE100AF8EEC00AB4EE001AB3EE070A37
:1013900000EE810A84ED070A10BD0000D606002089
:1013A000DE06002094060020A406002098060020F7
:1013B00070B504460D461C48046000201B490870A7
:1013C00011F06AFC1949097808431849087011F0AE
:1013D00019FD164909780843144908701DB11448CD
:1013E00000F014FA1CE09FED130A114880ED090A81
:1013F0009FED110A80ED0A0A9FED100A80ED0B0A9D
:101400009FED0F0A80ED0C0A90ED0C0ADFED0D0A3E
:1014100080EE801A80ED081A9FED0B0A80ED060A17
:101420000248007870BD0000A80600209E0600203B
:1014300064A40020D978A83AA279E4BB4A177E3A7E
:101440004D271C41C3F51C4100000F4270B50646F4
:101450000C46154646F0800000F018F806E05520CE
:1014600000F014F82070641C681EC5B2002DF6D17F
:1014700070BD70B504460D4644F0800000F006F8DB
:10148000552000F003F8287070BD000001B582B04F
:10149000002001904FF47A70012301AA02A9009064
:1014A000044806F05BF908B100200EBD9DF8040069
:1014B000FBE70000EC0E002070B505460C46284600
:1014C000FFF7E4FF2046FFF7E1FF70BD10B50748C6
:1014D000D0F8870700EE100ADFED050A054810F086
:1014E000D7FB054880ED000A10BD00008878002079
:1014F0000000B443488100206804002000BF054874
:1015000090EDFF0A044880ED0B0A9FED040A80ED80
:101510000A0A7047887C002010810020000000002B
:10152000D2ED020A92ED021AB6EE000A00EEC10AEE
:10153000D2ED030A92ED031A00EEC10AD0ED000AC3
:1015400020EE200AD2ED010A92ED021A60EE810A25
:1015500092ED001AD2ED031A41EE610A90ED011AE4
:1015600000EE810AD2ED010A92ED031A60EE810AC3
:1015700092ED001AD2ED021A41EE210A90ED021A04
:1015800000EE810AF0EE000A20EE200A81ED000A4A
:1015900092ED010AD2ED020A20EE200AD2ED000AF5
:1015A00092ED031A00EE810AD0ED000A60EE200AE7
:1015B00092ED011AD2ED011AB6EE000A01EE610AAF
:1015C000D2ED031A92ED032AB0EE401A01EEC21AD0
:1015D000D0ED011AB0EE600A01EE210AD2ED020A46
:1015E00092ED031A60EE810A92ED001AD2ED011A13
:1015F00041EE610A90ED021A00EE810AF0EE000A57
:1016000020EE200A81ED010A92ED010AD2ED030AD3
:1016100020EE200AD2ED000A92ED021A00EEC10A75
:10162000D0ED000A20EE200AD2ED020A92ED031A54
:1016300060EE810A92ED001AD2ED011A41EE210A04
:1016400090ED011A00EE810A92ED011AD2ED011A15
:10165000F6EE000A41EE610A92ED021AD2ED021A8C
:1016600041EE610A90ED021A00EE810AF0EE000AE6
:1016700020EE200A81ED020A7047000010B504F048
:1016800021FC0CF0A3FD09F093FA09F009FA09F026
:101690004DFC09F02BFD09F02BFC09F0BDF909F018
:1016A0009FFC09F067FC09F0D9F909F081FD09F008
:1016B0009FFDA82001F0E2FD11F04EFC09F0C4FCF2
:1016C000034806F073FA0821014806F079FC10BDC2
:1016D0004C10002000BFFEE710B5024803F0DEFC0E
:1016E00010BD0000480E002010B5024803F0D6FCE3
:1016F00010BD0000480E002010B5024803F0CEFCDB
:1017000010BD0000480E002010B5024803F0C6FCD2
:1017100010BD0000700E002010B5024803F0BEFCA2
:1017200010BD0000700E002010B5024803F0B6FC9A
:1017300010BD0000700E00200346042B15D007DCFE
:101740007BB1012B0ED0022B0DD0032B12D10BE05D
:10175000202B0BD0212B0AD0222B09D0232B09D1EF
:1017600007E008E007E006E005E004E003E002E04F
:1017700001E000E000BF00BF00207047002070477C
:1017800010B50022044905480DF0D5FD0449034871
:101790000DF0C2FD002010BD549300207888002079
:1017A000548B002070B504460D46204629680BF086
:1017B0009BF8214603480DF0AFFD02480DF078FD7F
:1017C000002070BD7888002010B503460C4600212B
:1017D000084610BD2DE9F04104460D4600260A4892
:1017E000D0F8BC72D7F8140210B10120BDE8F08126
:1017F0002A46214604480DF09EFD03480DF04EFE9A
:1018000006463046F2E700007888002070B52DEDDE
:10181000048B88B0044600200690079001F0DCFCA1
:10182000FE4880ED000A00BF01F0D6FCFB48D0ED79
:10183000000A30EE600AF2EE040AB4EEE00AF1EEBD
:1018400010FA14DD9FEDF60A84ED090A9FEDF50A02
:1018500084ED0A0A9FEDF40A84ED0B0A9FEDF30A6A
:1018600084ED0C0A9FEDF20A84ED060A57E29FED23
:10187000F10A01F06DFC9FEDF00A84ED0C0A9FED7A
:10188000EE0A84ED090A9FEDEC0A84ED0A0A9FED49
:10189000EA0A84ED0B0A002673E1FFF707FC9220A9
:1018A000FFF7F4FD062206A91220FFF7CFFDFFF790
:1018B000F3FB9DF81900000200B29DF8181040EAF1
:1018C000010500EE105AB8EEC00ADC48D0ED000A5F
:1018D00020EE200A84ED000A9DF81B00000200B2F1
:1018E0009DF81A1040EA010500EE105AB8EEC00A41
:1018F000D248D0ED000A20EE200A84ED010A9DF8BE
:101900001D00000200B29DF81C1040EA010500EE27
:10191000105AB8EEC00AC948D0ED000A20EE200ADD
:1019200084ED020AD4ED000A60EEA00A94ED011ADB
:10193000D4ED011A41EE210A94ED021AD4ED021AF7
:1019400041EE210AB0EE600A10F074FFB0EE408A5A
:1019500094ED0C0A30EE080A84ED0C0AFFF7E0FB68
:10196000082206A90020FFF771FDFFF7CFFB9DF8C5
:1019700018000F2850D19DF81B00000200B29DF8FE
:101980001A1040EA010500EE105AB8EEC00AAC4841
:10199000D0ED000A20EE200A84ED030A94ED090A36
:1019A000D4ED030A30EE200A84ED090A9DF81D00EB
:1019B000000200B29DF81C1040EA010500EE105A2A
:1019C000B8EEC00A9E48D0ED000A20EE200A84ED51
:1019D000040A94ED0A0AD4ED040A30EE200A84EDDC
:1019E0000A0A9DF81F00000200B29DF81E1040EA8E
:1019F000010500EE105AB8EEC00A9148D0ED000A79
:101A000020EE200A84ED050A94ED0B0AD4ED050AB8
:101A100030EE200A84ED0B0A06BBF0EE488AB0EEE9
:101A2000489A002017E004F10C0101EB800191EDD0
:101A3000000A03A901EB800181ED000A04F10C0109
:101A400001EB800191ED000A694601EB800181ED17
:101A5000000A411CC8B20328E5DB49E0B4EEE88A7D
:101A6000F1EE10FA01DDF0EE488AB4EEC98AF1EE2B
:101A700010FA01D2B0EE489A002037E004F10C01D0
:101A800001EB800191ED000A03A901EB8001D1ED8A
:101A9000000AB4EEE00AF1EE10FA0ADD04F10C01DE
:101AA00001EB800191ED000A03A901EB800181EDBA
:101AB000000A04F10C0101EB800191ED000A694676
:101AC00001EB8001D1ED000AB4EEE00AF1EE10FA6C
:101AD0000AD204F10C0101EB800191ED000A694684
:101AE00001EB800181ED000A411CC8B20328C5DB6F
:101AF00038EEC90A534880ED000A002012E003A91D
:101B000001EB800191ED000A694601EB8001D1ED06
:101B1000000A30EE600A4C4901EB800181ED000AB9
:101B2000411CC8B20328EADB464890ED000AF6EEF5
:101B3000000AB4EEE00AF1EE10FA1BDC424890ED28
:101B4000000ADFED420AB4EEE00AF1EE10FA11DC11
:101B500090ED010ADFED3D0AB4EEE00AF1EE10FA75
:101B600008DC90ED020ADFED390AB4EEE00AF1EE8E
:101B700010FA00DD0AE09FED360A01F0E9FA701C68
:101B800086B2344800888642FFF687AE00BFD4EDA7
:101B90000C0A3048008800EE100AB8EE400A80EEC9
:101BA000801A84ED0C1A002015E004F1240101EBE9
:101BB0008001D1ED000A2749098800EE101AB8EE1D
:101BC000400A80EE801A04F1240101EB800181EDCE
:101BD000001A411CC8B20328E7DBFFF767FAA2200E
:101BE000FFF754FC022206A92220FFF72FFCFFF783
:101BF00053FA9DF81800C0009DF8191040EA6115CD
:101C0000B5F5806F02DBA5F5006005B200EE105A55
:101C1000F8EEC00AB4EE001A1EE00000D006002064
:101C2000D978A83AA279E4BB4A177E3A4D271C41DD
:101C300000000F420AD7A33B0000000094060020DA
:101C400098060020A006002058A400209A99193E6A
:101C50006F12033AD4060020B3EE070A00EE810AA1
:101C600084ED060A34480088401C00B232490880DE
:101C7000324890ED000ADFED320AB4EEE00AF1EEF0
:101C800010FA3FF7D1AD94ED0C0ADFED2E0A30EEDD
:101C9000600AB0EEC00AF6EE000AB4EEE00AF1EE19
:101CA00010FAEEDC284890ED000A5FED180AB4EE59
:101CB000E00AF1EE10FAE4DC90ED010A5FED1D0A96
:101CC000B4EEE00AF1EE10FADBDC90ED020A5FED13
:101CD000210AB4EEE00AF1EE10FAD2DC94ED090A22
:101CE000B0EEC00ADFED190AB4EEE00AF1EE10FA28
:101CF000C7DC94ED0A0AB0EEC00ADFED140AB4EEB8
:101D0000E00AF1EE10FABCDC94ED0B0AB0EEC00A6A
:101D1000DFED0E0AB4EEE00AF1EE10FAB1DC00BF1E
:101D200094ED0C0ADFED0A0A80EE801A84ED081AA1
:101D300008B0BDEC048B70BDA6060020A0060020F4
:101D4000CDCC4C3FCDCC1C4158A400200AD7233C1D
:101D5000C3F51C417047704738B504460848046015
:101D600000200749087148718871C8710548064B01
:101D70004FF4AD720090054800F00AF838BD00003D
:101D80001E0500202805002040860020480E002067
:101D90002DE9F0472DED028B82B082460D461646A6
:101DA0001C46DDF8309001F045FA074614F055FC6A
:101DB00008EE100A1CE001F03DFA074614F04DFC55
:101DC00000EE100A30EE480ADFED1E0AB4EEE00A1B
:101DD000F1EE10FA0CDD1C48D0F8D400401C1A4972
:101DE000C1F8D400002002B0BDEC028BBDE8F08742
:101DF000504603F038F90028DDD001F01BFA074601
:101E000014F02BFC00EE100A30EE480ABCEEC00ABB
:101E100089ED000A26600020A060E06008202061B3
:101E200001AB2A462146504602F01BFF40B106484E
:101E3000D0F8D400401C0449C1F8D4000020D2E7F7
:101E40000120D0E7000048435CA700201CB500BF7C
:101E500041F2883012F050FE40E013F053FC019044
:101E60001F49086800EBD0714910A0EB410181B90E
:101E70000BF024F81B481C490A680260496841605D
:101E80001A481B4B4FF4A872164900901948FFF7E7
:101E90007FFF13480068322190FBF1F201FB120032
:101EA00098B90BF0C3F80F4813490A688260496873
:101EB000C1600E48001D0E4B183340F25112094903
:101EC000083100900B48FFF763FF05480068401C8D
:101ED00003490860012101A812F03CFEBDE70000A3
:101EE000E806002098A400204B040020E006002013
:101EF000A8A40020480E0020530400202DE9F04340
:101F00002DED028B83B081460027B8460AF02EF9EA
:101F10000546FE4890F84C00042806D112F09EFABF
:101F200003B0BDEC028BBDE8F08375B9F848C0780A
:101F3000022807D0F648C078052803D0F448C078B6
:101F4000062802D1012012F0E5FAF148B0F8150098
:101F5000032803D0002011F09CFB85E2EC48B0F888
:101F6000170001280ED112F0E3FA012012F0B6FAA0
:101F7000032012F0EFFAE648C07808BB012012F007
:101F8000C9FA1DE0E248B0F8170003280CD101207F
:101F900012F0CEFA012012F0A1FA032012F0DAFAC0
:101FA000012012F0B7FA0BE0012012F0C1FA012073
:101FB00012F094FA002012F0CDFA012012F0AAFAE1
:101FC00000200BF04FFD002012F0CEFAD048B0F800
:101FD0004F000290CE48B0F85100CD49B1F84F10F3
:101FE0004840CB49B1F84F100840C949A1F8530007
:101FF0000846B0F85100B1F84F104840C449B1F854
:1020000051100840C249A1F85500BDF80810C04859
:10201000A0F851109FEDBF8ADFEDBE8A012423E1B5
:10202000BDF8080000EA0406B6F5807F38D012DC5F
:10203000102E2BD008DC012E53D0022E4AD0042EB5
:1020400041D0082E54D137E0202E23D0402E25D069
:10205000802E4DD123E0B6F5805F29D009DCB6F59E
:10206000007F1FD0B6F5806F1DD0B6F5006F3FD151
:102070001DE0B6F5005F1CD0B6F5804F03D0B6F575
:10208000004F35D135E04FF0010832E0012012F069
:102090006BFA2EE0032012F021FA2AE029E028E072
:1020A000012726E025E001200BF0DCFC21E020E008
:1020B0001FE04FF001081CE0B7EE000A38EE000AFE
:1020C000B0EE408A15E0B7EE000A38EE400AB0EEF6
:1020D000408A0EE0B7EE000A38EEC00AF0EE408A01
:1020E00007E0B7EE000A38EE800AF0EE408A00E022
:1020F00000BF00BF8648B0F8530000EA0406B6F5FA
:10210000807F3BD012DC102E29D008DC012E50D06D
:10211000022E4DD0042E4AD0082E4BD146E0202E60
:102120001ED0402E1DD0802E44D126E0B6F5805F13
:1021300031D009DCB6F5007F21D0B6F5806F1FD015
:10214000B6F5006F36D11CE0B6F5005F2DD0B6F5C0
:10215000804F03D0B6F5004F2CD12CE02BE02AE0C5
:1021600029E06B48C07A012803D100206849C87271
:1021700002E001206649C8721DE01CE01BE01AE085
:1021800019E027B11DB1052012F0C4F902E00120C9
:1021900012F0C0F90FE027B11DB1062012F0BAF914
:1021A00002E0012012F0B6F905E004E003E002E0ED
:1021B00001E000E000BF00BF5548B0F8550000EA5C
:1021C0000406B6F5807F3FD012DC102E29D008DC43
:1021D000012E42D0022E3FD0042E3CD0082E3DD1FD
:1021E00038E0202E1ED0402E23D0802E36D121E084
:1021F000B6F5805F2CD009DCB6F5007F25D0B6F5AA
:10220000806F23D0B6F5006F28D120E0B6F5005FCF
:102210001FD0B6F5804F03D0B6F5004F1ED11EE09B
:102220001DE01CE03C48808A401C00B23A4988828C
:1022300015E014E0394890ED010ADFED390A30EE7F
:10224000200A80ED010A0AE009E008E007E006E064
:1022500005E004E003E002E001E000E000BF00BFB1
:102260004FF6FF7000EA4404002C3FF7D9AE2A482D
:1022700080ED008AC0ED018A2548007A032818D134
:10228000B7EE000A244880ED020A0146B1F91400B5
:1022900000EBD0714910A0EB410101290ED11E487D
:1022A00090ED020AFFEE000A20EE200A80ED020AFD
:1022B00004E09FED180A184880ED020AB8F1000FFB
:1022C0000AD0022012F00AF91648807820F00100A6
:1022D000401C1449887005E01248807820F0010005
:1022E000104988700A48C078012803D00848C0788F
:1022F000032820D1094890ED010A0548B0F94100B2
:1023000000EE900AF8EEE00A0EE0000008A70020B8
:10231000C58300200000000068760020888000202F
:10232000000034434B0400209FED501A00EEC10A18
:102330004F4880ED010A4F4890EDFF0A4E48B0F932
:10234000430000EE900AF8EEE00A9FED481A00EE16
:10235000C10A484880EDFF0A90EDFF0A4648B0F9EF
:10236000450000EE900AF8EEE00A9FED441A00EEF8
:10237000C10A404880EDFF0A3F4890F847000190AD
:102380003D4890F849009DF8041048409DF804101D
:102390000140394880F84B1090F849009DF804102E
:1023A0004840354991F849100140334880F84C10B5
:1023B0009DF8041080F849109DF8040020B1012018
:1023C0002F4981F8A00103E000202D4981F8A001E8
:1023D000294890F84B0018B10120274981F858008E
:1023E000254890F848000090234890F84A009DF84E
:1023F000001048409DF8001001401F4880F84D1023
:1024000090F84A009DF8001048401B4991F84A1086
:102410000140194880F84E109DF8001080F84A10CD
:102420009DF8000038B135B11348C078012802D1B9
:10243000022012F06FF8104890F84E0030B10E48AC
:10244000C078022802D1012012F064F80D4890F8FB
:102450004D00062807D10B4890F84E00082802D1FD
:10246000002012F057F800BF00BF59E50AD7A33B80
:102470008880002088780020C58300206F12833A6E
:102480002084002008A7002070B58CB0044601A865
:1024900009F030FE05460026FE48B0F81700012876
:1024A0007DD0022802D003287AD110E1F948B0F893
:1024B0001500012875D0022802D0032872D107E048
:1024C00011F0CCFF0020F4490860F4490860FCE0FA
:1024D000012012F02DF8032012F000F8002012F075
:1024E00039F8012012F016F8002012F03DF8E94802
:1024F000B0F81100A0F5806000EE100AB8EEC00A36
:10250000DFEDE70A20EE200A9FEDE61AC0EE010A91
:1025100094ED041AE44890ED010A00EEC10A80ED42
:10252000010ADC48B0F81300A0F5806000EE100A44
:10253000B8EEC00ADFEDDD0A20EE200A9FEDD91AC1
:10254000C0EE010A94ED041AD94890EDFF0A00EE9E
:10255000810A80EDFF0ACF48B0F80F00A0F5806037
:1025600000EE100AB8EEC00AF7EE000A60EE200A8C
:102570009FEDCC1A80EE810AF0EE080A20EE200AC8
:10258000CC4880ED000AC348B0F80D00A0F580608B
:1025900000EE100AB8EEC00AF7EE000A03E040E1D0
:1025A00034E312E089E060EE200A9FEDBE1A80EE6F
:1025B000810AF0EE080A20EE200ABE4880ED010AEA
:1025C000BAEE000A80ED020A7FE0012011F0B0FFB0
:1025D000032011F083FF002011F0BCFF012011F057
:1025E00099FF012011F0C0FFAA48B0F81100A0F532
:1025F000806000EE100AB8EEC00ADFEDA90A20EEF6
:10260000200A9FEDA81AC0EE010A94ED041AA6480C
:1026100090ED010A00EEC10A80ED010A9D48B0F874
:102620001300A0F5806000EE100AB8EEC00ADFEDDE
:102630009F0A20EE200A9FED9B1AC0EE010A94ED3E
:10264000041A9B4890EDFF0A00EE810A80EDFF0A14
:102650009048B0F80F00A0F5806000EE100AB8EEC8
:10266000C00AF7EE000A20EE200ADFED8E0A80EEA7
:10267000201AB0EE080A21EE000A8E4880ED000A0A
:102680008448B0F80D00A0F5806000EE100AB8EEA6
:10269000C00AF7EE000A60EE200A9FED821A80EE73
:1026A000810AF0EE080A20EE200A824880ED010A35
:1026B000B2EE080A80ED020A07E011F0CFFE00201A
:1026C000754908607549086000BF00BFA1E2714804
:1026D000B0F81B00022824D115B909F07FFE98E25A
:1026E0000D20754981F85200012011F021FF0120D1
:1026F00011F0F4FE002011F02DFF012011F00AFF6F
:10270000002011F031FF9DED070A6A4880ED000AB4
:102710009DED080A80ED010A9FED680A80ED020A2E
:102720007EE05C48B0F8150001280AD0022802D0EB
:10273000032871D102E00AF03FF870E00AF03CF89B
:102740006DE015B909F04AFE69E00D205A4981F89B
:102750005200012011F0ECFE002011F0BFFE042019
:1027600011F0F8FE022011F0D5FE002011F0FCFE61
:102770004848B0F81100A0F5806000EE100AB8EEED
:10278000C00ADFED470A20EE200A9FED461AC0EE90
:10279000010A94ED041A444890ED010A00EEC10AC2
:1027A00080ED010A3B48B0F81300A0F5806000EE10
:1027B000100AB8EEC00ADFED3D0A20EE200A9FEDB8
:1027C000391AC0EE010A94ED041A394890EDFF0A57
:1027D00000EE810A80EDFF0A9FED380A354880ED52
:1027E000000A9FED360A80ED010A9FED340A80ED64
:1027F000020A2848B0F80F00A0F58060B0F5A57F68
:1028000004DD01202E4981F8A00103E000202C49BD
:1028100081F8A00103E0FFE711F020FE00BF00BF38
:10282000F7E11C48B0F8150001287DD0022802D03D
:1028300003287AD19CE0012011F07AFE012011F0EA
:102840004DFE002011F086FE012011F063FE0020F5
:1028500011F08AFE00201B4981F831000E49086002
:102860000C48B0F81100A0F5806000EE100AB8EE38
:10287000C00ADFED0B0A20EE200A9FED0A1AC0EE17
:10288000010A94ED041A084890ED010A00EEC10A0D
:102890001AE00000C58300205C04002060040020D2
:1028A0000000344300002544888000200000C84216
:1028B000887800206876002008A70020000000002B
:1028C000208400201081002080ED010AD548B0F856
:1028D0001300A0F5806000EE100AB8EEC00A5FEDAC
:1028E0000D0A20EE200A1FED111AC0EE010A94ED28
:1028F000041ACD4890EDFF0A00EE810A80EDFF0A30
:10290000C848B0F80F00A0F5806000EE100AB8EEDD
:10291000C00AF7EE000A60EE200A1FED1E1A80EED4
:10292000810AF0EE080A01E0B1E06AE120EE200A37
:10293000BE4880ED000ABB48B0F80D00A0F58060ED
:1029400000EE100AB8EEC00AF7EE000A60EE200AA8
:102950001FED2C1A80EE810AF0EE080A20EE200A04
:10296000B24880ED010A1FED2B0A80ED020A4BE10F
:10297000012011F0DDFD052011F0B0FD002011F067
:10298000E9FD012011F0C6FD012011F0EDFD002050
:10299000A74981F83100A748006878B9A64890EDAA
:1029A000FF0AB0EE401AFA21F7EE000AB1EE080A6B
:1029B000A2480AF0B3FC01209E4908609948B0F88B
:1029C0001100A0F5806000EE100AB8EEC00A5FEDBD
:1029D0004C0A20EE200A1FED4D1AC0EE010A94EDBC
:1029E000041A974890ED010A00EEC10A80ED010A31
:1029F0008C48B0F81300A0F5806000EE100AB8EE25
:102A0000C00A5FED560A20EE200A1FED5A1AC0EEEA
:102A1000010A94ED041A844890EDFF0A00EE810A41
:102A200080EDFF0A7F48B0F80F00A0F5806000EE4F
:102A3000100AB8EEC00AF7EE000A60EE200A1FED99
:102A4000671A80EE810AF0EE080A20EE200A774825
:102A500080ED000A7348B0F80D00A0F5806000EE2C
:102A6000100AB8EEC00AF7EE000A60EE200A1FED69
:102A7000731A80EE810AF0EE080A20EE200A6B48F5
:102A800080ED010A1FED730A80ED020ABCE001200F
:102A900011F04EFD022011F021FD012011F03AFD50
:102AA0006048B0F81300A0F58060002805DD5D489F
:102AB000B0F81300A0F5806005E05A48B0F81300A4
:102AC0004042A0F58060B0F5A57F15DC5548B0F810
:102AD0001100A0F58060002805DD5248B0F8110013
:102AE000A0F5806005E04F48B0F811004042A0F525
:102AF0008060B0F5A57F2FDD4A48B0F80F00A0F543
:102B00008060002805DD4748B0F80F00A0F5806020
:102B100005E04448B0F80F004042A0F58060B0F5F1
:102B2000A57F15DC3F48B0F80D00A0F580600028B7
:102B300005DD3C48B0F80D00A0F5806005E039489F
:102B4000B0F80D004042A0F58060B0F5A57F03DD30
:102B5000062011F0FFFC02E0032011F0FBFC002036
:102B600011F002FD0020324981F831002D48B0F803
:102B70001100A0F5806000EE100AB8EEC00A5FED0B
:102B8000B80A20EE200A1FEDB91AC0EE010A94ED32
:102B9000041A2B4890ED010A00EEC10A80ED010AEB
:102BA0002048B0F81300A0F5806000EE100AB8EEDF
:102BB000C00A5FEDC20A20EE200A1FEDC61AC0EE61
:102BC000010A94ED041A184890EDFF0A00EE810AFC
:102BD00080EDFF0A1FEDC70A144880ED020A114874
:102BE000B0F80F00A0F58060B0F5A57F04DD0120EE
:102BF000144981F8A00103E00020124981F8A001E6
:102C000002E011F02BFC00BF00BF02E011F026FC37
:102C100000BF00BF0348B0F81510A0F81B100CB09F
:102C200070BD0000C58300208878002068760020F1
:102C3000108100205C040020887C00208476002025
:102C4000888000202084002010B5024802F032FD68
:102C500010BD00006C11002010B5024802F02AFDE2
:102C600010BD0000440F002010B5024802F022FD04
:102C700010BD0000A40F002001460878103818236A
:102C8000B0FBF3F20848805CC865032A05D90868E0
:102C90006FF30900001D886503E008686FF3090001
:102CA0008865886D7047000078680108014600203B
:102CB0008A6A8B69CBB932B1012A0DD0022A03D0BE
:102CC000032A10D10EE000BFCB6A03F08073B3F18A
:102CD000807F00D1012007E0CB6AB3F1C07F00D133
:102CE000012001E000E000BF34E08B69B3F5005F34
:102CF0001AD132B1012A07D0022A03D0032A11D1F6
:102D00000AE000BF01200EE0CB6A03F08073B3F14C
:102D1000807F00D1012006E0CB6AB3F1C07F00D1F3
:102D2000012000E000BF15E032B1012A05D0022ADF
:102D300004D0032A0CD103E000BF00BF012008E04B
:102D4000CB6A03F08073B3F1807F00D1012000E0F3
:102D500000BF00BF7047000010B590F833300D2B56
:102D600005D19B4B1C680C605B684B6010BD12B1B9
:102D700090F8263043B9974B1C680C605B684B6039
:102D8000012380F8263020E1012A05D1924B1C68EE
:102D90000C605B684B6018E1036800EE103AD0F8F5
:102DA0001E3000EE903AF1EE600AB4EEE00AF1EE69
:102DB00010FA06D8D0F81E3000EE103AB1EE400AF4
:102DC00013E0036800EE103AD0F81E3000EE903A9F
:102DD000B4EEE00AF1EE10FA04DBD0F81E3000EE9B
:102DE000103A02E0036800EE103A10EE103A036069
:102DF000436800EE103AD0F8223000EE903AF1EE3F
:102E0000600AB4EEE00AF1EE10FA06D8D0F82230EB
:102E100000EE103AB1EE400A13E0436800EE103ABB
:102E2000D0F8223000EE903AB4EEE00AF1EE10FA5B
:102E300004DBD0F8223000EE103A02E0436800EEE6
:102E4000103A10EE103A4360C36800EE103AD0F822
:102E50001A3000EE903AB1EE601ADFED601AF7EE2C
:102E6000000A41EE210AB4EEE00AF1EE10FA0CD8A5
:102E7000D0F81A3000EE103AF1EE400A9FED571AE2
:102E8000B7EE000A00EE810A1FE0C36800EE903A38
:102E9000D0F81A3000EE103ADFED501AB7EE001AF3
:102EA00010EE211AF4EEC10AF1EE10FA0ADBD0F8A6
:102EB0001A3000EE903A9FED491AB7EE000A10EE74
:102EC000810A02E0C36800EE103A10EE103AC360C7
:102ED0004389002B01DC002305E04389052B01DB3E
:102EE000052300E0438943810389002B01DC002393
:102EF00007E00389B3F5FA7F02DB4FF4FA7300E0D1
:102F000003890381036800EE103AD0F81E3000EE0A
:102F1000903A80EE201ADFED320A9FED310A01EE81
:102F2000200ABCEEC00A10EE103A0382436800EE9D
:102F3000103AD0F8223000EE903A80EE201ADFED01
:102F4000290A9FED280A01EE200ABCEEC00A10EE05
:102F5000103A4382C36800EE103ADFED200A80EE9B
:102F6000201AD0F81A3000EE103AC1EE000A9FED98
:102F70001D1A9FED1C0A00EE810ABCEEC00A10EE7D
:102F8000103A0383038983824389C382038A1B0A1D
:102F90000B70037C4B70438AC3F307138B70037C65
:102FA0001B071B0E848A43EA1423CB70037D0B712D
:102FB000C38AC3F307134B71837D1B02DBB2048BFF
:102FC00043EA14238B71037ECB7100BFCEE6000071
:102FD00007060020F7050020FF05002000007A44C6
:102FE000000000470000004500211A30017310EE78
:102FF000101A416010EE901A016011EE101A8160F3
:103000001A3870472DE9F0472DED068B05460C4622
:10301000A878697840EA0126E8780001297940EA31
:1030200021176879297901F00F0140EA0128A87970
:103030001A34A076E879E076A7F5006000EE100A71
:10304000B8EEC00A9FED301AC0EE010AA06800EE8B
:10305000100A20EE800A10EE100AC4F81100A6F53E
:10306000004000EE100AB8EEC00A9FED281AC0EE2C
:10307000010A606800EE100A20EE800ADFED240AE3
:1030800080EE201A11EE109A484613F045FA41ECF2
:103090001A0B9FED200B53EC102B13F013F841EC9F
:1030A000190B9FED1C0B53EC102B12F0C3FD41ECE0
:1030B000180B12F08DFDC4F80D00A8F5006000EEAD
:1030C000100AB8EEC00A9FED101AC0EE010A20687F
:1030D00000EE100A20EE800ADFED100A20EE200A32
:1030E00010EE100AC4F8150095F800A04FEA2A1057
:1030F0006076607E1A3C10B9002084F82600BDEC92
:10310000068BBDE8F0870000000000450000004786
:10311000DB0F4940000000000080664000007A4458
:1031200008B5084840680090074900980968884237
:1031300004D206480068401C04490860024900980F
:10314000086008BD001000E0400500203C0500209C
:103150000C494868F0EE400A00BF0A494968091A5C
:1031600001EE101AF8EE411A074991ED001AB8EE77
:10317000411A20EE811AF4EEC11AF1EE10FAECD3E6
:1031800070470000001000E03005002010B52DED64
:10319000028B82B004460E48406801902068019975
:1031A000081A00EE100AF8EE400A0A4890ED000AEC
:1031B000B8EE400A80EE801AB0EE418A0198206095
:1031C000FFF7AEFFB0EE480A02B0BDEC028B10BDB7
:1031D000001000E03005002010B52DED028B00F04E
:1031E00081F81148D0E90221104613F036FA00EEBA
:1031F000100A0D48D0ED000AF8EE608ADFED0B0AE8
:1032000040EE208AD0E90421104613F026FA00EEA1
:10321000100ADFED070A40EE208AB0EE688AB0EEB1
:10322000480ABDEC028B10BD588600206F12833A0D
:10323000BD3786352DE9F04100F054F80D4800689F
:103240000D49484300210B4A4FF47A77D2E9023600
:10325000A3FB072806FB078603FB01668318714161
:10326000044AD2E904021C1841EB02052046294613
:10327000BDE8F0815886002040420F0012490968DD
:1032800041F08071104A11600021104A51601146CE
:10329000096841F0010111600D4941430D4A116077
:1032A000114609684FF47A72B1FBF2F10A4A1160D3
:1032B00008490968064AB1FBF2F1084A1160002189
:1032C000074A116070470000FCED00E0001000E0CC
:1032D00040420F0030050020340500203805002052
:1032E0003C05002038B52D4840680090FFF718FFD6
:1032F0002B4800684FF0FF31A0FB013000995918AE
:1033000040F10000274AC2E9001027480023254960
:10331000026803C9FDF782F8244A03C2234806C89D
:10332000214800680024A1FB003502FB005001FB8E
:1033300004011C48D0E90020D21A60EB01001C49AE
:10334000C1E90020194800681A4908601A4800239A
:103350001749026803C9FDF761F8164AC2E902017C
:103360001046D0E9021314480068A1FB002503FBB6
:10337000005001FB04010E48D0E900309A1A60EBBE
:1033800001000E49C1E900200D480023026803C96D
:10339000FDF744F8074AC2E9040138BD001000E017
:1033A0003C05002048050020300500205005002085
:1033B00058050020588600203405002060050020B4
:1033C000380500207047D2ED020A92ED021AB6EEDF
:1033D000000A00EEC10AD2ED030A92ED031A00EED4
:1033E000C10AD0ED000A20EE200AD2ED010A92EDCA
:1033F000021A60EE810A92ED001AD2ED031A41EE34
:10340000210A90ED011A00EE810AD2ED010A92ED37
:10341000031A60EE810A92ED001AD2ED021A41EE13
:10342000610A90ED021A00EE810AF0EE000A20EE29
:10343000200A81ED000A92ED010AD2ED020A20EE87
:10344000200AD2ED000A92ED031A00EEC10AD0ED77
:10345000000A60EE200A92ED011AD2ED011AB6EED2
:10346000000A01EE610AD2ED031A92ED032AB0EED2
:10347000401A01EEC21AD0ED011AB0EE600A01EE58
:10348000210AD2ED020A92ED031A60EE810A92ED52
:10349000001AD2ED011A41EE210A90ED021A00EE57
:1034A000810AF0EE000A20EE200A81ED010A92ED79
:1034B000010AD2ED030A20EE200AD2ED000A92EDB5
:1034C000021A00EE810AD0ED000A20EE200AD2EDA9
:1034D000020A92ED031A60EE810A92ED001AD2ED13
:1034E000011A41EE610A90ED011A00EE810A92ED97
:1034F000011AD2ED011AF6EE000A41EE610A92EDD0
:10350000021AD2ED021A41EE610A90ED021A00EEA3
:10351000810AF0EE000A20EE200A81ED020A7047CF
:1035200072B600BFFEE700002DE9F0412DED028BE1
:1035300004460D46B0EE408AF0EE608A16461F46FD
:1035400084ED258A6DB164B195ED000A84ED000A21
:1035500095ED010A84ED010A95ED020A84ED020A57
:103560000FE09FED180A84ED000A9FED160A84ED26
:10357000010A9FED140A84ED020A9FED120A84ED00
:10358000250AC4ED088A2686A4F86070022E04DDA0
:10359000314604F1340008F0A9FB022F04DD39465E
:1035A00004F1640008F0A2FB9FED070A84ED070A0E
:1035B0009FED040A204600F009F8BDEC028BBDE83F
:1035C000F0810000000000006F12033B10B52DEDEC
:1035D000028B0446F0EE408A14B9BDEC028B10BD9C
:1035E00094ED078AB4EE488AF1EE10FA0BD1B5EEED
:1035F000C08AF1EE10FA06D99FED1D0AB4EEC08A1A
:10360000F1EE10FA03DD9FED1B0AB0EE408AC4ED27
:10361000038AC4ED048A9FED180A84ED090A9FED20
:10362000160A84ED0A0A9FED140A84ED0B0A9FED39
:10363000120A84ED240A208E022807D9F0EE680AC7
:10364000B0EE480A04F1340008F076FBB4F86000EC
:10365000022807D9DFED080AB0EE480A04F1640039
:1036600008F06AFB04F11800FFF790FD00BFB4E713
:10367000CDCCCC3D6F12033B0000000002460AB9DE
:10368000032902D0032A02D109B901207047002082
:10369000FCE7000010B520220121DFED194A9FED63
:1036A000184ADFED183A9FED173ADFED152A9FED26
:1036B000162ADFED161A9FED121ADFED150A9FED9F
:1036C000150A154809F0A8FB20220121DFED0C4A5C
:1036D0009FED0B4ADFED0B3A9FED0A3ADFED082A2A
:1036E0009FED092ADFED091A9FED051ADFED080AA3
:1036F0009FED080A0848B83009F08EFB10BD0000A5
:103700000000000000007A4427A0893BCDCC0C408B
:1037100000C0DA4500007A46B876002010B52DEDDD
:10372000028BB0EE408AF0EE608A0D48D0ED660A5A
:10373000B0EE600AF0EE480A09F002FA084880ED9F
:10374000700AD0ED6E0AB0EE600AF0EE680AB8308A
:1037500009F0F6F9024880ED710ABDEC028B10BD4C
:10376000B876002070B52DED028B05460C46B5F9F4
:10377000000000EE100AB8EEC00ADFED160A20EED7
:10378000200AB0EE408AB5F9020000EE100AB8EE49
:10379000C00AF1EE080A20EE200A84ED060ADFEDE9
:1037A0000E0AB0EE480A20460EF072FA84ED050AC1
:1037B000B5F9040000EE900AF8EEE00AB0EE600AF7
:1037C000DFED060A04F11C000FF056FFBDEC028B82
:1037D00070BD0000FFFF333D0000B4433333333F7F
:1037E000F0B5059D012D0DD113F5804F01DC1F4C67
:1037F00006E0B3F5804F02DB4FF4804400E01C4646
:1038000023460AE01A4CA34200DC05E047F230549C
:10381000A34200DB00E01C46234640F2FF14A14215
:1038200002D0B1F5FF7F0CD1012A1EDB042A1CDC7B
:10383000561E74001E0A76B206555FB2661C875586
:1038400013E040F2FF24A14202D0641EA1420CD139
:10385000052A0ADB072A08DC561F74001E0A76B206
:1038600006555FB2661C875500BFF0BD00C0FFFF64
:10387000D08AFFFF30B5034605E013F8010B80EA5C
:1038800002040448025D081EA1F10101F5D11046B1
:1038900030BD0000996A010870B50A480468001D2F
:1038A0000568001D0668344454B1082206492046C4
:1038B00006F0F6F8042204491031284606F0F0F824
:1038C00070BD0000107AFF1F7A06002010B55F4817
:1038D00009F078FA5D48B83809F074FA5C4809F0E4
:1038E00071FA5B48D0EDFB0AB0EE600A00F5567045
:1038F0000AF03EFE564890EDFB0A80EDFF0A9FED70
:10390000550A00F5806080ED000A9FED520A80EDB7
:10391000010A4F4890EDFB0A80EDF60A9FED4D0A33
:1039200080EDF40A9FED4B0A80EDF50A9FED490A00
:1039300080EDF80AD0EDFB0AB0EE600A00F53070B9
:10394000FFF744FE9FED430A4048B830FFF73EFEC4
:10395000414890F83B00D0B13F4890F84D00052811
:1039600015D13B48D0F8BD0700EE100ADFED3B0A49
:1039700030EE600ADFED3A0A60EE200A9FED371A5A
:1039800080EE810A10EE100A3149C1F896073248DC
:1039900090F83C00C0B1304890F84E00072813D191
:1039A0002B48D0F8870700EE100ADFED2C0A30EE26
:1039B000600ADFED2B0A20EE200ADFED280A80EEF8
:1039C000201A284880EDD81A274809F0FBF9264824
:1039D000B83809F0F7F92548D0ED0B0AB0EE600AC7
:1039E0002348FFF7F3FD9FED1B0A21489838FFF7A6
:1039F000EDFD1E48D0ED0B0AB0EE600A1D480AF03E
:103A0000B7FD1A4890ED0B0A1A48103880ED010AEC
:103A10009FED100A80ED020A9FED0E0A80ED030A69
:103A2000124890ED0B0A0F4880EDF50A9FED090A48
:103A300080EDF30A9FED070A80EDF40A00F010FD17
:103A400000200A4981F83200888610BDF8790020EC
:103A5000887800200000000008A700200000344300
:103A6000DB0F4940887C0020007E00201081002070
:103A7000507F002098800020B0EE401AB4EE411A2A
:103A8000F1EE10FA01D00020704721EE200ADFEDA0
:103A90000C1AB4EEE10AF1EE10FA02DD47F6FF70FF
:103AA000F2E7DFED081AB4EEE10AF1EE10FA01D206
:103AB0000548E9E7FDEEC01A11EE900A00B2E3E70F
:103AC00000FEFF46000000C70080FFFF00B58DB07C
:103AD00000220121DFED5D4A9FED5C4ADFED5B3A9C
:103AE0009FED5A3ADFED592A9FED582ADFED581A1B
:103AF0009FED561ADFED550A9FED560A564809F01C
:103B00008BF900220121DFED514A9FED504ADFED94
:103B10004F3A9FED4E3ADFED4D2A9FED4C2AF2EEE3
:103B20000E1A9FED4A1ADFED490A9FED4C0A4A48EA
:103B3000B83809F071F900214948A0F89E1705210D
:103B4000A0F8A0170021A0F868170521A0F86A17AF
:103B5000444A07CA0AAB07C305231A46DFED420AE7
:103B60000AA9B2EE040A4148FFF7DEFC00200790E4
:103B70000890099005231A46DFED3B0A07A99FED3F
:103B8000330A3A489838FFF7CFFC00220121DFEDD5
:103B90002F4A9FED2E4ADFED2D3A9FED2C3ADFEDB7
:103BA0002B2A9FED2A2ADFED321A9FED281ADFED2E
:103BB000270A9FED280A2F4809F02EF9002201213B
:103BC000DFED224A9FED214ADFED203A9FED1F3ABB
:103BD000DFED1E2A9FED1D2ADFED271A9FED1B1A30
:103BE000DFED1A0A9FED1D0A2248B83809F014F9D2
:103BF000002004900590069005231A46DFED1A0A6E
:103C000004A99FED1E0A1E48FFF78EFC00200190BC
:103C10000290039005231A46DFED130A01A99FEDD8
:103C2000190A17489838FFF77FFCDFED170A9FED58
:103C3000080A0E4898300AF0B1FCDFED130A9FED38
:103C40000C0A12480AF0AAFC0DB000BD00000000EA
:103C500000007A4400803B46F879002000007A4654
:103C6000887800202C6C01080AD7233C487B002070
:103C70000000FA44007E002000000C420000C84210
:103C8000507F00200000FA430AD7A33B9880002011
:103C900010B52DED028B104890EDFB0ADFED0F0AF9
:103CA00020EE200AB0EE408AB0EE480A0EF0FAFC90
:103CB000DFED0B0A60EE208AB0EE480A0EF040FC01
:103CC000DFED080A40EE808A0348C0EDF88A90EDE7
:103CD000F80ABDEC028B10BD8878002035FA8E3CC6
:103CE0006CA2F1443771A843014908607047000095
:103CF0008004002008B500BF0025A846FFF7CAFCD5
:103D0000FFF7E4FE0AF03CFE9FED641AF3EE040AAE
:103D10009FED630A6348FFF767F9B3EE0E1AF2EE00
:103D2000040A9FED5F0A5F483630FFF75DF95E4891
:103D3000FFF7DAFF5B48E03000F0C4F84FF4FA60B8
:103D400010F0DAFEA8E011F0DDFC00905748FFF714
:103D50001DFA5648203880ED090A10F037FCFDF7AF
:103D6000CDFB09F043FB5248C478022C03D0052C4C
:103D700001D0062C01D1012000E000208146B9F1DC
:103D8000000F01D100F016FC012C03D1012D01D050
:103D900000F094FB2546072C17D2DFE804F0040757
:103DA0000A13160D100000F0A5FE11E000F0C8F88F
:103DB0000EE000F0F1F80BE000F0B6FE08E000F0D5
:103DC00087F905E000F01EFF02E000F093FE00BF5F
:103DD00000BF384890F84A00012805D1354890F8CE
:103DE0004B00012800D100E00020064626B13148F2
:103DF00090F84D00052804D09FED2F0A2F4880ED44
:103E00000E0A26B12B4890F84E00072804D09FEDEB
:103E10002A0A2A4880ED130A264890F84F000928FC
:103E20000BD1244890F85000092806D1214890F879
:103E300051000B2801D1012000E00020074617B1F6
:103E4000B8F1000F02D109F053FF01E009F098FE2C
:103E5000B84607F087FC1A48007800F0010008B95E
:103E600007F094FD164800680321B0FBF1F201FB56
:103E7000120008B907F012FE07F0CCFD10480068E8
:103E800008F0C0FD0E480068401C0D490860022182
:103E9000684610F05FFE00BF55E7000000003442A6
:103EA000DC0F4940E87F0020887800207CA70020B4
:103EB000C583002008A700200000000054A80020AF
:103EC000FC06002010B5044641F28831B6EE001A17
:103ED000F1EE040AB9EE040A20460AF05BF9204626
:103EE00000F012F80020A0869FED060A84ED0E0A6D
:103EF0009FED040A84ED0F0A9FED020A84ED100A7B
:103F000010BD0000000000009FED0C0A80ED060AC5
:103F10009FED0A0A80ED070A9FED080A80ED080A66
:103F20009FED060A80ED090A9FED040A80ED0A0A5A
:103F30009FED020A80ED0B0A7047000000000000B0
:103F400010B52DED028B114C0FF0CEFBA4F50460E3
:103F5000D0EDFF0AB0EE600A00F072FCB0EE408ACD
:103F60000B4880ED0E8AA4F14000D0ED010AB0EEBE
:103F7000600A00F0B1F8064880ED130A01200549F7
:103F800081F83000BDEC028B10BD0000C88000201D
:103F900054A800201081002010B52DED048B00F0F6
:103FA00031FB414890EDFF0AB0EEC00ADFED3F0A59
:103FB000B4EEE00AF1EE10FA0DDD90EDFB0A80EDB3
:103FC000FF0A9FED3B0A00F5806080ED000A9FED3F
:103FD000380A80ED010A374890ED010ADFED360A14
:103FE00030EE600AB0EEC00A10EE104A204612F021
:103FF00093FA41EC190B9FED310B53EC102B12F09F
:1040000025F80DD22F4890ED0B0A2A4880ED010AC1
:104010009FED270A80ED020A9FED250A80ED030A35
:10402000214890EDFF8A0FF05FFB1F4890EDFF0ADB
:10403000B4EE480AF1EE10FA09D09FED1D0A00F522
:10404000806080ED000A9FED1A0A80ED010A1E488B
:10405000D0ED011AB0EE611AD0ED001AF0EE610A4F
:104060001148D0EDFF1AB0EE610A00F0FDFB1748D1
:1040700080ED0E0A0F48D0ED031AB0EE611AD0EDB4
:10408000021AF0EE610AD0ED011AB0EE610A00F0FA
:1040900037F80E4880ED130A01200A4981F83000F4
:1040A000BDEC048B10BD0000887800200000704239
:1040B000000000008880002000C079442D431CEBE4
:1040C000E2361A3F10810020887C002054A800208E
:1040D00010B500F029FD10BD10B52DED028BB0EE2E
:1040E000408A00209FED051ADFED040AB0EE480A71
:1040F00000F01CF8BDEC028B10BD000000000000B9
:1041000010B52DED048BB0EE408AF0EE608AB0EE73
:10411000419A0120B0EE491AF0EE680AB0EE480A62
:1041200000F004F8BDEC048B10BD000010B52DEDBF
:10413000048BF0EE408AB0EE609AF0EE419A0446AD
:1041400000F06AFDE8B900208C4908708C4890EDB9
:104150000B0A8C4880ED010A894890ED0B0A8A48C9
:1041600080EDF50A9FED890A80EDF30A9FED870A3D
:1041700080EDF40A00F074F99FED840ABDEC048B25
:1041800010BD7E480078002852D101207B4908707C
:104190007B4890ED0B0A7B4880ED010A784890ED52
:1041A0000B0A794880EDF50A9FED780A80EDF30A55
:1041B0009FED760A80EDF40A00F052F9744808F099
:1041C00001FE7348B83808F0FDFD6D48D0ED0B0ACC
:1041D000B0EE600A6F48FFF7F9F99FED6C0A6D4881
:1041E0009838FFF7F3F96648D0ED0B0AB0EE600A95
:1041F000644810300AF0BCF96748D0F8870700EE31
:10420000100ADFED660A30EE600ADFED650A20EE87
:10421000200ADFED620A80EE201A5B4880EDD81A92
:104220000020574981F8320088869FED580AA5E79B
:104230007CB15548C0EDF58A80EDF39AB0EE691A6D
:10424000F0EE490AB0EE680A00F5826000F0CCFC9E
:104250000FE0B0EE680A4B4810300AF01BF84A48ED
:1042600080EDF50A00F5826090ED040A464880ED85
:10427000F30A454890EDF51AF0EE410A404890EDFA
:104280000B1AB0EE410A424808F05AFC3E4890ED45
:10429000F31AF0EE410A90EDFD1AB0EE410AC0307B
:1042A00008F04EFC14B1B0EE691A03E03548103046
:1042B00090ED051AF0EE410A334890EDF30A00F054
:1042C00075F8B0EE408A324890ED0D0AB838D0ED5E
:1042D0000D0A30EE200A30EE080AF7EE000A20EE52
:1042E000200AC03880EDF40A254890F83200E0B981
:1042F000274890ED060AB0EEC00AF1EE040AB4EECB
:10430000E00AF1EE10FA10D21D48808E962804DAE9
:104310001B48808E401C1A4988861948808E962832
:1043200003DB0120164981F83200154890F832006D
:10433000F8B9154890EDF40ADFED1A0AB4EEE00A78
:10434000F1EE10FA02D89FED170A0FE00E4890ED3B
:10435000F40ADFED150AB4EEE00AF1EE10FA02DB22
:104360009FED110A02E0084890EDF40A064880ED3E
:10437000F40A054890EDF40A00E700006504002007
:104380001081002088800020887C00200000000030
:10439000007E0020507F00208878002000003443F9
:1043A000DB0F4940000096C400009644B0EE401A6E
:1043B0009FED272AF0EE421A264880EDF71AC0ED4D
:1043C000F80AF1EE082A81EE222AFFEE002AB4EE66
:1043D000E22AF1EE10FA02D8BFEE002A11E0F1EE67
:1043E000082A81EE222AF7EE002AB4EEE22AF1EE44
:1043F00010FA02DBB7EE002A03E0F1EE082A81EEA4
:10440000222AF0EE421A9FED142A20EE822A114849
:1044100080EDF92A9FED0E2A21EE022A80EDFA2A7C
:104420009FED0E2A21EE822A80EDFB2A90EDF92ADB
:10443000D0EDFA2A32EE222AD0EDFB2A32EE222AE1
:10444000F7EE002A22EE220A80EDFC0A70470000F7
:1044500000000000887C0020BA49AC3F00C0A243A5
:104460009FED0C0A0C4880EDF70A9FED0A0A80EDDB
:10447000F80A9FED080A80EDF90A9FED060A80ED23
:10448000FA0A9FED040A80EDFB0A9FED020A80ED17
:10449000FC0A704700000000887C0020064890F865
:1044A0004A00012805D1044890F84B00012800D1AA
:1044B00070470020FCE7000008A7002010B52DED94
:1044C000028B354890EDFB0AF0EE408A334890EDC0
:1044D0000B0AB0EE408A3048C0EDFF8A9FED300AEB
:1044E00000F5806080ED000A9FED2D0A80ED010A45
:1044F0002948C0EDF68A9FED2A0A80EDF40A9FED67
:10450000280A80EDF50A00F5B87008F05BFC224837
:10451000B83008F057FC204808F054FCB0EE680AA8
:104520002048FFF753F89FED1E0A1E489838FFF702
:104530004DF81D4880ED018A9FED190A80ED020AB1
:104540009FED170A80ED030AA0F5806080EDF58AE3
:104550009FED130A80EDF30A9FED110A80EDF40A36
:1045600000F5BC7008F02EFC104808F02BFCB0EEF3
:10457000480A0F48FFF72AF89FED090A0C489838B7
:10458000FFF724F8B0EE480A0748103009F0F0FFB2
:10459000BDEC028B10BD0000887800201081002047
:1045A00000000000487B002088800020487D00201B
:1045B000507F002000200349087001200249087044
:1045C00070470000EC060020ED060020F0EE401AD7
:1045D00030EEE10AB0EE402AB4EEC12AF1EE10FA54
:1045E00002DD31EE810A7047B1EE410AB4EEC02A15
:1045F000F1EE10FA02D231EEC10AF4E7B0EE600A31
:10460000F1E7000000B52DED048B8BB0684607F094
:1046100071FD48BB7E48007810B1FFF74FFF1DE0E9
:104620007C4890EDFB0A80EDFF0A7B4890ED0B0A79
:104630007A4880ED010A9FED7A0AA0F5806080ED4E
:10464000000A9FED770A80ED010A9FED750A734815
:1046500080ED020A9FED720A80ED030AFFF7AAFFC0
:104660000BB0BDEC048B00BD6948007830B9FFF792
:1046700025FF0120664908706A490870654890ED79
:10468000FB0ADDED010A30EE600AB0EEC00ADFED94
:10469000660AB4EEE00AF1EE10FA0FDC5E4890ED27
:1046A0000B0ADDED000A30EE600AB0EEC00ADFED65
:1046B0005F0AB4EEE00AF1EE10FA21DD554890ED04
:1046C000FB0A80EDFF0A544890ED0B0A534880ED39
:1046D000010A9FED530AA0F5806080ED000A9FED6E
:1046E000500A80ED010A9FED4E0A4C4880ED020A07
:1046F0009FED4B0A80ED030A01204A490870AFE79D
:1047000048480078E8B99DED010A424880EDFF0A6B
:104710009DED000A414880ED010A9DED030AA0F5D8
:10472000806080ED000A9DED050A80ED010A9DED97
:10473000020A3A4880ED020A9DED040A80ED030A60
:104740008EE7344890EDFE8AB5EEC08AF1EE10FA9D
:1047500006DD9FED370AB4EEC08AF1EE10FA03D9F8
:104760009FED340AB0EE408A9FED330A68EE008A6E
:104770009FED320A28EE009A9DED011AF0EE410AF3
:10478000244890EDFF1AB0EE410AB0EE681AFFF728
:104790001DFF204880EDFF0A9DED001AF0EE410A52
:1047A0001E4890ED011AB0EE410AB0EE491AFFF72B
:1047B0000DFF1A4880ED010A9FED190AA0F58060EF
:1047C00080ED000A9FED160A80ED010A9FED140AA4
:1047D000124880ED020A9FED120A80ED030A0D488F
:1047E00090EDFF0ADDED010AB4EE600AF1EE10FA79
:1047F0000CD10A4890ED010ADDED000AB4EE600A22
:10480000F1EE10FA02D100200649087000BF27E738
:10481000EC0600208878002010810020888000208D
:1048200000000000ED0600200000704200008C42F5
:104830000AD7A33C6F12033B0000C8420000344378
:1048400010B52DED028BB0EE408A00209FED051AC9
:10485000DFED040AB0EE480A00F01CF8BDEC028B54
:1048600010BD00000000000010B52DED048BB0EE6F
:10487000408AF0EE608AB0EE419A0120B0EE491A0B
:10488000F0EE680AB0EE480A00F004F8BDEC048BC4
:1048900010BD000010B52DED048BB0EE408AF0EE97
:1048A000608AB0EE419A044600F014F9C0B90020C5
:1048B0007F4908707F4890EDFB0A80EDFF0A90ED7C
:1048C000FB0A80EDF60A9FED7C0A80EDF40A9FED6D
:1048D0007A0A80EDF50A9FED780ABDEC048B10BDD5
:1048E0007348007800284ED1012071490870714842
:1048F00090EDFB0A80EDFF0A90EDFB0A80EDF60AD1
:104900009FED6D0A80EDF40A9FED6B0A80EDF50ACC
:1049100000F5B87008F056FA6648B83008F052FA58
:10492000644808F04FFA6348D0EDFB0AB0EE600A25
:1049300000F5567009F01CFE5E48D0EDFB0AB0EEA3
:10494000600A00F53070FEF741FE9FED5B0A5B48A0
:10495000FEF73CFE5748D0F8BD0700EE100ADFED29
:10496000580A30EE600ADFED570A60EE200A9FED2C
:10497000541A80EE810A10EE100A4E49C1F89607CB
:104980009FED4D0AA9E77CB14A4880EDF68AC0ED5B
:10499000F48AB0EE491AF0EE680AB0EE480A00F563
:1049A000567000F021F90BE0B0EE480A464809F0D5
:1049B00071FC404880EDF60A90EDDA0A80EDF40AC9
:1049C0003C4890EDF61AF0EE410A90EDFB1AB0EE7D
:1049D000410A00F5B87008F0B3F8364890EDF41AC3
:1049E000F0EE410A90EDF91AB0EE410AB83008F045
:1049F000A7F8304890EDF40AB1EE081AC0EE010AAB
:104A0000BFEE000AF4EEC00AF1EE10FA02D8BFEED3
:104A1000000A17E0274890EDF40AF1EE080A80EE4C
:104A2000201AB7EE000AB4EEC01AF1EE10FA02DB5B
:104A3000B7EE000A06E01F48D0EDF40AB1EE081AFE
:104A400080EE810AF0EE409A14B1B0EE490A02E01D
:104A5000184890EDDB0ADFED180A20EE200A154811
:104A6000D0EDF40A9FED191A01EE200ADFED180AC5
:104A700000EEA90A80EDAE0A90ED690AD0ED3B0A7E
:104A800030EE200AD0EDAE0A30EE200AF7EE000A32
:104A900020EE200A80EDF50AFFF7FAF80548D0ED80
:104AA000F50A30EE200A80EDF50A90EDF50A14E7DC
:104AB000640400208878002000000000B07A002004
:104AC00000003443DB0F4940E07B0020657A8E3FD5
:104AD000436CDD4310B5FFF7E1FC30B1044890F8BA
:104AE0004D00052801D1012010BD0020FCE7000089
:104AF00008A7002010B50EF0F7FDFEF7E7FE9FEDCA
:104B0000070A074880ED0E0A9FED040A80ED130A9C
:104B10000020044981F8300010BD000000000000B2
:104B200054A800201081002010B52DED028BFFF756
:104B300069FD254890EDFF0AB0EEC00ADFED230ABB
:104B4000B4EEE00AF1EE10FA03DD90EDFB0A80ED21
:104B5000FF0A1F4890ED010ADFED1E0A30EE600AE1
:104B6000B0EEC00A10EE104A204611F0D5FC41EC20
:104B7000180B9FED190B53EC102B11F067FA05D2AF
:104B8000174890ED0B0A124880ED010A0EF0ACFDBB
:104B90000D48D0EDFF0AB0EE600AFFF751FE114854
:104BA00080ED0E0A0A48D0ED010AB0EE600AFFF768
:104BB00093FA0C4880ED130A0120094981F830006E
:104BC000BDEC028B10BD0000887800200000704210
:104BD0008880002000C079442D431CEBE2361A3F48
:104BE0001081002054A8002080ED000A80ED030A07
:104BF000C0ED040A80ED051AC0ED060A80ED071A23
:104C00007047000010B50CF09BFF0120014981F8AE
:104C1000300010BD1081002010B5FFF73FFC30B10F
:104C2000044890F84E00072801D1012010BD002053
:104C3000FCE7000008A7002010B5024692F82030DB
:104C4000012B01D0022B06D110684069084314687B
:104C50006061002010BD506A40F480205062012045
:104C6000F8E7F0B504460D461E4694F8207020681B
:104C70008368A86800B900E000BF012F01D0022FAF
:104C80007DD103F0806030B903F0006018B903F003
:104C9000805000287ED0C3F301610120884030603D
:104CA000A86860B9B5F800C0E86840EA4C5C2068C4
:104CB00000F5C07000EB0110C0F800C00FE0D5E9AE
:104CC00001C040EACC00D5F80CC040EA0C00D4F892
:104CD00000C00CF5C07C0CEB011CCCF80000D5F832
:104CE00010C0206800F5C07000EB0110C0F804C0CF
:104CF000287D01280ED1206800F5C07000EB01105E
:104D0000406840F4807C206800F5C07000EB011022
:104D1000C0F804C0D079000692F806C040EA0C4002
:104D200092F805C040EA0C2092F804C040EA0C005A
:104D3000D4F800C00CF5C07C0CEB011CCCF80C00C6
:104D4000D078000692F802C040EA0C4092F801C008
:104D500040EA0C2092F800C040EA0C00D4F800C0F1
:104D60000CF5C07C0CEB011CCCF80800206800F5A9
:104D7000C07000EB0110006840F0010C01E00FE092
:104D800008E0206800F5C07000EB0110C0F800C01A
:104D90000020F0BD606A40F4001060620120F8E776
:104DA000606A40F4802060620120F2E7F0B50446BA
:104DB0000A46216894F82050012D01D0022D7ED1A1
:104DC000424901F50071086840F001000860086878
:104DD00020F47C5008600868566A40EA06200860A3
:104DE000107D00F01F06012000FA06F3C869984301
:104DF000C861A1F50071D069C8B9D1F80C02984317
:104E0000C1F80C02908880B2968940EA064601F506
:104E10001070576940F83760108880B2168940EAF0
:104E2000064601F51070576900EBC7004660D0696F
:104E3000012819D1D1F80C021843C1F80C0290884E
:104E400080B2168840EA064601F51070576940F8AE
:104E50003760908980B2168940EA064601F51070E5
:104E6000576900EBC7004660906928B9D1F8040281
:104E70009843C1F8040204E0D1F804021843C1F8D1
:104E80000402106928B9D1F814029843C1F8140239
:104E900004E0D1F814021843C1F81402106A012882
:104EA00004D1D1F81C021843C1F81C02D1F8000249
:104EB00020F00100C1F800020020F0BDFFE7606AA9
:104EC00040F4802060620120F7E7000000640040A9
:104ED000704770B5044694F82050012D01D0022D82
:104EE0007DD151B92068C06800F0030080B9606AC4
:104EF00040F400106062012070BD2068006900F07D
:104F0000030028B9606A40F4001060620120F3E7F2
:104F1000206800F5D87000EB0110006800F0040074
:104F20009060906840B9206800F5D87000EB0110DF
:104F30000068400D106007E0206800F5D87000EBB5
:104F400001100068C0085060206800F5D87000EBC0
:104F50000110006800F00200D060206800F5D870F1
:104F600000EB0110406800F00F00082802D3082071
:104F7000106108E0206800F5D87000EB011040686F
:104F800000F00F001061206800F5D87000EB0110F0
:104F9000406800F47F40000A9061206800F5D870F6
:104FA00000EB01104068000C5061206800F5D870DB
:104FB00000EB011080681870206800F5D87000EBD5
:104FC0000110806800F47F40000A5870206800F5E6
:104FD000D87000EB0110806800F47F0000E03CE036
:104FE000000C9870206800F5D87000EB0110806804
:104FF000000ED870206800F5D87000EB0110C06872
:105000001871206800F5D87000EB0110C06800F43A
:105010007F40000A5871206800F5D87000EB01103D
:10502000C06800F47F00000C9871206800F5D8700B
:1050300000EB0110C068000ED87131B92068C0685B
:1050400040F020002668F06005E02068006940F02C
:1050500020002668306100204EE7606A40F480201E
:105060006062012048E70146002091F82020012AD3
:1050700001D0022A11D10B689B6803F0806303B151
:10508000401C0B689B6803F0006303B1401C0B6875
:105090009B6803F0805303B1401C70472DE9F05F1B
:1050A00004460025206846692068D0F804902068EE
:1050B00087682068D0F80CA02068D0F810B020686D
:1050C000D0F8188006F00100002855D007F0010044
:1050D000C0B101202168886007F0020018B12046A5
:1050E00000F0E1FA0EE007F0040010B145F40065AD
:1050F00008E007F0080010B145F4805502E02046B2
:1051000000F0D0FA07F48070C8B14FF480702168C5
:10511000886007F4007018B1204600F0C6FA0EE06F
:1051200007F4806010B145F4005508E007F4006012
:1051300010B145F4804502E0204600F0B5FA07F4CE
:105140008030C8B14FF480302168886007F40030A7
:1051500018B1204600F0ABFA0EE007F4802010B141
:1051600045F4004508E007F4002010B145F480350F
:1051700002E0204600F09AFA06F0080038B10AF082
:10518000100020B145F4007510202168C86006F0B9
:10519000040040B10AF0080028B108202168C86066
:1051A000204600F02DFA06F0020038B12068C068F1
:1051B00000F0030010B1204600F023FA06F0400092
:1051C00038B10BF0100020B145F480651020216843
:1051D000086106F0200040B10BF0080028B108205B
:1051E00021680861204600F01CFA06F0100038B172
:1051F0002068006900F0030010B1204600F012FAA8
:1052000006F4003040B109F0100028B110202168E8
:105210004860204600F016FA06F4803040B109F0EC
:10522000080028B1082021684860204600F040FAB4
:1052300006F4004088B309F0040078B306F48070E7
:1052400020B108F0010008B145F0010506F4007036
:1052500020B108F0020008B145F0020506F48060B4
:1052600020B108F0040008B145F0040506F4006020
:10527000A0B108F0700088B108F07000402817D085
:1052800006DC10280BD020280CD0302819D10CE0D7
:10529000502810D0602814D110E01DE019E045F02E
:1052A00008050FE045F010050CE045F0200509E089
:1052B00045F0400506E045F0800503E045F48075C3
:1052C00000E000BF00BF2068806920F07000216806
:1052D00088610420216848602DB1606A28436062BB
:1052E0002046FFF7F5FDBDE8F09F70B504460CB908
:1052F000012070BD94F8200010B9204600F0B0F8ED
:105300002068006840F001002168086000F07CFC23
:1053100005460DE000F078FC401B0A2808D9606AB9
:1053200040F400306062052084F820000120E0E7AE
:105330002068406800F001000028EBD02068006879
:1053400020F002002168086000F05EFC05460DE0D8
:1053500000F05AFC401B0A2808D9606A40F400306B
:105360006062052084F820000120C2E720684068C0
:1053700000F002000028EBD1207E012806D1206831
:10538000006840F080002168086005E0206800683F
:1053900020F0800021680860607E012806D1206826
:1053A000006840F040002168086005E0206800685F
:1053B00020F0400021680860A07E012806D1206806
:1053C000006840F020002168086005E0206800685F
:1053D00020F0200021680860E07E012806D12068C6
:1053E000006820F010002168086005E0206800686F
:1053F00040F0100021680860207F012806D1206855
:10540000006840F008002168086005E02068006836
:1054100020F0080021680860607F012806D120681C
:10542000006840F004002168086005E0206800681A
:1054300020F0040021680860D4E9020108432169D2
:105440000843616908436168491E08432168C861CF
:1054500000206062012084F82000002049E700005D
:1054600010B586B00446142101A8FBF7EFF85E4999
:105470002068884251D15D480068401C5B49086043
:105480000846006801280FD100BF0020009058484E
:10549000006840F00070564908600846006800F057
:1054A0000070009000BF00BF00BF00200090504877
:1054B0001038006840F008004D491039086008466F
:1054C000006800F00800009000BF00BF03200190BA
:1054D00002200290002003900320049009200590F0
:1054E00001A9444800F090FA00220521132000F0A1
:1054F00073FD132000F05CFD00220521142000F054
:105500006BFD142000F054FD00220521152000F051
:1055100063FD152000F04CFD64E0374920688842A7
:1055200060D100BF002000903148006840F08060EA
:105530002F4908600846006800F08060009000BFB6
:1055400000BF2A480068401C2849086008460068D7
:1055500001280FD100BF002000902548006840F0CE
:105560000070234908600846006800F00070009051
:1055700000BF00BF00BF002000901D481038006829
:1055800040F002001A49103908600846006800F02F
:105590000200009000BF00BF602001900220029036
:1055A00000200390032004900920059001A91348CE
:1055B00000F02AFA002205213F2000F00DFD3F20D7
:1055C00000F0F6FC00220521402000F005FD4020FF
:1055D00000F0EEFC00220521412000F0FDFC4120FE
:1055E00000F0E6FC06B010BD00640040280000207A
:1055F00040380240000C02400068004000040240B5
:10560000704710B58AB0044601AB03AA00212046BA
:10561000FFF75FFC01AA03A9204605F011FE0AB0BE
:1056200010BD704710B58AB0044601AB03AA012132
:105630002046FFF74EFC01AA03A9204605F000FE14
:105640000AB010BD704770B5044694F820000128D8
:1056500022D1022084F820002068006820F0010098
:105660002168086000F0D0FA05460DE000F0CCFAA1
:10567000401B0A2808D9606A40F4003060620520A7
:1056800084F82000012070BD2068406800F001000F
:105690000028EBD16062F6E7606A40F400206062A7
:1056A0000120F0E7704770477047704770477047B8
:1056B00070470000F8B50446002000908C48006850
:1056C0004FF41651B0FBF1F7A56D2E6894F85C10FD
:1056D00008208840304098B12068006800F004003D
:1056E00070B12068006820F004002168086094F818
:1056F0005C1008208840A860606D40F00100606583
:1057000094F85C1001208840304068B120684069FE
:1057100000F0800040B194F85C1001208840A8603F
:10572000606D40F00200606594F85C1004208840D1
:10573000304068B12068006800F0020040B194F881
:105740005C1004208840A860606D40F00400606533
:1057500094F85C1010208840304078B320680068CE
:1057600000F0080050B394F85C1010208840A86046
:105770002068006800F4802080B12068006800F490
:10578000002028B9206CC8B12046216C884715E05C
:10579000A06C98B12046A16C88470FE02068006893
:1057A00000F4807028B92068006820F008002168A3
:1057B0000860206C10B12046216C884794F85C107A
:1057C000202088403040002865D02068006800F024
:1057D000100000285FD094F85C1020208840A8605A
:1057E00094F83500052828D12068006820F01600BC
:1057F000216808602068406920F0800021684861C5
:10580000206C08B9A06C28B12068006820F008005E
:105810002168086094F85C103F208840A86001204F
:1058200084F8350000BF002084F8340000BF206DEC
:1058300010B12046216D8847F8BD2068006800F44B
:10584000802080B12068006800F4002028B9606CD6
:1058500010B12046616C88471DE0E06BD8B120464E
:10586000E16B884717E02068006800F4807068B931
:105870002068006820F0100021680860012084F88A
:10588000350000BF002084F8340000BFE06B10B189
:105890002046E16B8847606D38B3606D00F0010011
:1058A000F0B1052084F835002068006820F0010080
:1058B0002168086000BF0098401C0090B84200D9E1
:1058C00005E02068006800F001000028F3D100BF67
:1058D000012084F8350000BF002084F8340000BFA8
:1058E000E06C10B12046E16C884700BFA4E70000DF
:1058F000380000202DE9F0410446002500F084F92D
:10590000074614B90120BDE8F081606A00B100BF0C
:10591000022084F8350000BF002084F8340000BF66
:105920002068006820F00100216808600AE000F0AB
:105930006BF9C01B052805D920206065032084F879
:105940003500E0E72068006800F001000028EED193
:105950002068056821480540D4E901010843E16851
:1059600008432169084361690843A1690843E16963
:105970000843216A08430543606A042803D1D4E937
:105980000B0108430543206805602068456925F040
:105990000705606A0543606A04280DD1A06A0543C3
:1059A000E06A48B12046FDF781F928B140206065E2
:1059B000012084F83500A6E7206845612046FDF700
:1059C0005BF9064694F85C103F208840B0600020E8
:1059D0006065012084F83500002094E73F8010F0D6
:1059E00070B5044600F010F906462546681C10B153
:1059F00004480078054400BF00F006F9801BA84267
:105A0000FAD370BD34000020F8B502460B460025DD
:105A1000002400200021D6E0012606FA01F51E68C8
:105A200006EA0504AC4274D11E7906F00306012E85
:105A300004D01E7906F00306022E13D190684F00A1
:105A40000326BE40B0434F00DE68BE403043906046
:105A5000506801268E40B0431E79C6F300168E4072
:105A6000304350601E7906F00306032E09D0D0683B
:105A70004F000326BE40B0434F009E68BE403043F7
:105A8000D0601E7906F00306022E13D1CF0802F172
:105A9000200656F827004E07F70E0F26BE40B043EB
:105AA0004F07FF0E1E69BE403043CF0802F12006AB
:105AB00046F8270010684F000326BE40B0431E7909
:105AC00006F003064F00BE40304310605E6806F4E7
:105AD0004036002E76D000BF002600963C4E366839
