:020000040800F2
:1000000090EA00203103000899B400086D7D0008D3
:1000100015AC0008111800080905010800000000CF
:100020000000000000000000000000007102000855
:100030007D33000800000000CD02000831D0000828
:100040004B0300084B0300084B0300084B03000858
:100050004B0300084DC200084B0300084B03000887
:100060004B0300084B0300084B0300084B03000838
:10007000DD2C00084B0300084B0300084B0300086D
:100080004B0300084B0300084B0300083518000819
:1000900015180008251800084B0300084B0300083A
:1000A0004B0300084B0300084B0300084B030008F8
:1000B0004B0300084B0300084B0300084B030008E8
:1000C0004B0300084B0300084B0300084B030008D8
:1000D0004B0300084B0300084B0300086DDB0008CE
:1000E0004B0300084B0300084B0300084B030008B8
:1000F0004B0300084B0300084B0300084B030008A8
:100100004B0300084B0300084B0300084B03000897
:100110004B0300084B0300084B0300084B03000887
:10012000ED2C00084B0300084B030008FD2C0008D1
:100130004B0300084B0300084B0300086518000838
:1001400045180008551800084B030008B5B600080C
:100150004B0300084B0300084B0300084B03000847
:100160004B0300084B0300084B0300084B03000837
:100170004B0300084B0300084B030008000000007D
:100180004B0300084B03000800F002F800F060F891
:100190000AA090E8000C82448344AAF10107DA45E2
:1001A00001D100F055F8AFF2090EBAE80F0013F0D4
:1001B000010F18BFFB1A43F00103184764590100EF
:1001C000845901000A444FF0000C10F8013B13F071
:1001D000070408BF10F8014B1D1108BF10F8015BA0
:1001E000641E05D010F8016B641E01F8016BF9D193
:1001F00013F0080F1EBF10F8014BAD1C0C1B09D1EA
:100200006D1E58BF01F801CBFAD505E014F8016B5B
:1002100001F8016B6D1EF9D59142D6D370470000ED
:100220000023002400250026103A28BF78C1FBD8FF
:10023000520728BF30C148BF0B6070471FB514F08C
:100240009AFD9DE8030000F047FA1FBD10B510BDF0
:1002500000F0AEFA1146FFF7F1FF11F05BFE00F07F
:10026000CCFA03B4FFF7F2FF03BC00F0FDFA000084
:100270002C4B19680868B0E8F04F80F30988BFF389
:100280006F8F4FF0000080F311887047000000006E
:1002900008480068006880F308884FF0000080F389
:1002A000148862B661B6BFF34F8FBFF36F8F00DF64
:1002B00000BF00BF08ED00E0DFF80C00016841F46A
:1002C00070010160704700BF88ED00E0EFF3098026
:1002D000BFF36F8F134B1A681EF0100F08BF20ED8D
:1002E000108A20E9F04F106009B44FF0500080F3FD
:1002F0001188BFF34F8FBFF36F8F13F01FF84FF0CC
:10030000000080F3118809BC19680868B0E8F04F54
:100310001EF0100F08BFB0EC108A80F30988BFF3FD
:100320006F8F70473C000020EFF30580704700009E
:100330000948804709480047FEE7FEE7FEE7FEE779
:10034000FEE7FEE7FEE7FEE7FEE7FEE704480549B5
:10035000054A064B70470000F9D0000889010008E3
:1003600090AA002090EA002090CA002090CA0020A5
:1003700070B5064600F094F9056806F10B0020F010
:100380000704B4429CBF002070BD2B466A68BAB116
:100390001068A04210D304F1080188423CBF5068A5
:1003A000586007D35168101941601168091B01603A
:1003B00058601460101D70BD13465268002AE7D1C2
:1003C0002146284600F074F90028DED170BD70B5D2
:1003D0000446051F00F064F90068002C14BF44684F
:1003E00070BD002C18BFAC423CBF20466468F8D3F7
:1003F00001680A18AA4218BF456003D12A68054659
:100400001144016028684119A1421CBF6C6070BD95
:100410006168696021680844286070BD53EA020C75
:1004200000F069802DE9F04B4FF00006002B1FBF54
:10043000B3FA83F503FA05F424FA05F65E4012BF19
:100440001643B2FA82F502FA05F4C5F120051EBF83
:1004500022FA05FC44EA0C04203556EA044C4FEA23
:10046000144418BF641C4FF000084FF0000990427C
:1004700071EB030C39D3002919BFB1FA81F701FAE6
:1004800007F6B0FA80F700FA07F6C7F120071EBF9B
:1004900020FA07FC46EA0C062037B6FBF4FCA7EB73
:1004A0000507103F07F01F0BCBF120060CFA0BFBE2
:1004B0002CFA06F644BFB3460026202FA4BF5E46A2
:1004C0004FF0000B5BEA060C08BF4FF0010B19EB75
:1004D0000B09ABFB027C48EB0608C01B06FB02CCF9
:1004E0000BFB03CC71EB0C01C1E70B460246414606
:1004F0004846BDE8F08B13B54FF000004FF0000107
:10050000AFF30080BDE81C407047032A40F2308002
:1005100010F0030C00F0158011F8013BBCF1020F44
:10052000624498BF11F801CB00F8013B38BF11F8C5
:10053000013BA2F1040298BF00F801CB38BF00F8DC
:10054000013B11F0030300F02580083AC0F0088059
:1005500051F8043B083A51F804CBA0E80810F5E73D
:10056000121D5CBF51F8043B40F8043BAFF3008020
:10057000D20724BF11F8013B11F801CB48BF11F895
:10058000012B24BF00F8013B00F801CB48BF00F865
:10059000012B704710B5203AC0F00B80B1E818501D
:1005A000203AA0E81850B1E81850A0E81850BFF45D
:1005B000F5AF5FEA027C24BFB1E81850A0E81850FC
:1005C00044BF18C918C0BDE810405FEA827C24BF50
:1005D00051F8043B40F8043B08BF7047D20728BFDE
:1005E00031F8023B48BF11F8012B28BF20F8023B2D
:1005F00048BF00F8012B704702F0FF0343EA0322D3
:1006000042EA024200F002B84FF000020429C0F0B2
:10061000128010F0030C00F01B80CCF1040CBCF134
:10062000020F18BF00F8012BA8BF20F8022BA1EB86
:100630000C0100F00DB85FEAC17C24BF00F8012B6B
:1006400000F8012B48BF00F8012B70474FF0000263
:1006500000B5134694469646203922BFA0E80C50B8
:10066000A0E80C50B1F12001BFF4F7AF090728BF93
:10067000A0E80C5048BF0CC05DF804EB890028BF0F
:1006800040F8042B08BF704748BF20F8022B11F038
:10069000804F18BF00F8012B7047704770477047B4
:1006A0000048704734AA0020704770477047704771
:1006B00038B504460A4600206946AFF3008000289A
:1006C00008BF38BD02460099204600F04FF80120CF
:1006D00038BD012000F064B8F8B5AFF300800546DE
:1006E00000200C46102000BF0646A819A0420DD9D4
:1006F000324669460020AFF30080070008BF00F0D3
:100700004FF80098A04218BF0546C419FFF7C8FF6C
:1007100005600746F01D20F007004619284600F046
:100720000AF8B44208BFF8BDA21B31463868BDE8DC
:10073000F84000F01BB800210160C0E901107047CB
:100740001020704710B500F00DF8006810BD10B50E
:10075000044600F007F8046010BD00000048704730
:100760002CAA0020004870472CAA002003464068AD
:100770008C46002818BF88423CBF03464068F8D327
:1007800018681844884207D00CF1030020F00700D5
:10079000001D411A521A0146081D0A60FFF717BED4
:1007A00010B500F039F8BDE8104000F02FB87047E0
:1007B0007546FFF7D3FFAE4605006946534620F065
:1007C0000700854618B020B5FFF7C0FDBDE8204002
:1007D0004FF000064FF000074FF000084FF0000BFD
:1007E00021F00701AC46ACE8C009ACE8C009ACE8B0
:1007F000C009ACE8C0098D46704710B50446AFF398
:1008000000802046BDE81040FFF72BBD002801D036
:1008100000F02AB87047000010B5012805D000216B
:1008200003A000F027F8012010BD09A1F8E700009F
:1008300053494752544D454D3A204F7574206F66C9
:100840002068656170206D656D6F72790000000031
:100850003A2048656170206D656D6F727920636F15
:10086000727275707465640001491820ABBEFEE7B2
:100870002600020070B505460C460A2000E06D1CFB
:1008800000F011F835B128780028F8D102E0641C96
:1008900000F009F814B120780028F8D1BDE87040C4
:1008A0000A20AFF3008008B569468DF800000320E8
:1008B000ABBE08BDF0B581B04FF68311C3F622611F
:1008C00014F00AFA4FF07A5114F029F9044614F0A2
:1008D00087F9054620460021002714F04CF900282E
:1008E00018BF013D284614F089F90146204614F04E
:1008F0004CFA4FF0884114F0EFF9054614F077F9FF
:10090000044628464FF0444114F009F90646B7EB77
:10091000542F0CBF2E460024204614F0A6F90146A1
:10092000304614F032FA05464FF07E50294614F056
:100930002CFA45F21C37C0F6010757F8241014F0C2
:10094000CBF9064607EB84004168284614F0C4F949
:100950000146304614F0E3F801B0F0BD2DE9F04156
:1009600003880F88BB423FD147884E88B7423BD1AE
:100970001688B34238D15688B74235D14668546894
:100980004D6807FB03F80020B0EB980F1BD04FEA2F
:10099000980047423068296814F0C1F820607068F8
:1009A000696814F0BCF86060B068A96814F0B7F822
:1009B000A060F068E96814F0B2F8E0601034103517
:1009C00010360137E6D118F003000BD0474200BFC4
:1009D00056F8040B55F8041B14F0A1F844F8040B66
:1009E0000137F5D1002000E0FD2040B2BDE8F081E4
:1009F00043604280018070472DE9F04F93B0B0F81A
:100A000002A0B0F800B0D34540F05D810A88FD2512
:100A1000934540F059814B889A4240F05581476890
:100A2000BBF1000F00F039814C686FF003000197B3
:100A300000274FF07E585E46CDF820A000EB8B09D2
:100A400020460494BBEB060008D0B9002046FFF70F
:100A5000FDFD0020013004348742FBD104F1040A7B
:100A6000751EC4F800800FD0A9EB87015046FFF730
:100A7000EDFD0120544600BF013004348642FBD115
:100A80000137002D2E46DDD1019FDDF820A0BBF1FE
:100A9000000F00F00281042007EB8A023C1DABF13D
:100AA00001080021CDF824A0CDF81CB000EB8A008D
:100AB0000290CAF100000B904FEA8A00129000BF2A
:100AC000594580F0058101FB0AF0109104990597C2
:100AD000002593460392CDF8188057F8209001EB3B
:100AE000800107EB80004F460E910D9008E000BF9B
:100AF0001298DBF80070A8F1010835465844834687
:100B00003846002114F030F840B93846294614F030
:100B10001DF800283E4608D008E000BF87F00046D8
:100B20002846314614F027F800B92E46B8F1000FD8
:100B3000DED13046002113F0FBFF002840F0C880D2
:100B400029F00040314613F0F3FFDDE9062140B9FA
:100B50001098C043401804D0002000BF01308242EA
:100B6000FCD14846002113F0E3FF099E002840F025
:100B7000AF800D994FF07E500F9408601098AAEB4B
:100B80000001012908460C910BD00F9D012400BFE4
:100B90002868494614F002F8013445F8040BA642CF
:100BA000F6D10B9C0E9D00BF2868494613F0F6FF56
:100BB00045F8040B0134F7D10C98DDF81C804FF098
:100BC000000B01380A90DDE90465DDE90F4100BF43
:100BD0008B4505D10C9806EB8A0605EB80053CE0B9
:100BE0000D98D5F800900168484614F075F8014654
:100BF000484614F0CAF845F8040B0A98E0B1CDF85D
:100C00004480DDF8248001274FF0000A54F80A10D0
:100C1000484614F061F8014655F80A0014F0B5F89A
:100C2000013745F80A000AF1040AB845EED15544E7
:100C3000DDF820A0DDF844800B9F0E9C54F8041BC7
:100C4000484614F049F80146306814F09EF846F81A
:100C5000040B0137F2D1DDE90F4105EB81050BF102
:100C6000010BB8F10108B3D10298039ADDF818809E
:100C7000059FDDF81CB00131044402440998A8F135
:100C800001080437013809907FF41AAF4846002163
:100C9000002513F04DFF019FB0B10AFB0BF50024B6
:100CA000002645B13868002113F042FF18B1013623
:100CB0000437AE42F6D3AE4208BF6FF004042046BC
:100CC00013B0BDE8F08FFD2568B213B0BDE8F08F1A
:100CD000FB25F9E72DE9F04F91B047880B889F423B
:100CE00040F0AF80068813889E4240F0AA804D886D
:100CF00053889D4240F0A58052684FF00009496832
:100D00004FEA850805960497039502924268A9EB7D
:100D100097000191079027F0030002EB80000C92EE
:100D20000990B8080B90684301EB00102946009029
:100D300007F003000A904042069000BF029800EBC3
:100D4000890ADDE9000BCDF8209010900B980F91E7
:100D5000002847D0CDF838A0CDF834B0D946DDF81A
:100D60001CA0DDF830B000249BE8C100D9F80010C9
:100D7000DBF80C5013F0B0FF0146204613F0CFFE15
:100D800059F808100446304613F0A6FF01462046E5
:100D900013F0C5FE09EB08060446384656F808105D
:100DA00013F09AFF0146204613F0B9FE464404466C
:100DB000284656F8081013F08FFF0146204613F01E
:100DC000AEFE044606EB08000BF1100B1AF1010A07
:100DD00000EB0809C8D1109DDDE90896DDE90DBAE0
:100DE00003E000BF0C9E00245D460A9868B1069F90
:100DF00056F8040B296813F06FFF0146204613F0E4
:100E00008EFE044645440137F2D110980F994AF8F6
:100E1000044B0BF1040B04300139109096D1049867
:100E2000099901EB800109910C9901EB800105986A
:100E30000C9103990138894405907FF47FAF00201D
:100E400000E0FD2040B211B0BDE8F08F2DE9F04187
:100E500003880F88BB423FD147884E88B7423BD1B9
:100E60001688B34238D15688B74235D1466854689F
:100E70004D6807FB03F80020B0EB980F1BD04FEA3A
:100E8000980047423068296813F07FFF206070683F
:100E9000696813F07AFF6060B068A96813F075FFA5
:100EA000A060F068E96813F070FFE060103410355E
:100EB00010360137E6D118F003000BD0474200BFCF
:100EC00056F8040B55F8041B13F05FFF44F8040BAD
:100ED0000137F5D1002000E0FD2040B2BDE8F081EF
:100EE0002DE9F04F82B0B0F800E04B889E454BD121
:100EF00044880B889C4247D100234E6804F0030BC2
:100F000040684FEA0E184FEA940AA3EB9401CBF124
:100F1000000901914FEA8E0132460096BAF1000FA6
:100F20001CD0019F344600BF2546046801372C6061
:100F300044686C5005EB0104D0F808C044F801C0C7
:100F40000C44C26800F11000625004EB010202EB95
:100F50000104E9D105EB080703E000BF009A02EBAA
:100F60008307BBF1000F07D04D4600BF50F8042B9C
:100F700001353A600F44F9D10436BEF1010E03F198
:100F80000103CBD1002000E0FD2040B202B0BDE85B
:100F9000F08FF0B581B04FF68311C3F6226113F0E4
:100FA0009BFE044613F01CFE054620460021002748
:100FB00013F0E1FD002818BF013D284613F01EFE86
:100FC0000146204613F0E1FE4FF0884113F084FE05
:100FD000054613F00CFE044628464FF0444113F03A
:100FE0009EFD0646B7EB542F0CBF2E46002420462C
:100FF00013F03BFE0146304613F0C7FE05464FF0A6
:101000007E50294613F0C1FE45F21C37C0F6010799
:1010100057F8241013F060FE064607EB8400416881
:10102000284613F059FE0146304613F078FD01B012
:10103000F0BD000008B500BF4FF4FA6012F034F8BC
:101040000B4802F07FF8012012F02EF80FE012F0AA
:1010500031FE0090064802F075F805480C3880ED26
:10106000040A10F0A5FE0421684612F04BF8EEE7E2
:10107000AC75002070B505460C4600260DB1022C5B
:1010800000D870BD611EFF22284602F021FC0646F2
:10109000601E2E5400BFF4E710B501221021024853
:1010A00004F0B8FA10BD00000000024010B50022A4
:1010B0001021024804F0AEFA10BD0000000002400A
:1010C00010B501221146024804F0A4FA10BD000038
:1010D0000004024010B500220121024804F09AFAEF
:1010E00010BD00000004024010B50446FFF7DEFF0B
:1010F000922000F0A5F906229549122000F080F90F
:10110000FFF7CAFF92484078000200B29049097880
:101110000843904908800846B0F9000000EE100A24
:10112000B8EEC00A8C48D0ED000A20EE200AD4EDBB
:10113000080A20EE200A84ED000A8548C0780002E3
:1011400000B2834989780843824908800846B0F98B
:10115000000000EE100AB8EEC00A7F48D0ED000A89
:1011600020EE200AD4ED080A20EE200A84ED010AC0
:1011700077484079000200B27549097908437549FA
:1011800008800846B0F9000000EE100AB8EEC00A68
:101190007148D0ED000A20EE200AD4ED080A20EEB6
:1011A000200A84ED020AFFF795FF08226849002013
:1011B00000F026F9FFF784FF654800780F284FD12B
:1011C00066480078F0B36248C078000200B2604917
:1011D000897808435F49088094ED090A0846B0F908
:1011E000000000EE900AF8EEE00A5D4890ED001A6B
:1011F00010EE810A84ED030A55484079000200B2DE
:101200005349097908435349088094ED0A0A08466E
:10121000B0F9000000EE900AF8EEE00A504890EDB8
:10122000001A10EE810A84ED040A4948C0790002D0
:1012300000B24749897908434649088094ED0B0A72
:10124000084600E00DE0B0F9000000EE900AF8EE6C
:10125000E00A434890ED001A10EE810A84ED050A79
:1012600044E03B48C078000200B23949897808431D
:10127000384908800846B0F9000000EE100AB8EEC0
:10128000C00A3748D0ED000A20EE200A84ED030A98
:101290002F484079000200B22D49097908432D49B1
:1012A00008800846B0F9000000EE100AB8EEC00A47
:1012B0002B48D0ED000A20EE200A84ED040A2448D1
:1012C000C079000200B22249897908432149088087
:1012D0000846B0F9000000EE100AB8EEC00A204837
:1012E000D0ED000A20EE200A84ED050AFFF7DEFEAD
:1012F000A22000F0A5F802221549222000F080F873
:10130000FFF7CAFE12480078C0001149497840EA48
:101310006110104908800846B0F90000B0F5806FF0
:1013200005DB08460088A0F5006000B20880094887
:10133000B0F9000000EE100AF8EEC00AB4EE001A90
:10134000B3EE070A00EE810A84ED070A10BD000023
:10135000160600201E060020D4050020E40500200B
:10136000D805002070B504460D461C4804600020D6
:101370001B49087010F0AAF8194909780843184960
:10138000087010F059F91649097808431449087093
:101390001DB1144800F0DEFA1CE09FED130A11485D
:1013A00080ED090A9FED110A80ED0A0A9FED100AEF
:1013B00080ED0B0A9FED0F0A80ED0C0A90ED0C0AF0
:1013C000DFED0D0A80EE801A80ED081A9FED0B0A02
:1013D00080ED060A0248007870BD0000E805002094
:1013E000DE050020CCA500203A943B395A06ADB961
:1013F000A23FC239C7C91C41C3F51C4100000F42BE
:1014000070B506460C46154646F0800000F018F808
:1014100006E0552000F014F82070641C681EC5B268
:10142000002DF6D170BD70B504460D4644F0800025
:1014300000F006F8552000F003F8287070BD000099
:1014400001B582B04FF47A70012301AA02A900907D
:10145000024805F08FFE9DF804000EBD240E00200A
:1014600070B505460C462846FFF7EAFF2046FFF711
:10147000E7FF70BD10B52DED108B384890ED0B0ACD
:10148000D0ED0A0A30EE200A3548D0EDE00A30EE01
:10149000C00AB0EEC00A10EE104A204613F014FB4A
:1014A00041EC1D0B9FED2F0B53EC102B13F0E2F8CA
:1014B00041EC1B0B204613F007FB41EC1D0B2046B3
:1014C00013F002FB41EC1F0B9FED280B53EC102B8C
:1014D00013F0D0F841EC1E0B53EC1D2B13F0CAF89F
:1014E00041EC1C0B53EC1B2B13F004FA41EC1A0BD0
:1014F0009FED200B53EC102B12F074FE41EC190BF6
:1015000012F03EFE08EE100AB6EE000AB4EEC08AF3
:10151000F1EE10FA02D8B6EE000A0BE0B7EE000AC0
:10152000B4EEC08AF1EE10FA02DBB7EE000A01E079
:10153000B0EE480AB0EE408A0848D0ED0B0A90EDB4
:101540000A1A70EE810AB0EE600AF0EE480A0B4803
:1015500010F04AFCBDEC108B10BD0000F0830020A1
:10156000C07F00209278793A5794423FE59E09A8BF
:10157000CBBD3BBF000000C09DEFEF3F408300208C
:1015800010B50748D0F80D0B00EE100ADFED050A84
:1015900005480FF0AFF9054880ED000A10BD0000C6
:1015A000C07700200000B4432884002024040020D9
:1015B0002348D0ED060AF0EEE00AB7EE001AF4EE8A
:1015C000C10AF1EE10FA1ED200F55670D0ED060AEF
:1015D000F0EEE00AB7EE001AF4EEC10AF1EE10FAEE
:1015E00011D2184890F8310068B9164890F83000C8
:1015F00048B11548D0EDF10A9FED141A70EEC10AFA
:101600001348C0ED000A0F48D0ED010A9FED111AF2
:10161000C0EE811ADFED100A21EEA00AD0ED010A1A
:1016200070EE800AC0ED0B0A0748D0EDF10A9FED7D
:10163000071A70EEC10A0348C0ED0A0A704700009D
:10164000307D0020F0830020C077002000000000E3
:101650002C0400200000B44385EB4140D2ED020A87
:1016600092ED021AB6EE000A00EEC10AD2ED030AAC
:1016700092ED031A00EEC10AD0ED000A20EE200A16
:10168000D2ED010A92ED021A60EE810A92ED001A83
:10169000D2ED031A41EE610A90ED011A00EE810AC3
:1016A000D2ED010A92ED031A60EE810A92ED001A62
:1016B000D2ED021A41EE210A90ED021A00EE810AE3
:1016C000F0EE000A20EE200A81ED000A92ED010AF8
:1016D000D2ED020A20EE200AD2ED000A92ED031AA2
:1016E00000EE810AD0ED000A60EE200A92ED011AA8
:1016F000D2ED011AB6EE000A01EE610AD2ED031A2C
:1017000092ED032AB0EE401A01EEC21AD0ED011A92
:10171000B0EE600A01EE210AD2ED020A92ED031A40
:1017200060EE810A92ED001AD2ED011A41EE610AD3
:1017300090ED021A00EE810AF0EE000A20EE200A77
:1017400081ED010A92ED010AD2ED030A20EE200A92
:10175000D2ED000A92ED021A00EEC10AD0ED000AA5
:1017600020EE200AD2ED020A92ED031A60EE810A01
:1017700092ED001AD2ED011A41EE210A90ED011A04
:1017800000EE810A92ED011AD2ED011AF6EE000A7E
:1017900041EE610A92ED021AD2ED021A41EE610A9F
:1017A00090ED021A00EE810AF0EE000A20EE200A07
:1017B00081ED020A7047000010B504F08FF80BF0BD
:1017C00041FC08F0E1FE08F057FE09F09BF809F033
:1017D00079F909F079F808F00BFE09F0EDF809F055
:1017E000B5F808F027FE09F0CFF909F0EDF9A820C7
:1017F00001F020FD0FF0CAFF09F012F9034805F0CF
:10180000E1FE0821014806F0E7F810BD840F002032
:1018100000BFFEE710B5024803F04CF910BD000010
:10182000800D002010B5024803F044F910BD0000FF
:10183000800D002010B5024803F03CF910BD0000F7
:10184000800D002010B5024803F034F910BD0000EF
:10185000A80D002010B5024803F02CF910BD0000BF
:10186000A80D002010B5024803F024F910BD0000B7
:10187000A80D00200346042B15D007DC7BB1012BFB
:101880000ED0022B0DD0032B12D10BE0202B0BD04E
:10189000212B0AD0222B09D0232B09D107E008E005
:1018A00007E006E005E004E003E002E001E000E01C
:1018B00000BF00BF002070470020704710B5002215
:1018C000044905480CF07BFC044903480CF068FC13
:1018D000002010BDBC940020E0890020BC8C0020BA
:1018E00070B504460D46214607482A68FEF70DFEEE
:1018F00005480AF0BBF8214604480CF051FC0348A7
:101900000CF01AFC002070BD3C840020E08900200F
:1019100010B503460C460021084610BD2DE9F041E4
:1019200004460D4600260A48D0F8BC72D7F81402C7
:1019300010B10120BDE8F0812A46214604480CF090
:101940003EFC03480CF0EEFC06463046F2E7000091
:10195000E089002070B52DED048B88B0044600208E
:101960000690079001F014FCFE4880ED000A00BFCD
:1019700001F00EFCFB48D0ED000A30EE600AF2EEFA
:10198000040AB4EEE00AF1EE10FA14DD9FEDF60A57
:1019900084ED090A9FEDF50A84ED0A0A9FEDF40A29
:1019A00084ED0B0A9FEDF30A84ED0C0A9FEDF20A19
:1019B00084ED060A57E29FEDF10A01F0A5FB9FEDC9
:1019C000F00A84ED0C0A9FEDEE0A84ED090A9FED02
:1019D000EC0A84ED0A0A9FEDEA0A84ED0B0A002660
:1019E00073E1FFF763FB9220FFF72AFD062206A9A9
:1019F0001220FFF705FDFFF74FFB9DF819000002CD
:101A000000B29DF8181040EA010500EE105AB8EE39
:101A1000C00ADC48D0ED000A20EE200A84ED000A5E
:101A20009DF81B00000200B29DF81A1040EA010563
:101A300000EE105AB8EEC00AD248D0ED000A20EEEF
:101A4000200A84ED010A9DF81D00000200B29DF8F5
:101A50001C1040EA010500EE105AB8EEC00AC94851
:101A6000D0ED000A20EE200A84ED020AD4ED000A2F
:101A700060EEA00A94ED011AD4ED011A41EE210A9C
:101A800094ED021AD4ED021A41EE210AB0EE600A7A
:101A90000FF094FBB0EE408A94ED0C0A30EE080A89
:101AA00084ED0C0AFFF716FB082206A90020FFF7B9
:101AB000A7FCFFF705FB9DF818000F2850D19DF8F3
:101AC0001B00000200B29DF81A1040EA010500EE6A
:101AD000105AB8EEC00AAC48D0ED000A20EE200A39
:101AE00084ED030A94ED090AD4ED030A30EE200ACE
:101AF00084ED090A9DF81D00000200B29DF81C103B
:101B000040EA010500EE105AB8EEC00A9E48D0ED3A
:101B1000000A20EE200A84ED040A94ED0A0AD4EDAE
:101B2000040A30EE200A84ED0A0A9DF81F00000224
:101B300000B29DF81E1040EA010500EE105AB8EE02
:101B4000C00A9148D0ED000A20EE200A84ED050A73
:101B500094ED0B0AD4ED050A30EE200A84ED0B0A51
:101B600006BBF0EE488AB0EE489A002017E004F178
:101B70000C0101EB800191ED000A03A901EB80014A
:101B800081ED000A04F10C0101EB800191ED000AE6
:101B9000694601EB800181ED000A411CC8B20328AF
:101BA000E5DB49E0B4EEE88AF1EE10FA01DDF0EE93
:101BB000488AB4EEC98AF1EE10FA01D2B0EE489A22
:101BC000002037E004F10C0101EB800191ED000AE7
:101BD00003A901EB8001D1ED000AB4EEE00AF1EEB9
:101BE00010FA0ADD04F10C0101EB800191ED000A0D
:101BF00003A901EB800181ED000A04F10C0101EB66
:101C0000800191ED000A694601EB8001D1ED000AE7
:101C1000B4EEE00AF1EE10FA0AD204F10C0101EB85
:101C2000800191ED000A694601EB800181ED000A17
:101C3000411CC8B20328C5DB38EEC90A534880ED01
:101C4000000A002012E003A901EB800191ED000AD7
:101C5000694601EB8001D1ED000A30EE600A4C4983
:101C600001EB800181ED000A411CC8B20328EADBC8
:101C7000464890ED000AF6EE000AB4EEE00AF1EEF6
:101C800010FA1BDC424890ED000ADFED420AB4EE88
:101C9000E00AF1EE10FA11DC90ED010ADFED3D0AE9
:101CA000B4EEE00AF1EE10FA08DC90ED020ADFED86
:101CB000390AB4EEE00AF1EE10FA00DD0AE09FED19
:101CC000360A01F021FA701C86B234480088864238
:101CD000FFF687AE00BFD4ED0C0A3048008800EE56
:101CE000100AB8EE400A80EE801A84ED0C1A00202B
:101CF00015E004F1240101EB8001D1ED000A274930
:101D0000098800EE101AB8EE400A80EE801A04F13D
:101D1000240101EB800181ED001A411CC8B20328A7
:101D2000E7DBFFF7C3F9A220FFF78AFB022206A92F
:101D30002220FFF765FBFFF7AFF99DF81800C00000
:101D40009DF8191040EA6115B5F5806F02DBA5F525
:101D5000006005B200EE105AF8EEC00AB4EE001AA8
:101D60001EE00000100600203A943B395A06ADB937
:101D7000A23FC239C7C91C4100000F420AD7A33B8A
:101D800000000000D4050020D8050020E005002058
:101D9000C0A500209A99193E6F12033A140600203C
:101DA000B3EE070A00EE810A84ED060A3448008883
:101DB000401C00B232490880324890ED000ADFED45
:101DC000320AB4EEE00AF1EE10FA3FF7D1AD94ED2D
:101DD0000C0ADFED2E0A30EE600AB0EEC00AF6EE15
:101DE000000AB4EEE00AF1EE10FAEEDC284890EDBD
:101DF000000A5FED180AB4EEE00AF1EE10FAE4DC36
:101E000090ED010A5FED1D0AB4EEE00AF1EE10FA62
:101E1000DBDC90ED020A5FED210AB4EEE00AF1EEA0
:101E200010FAD2DC94ED090AB0EEC00ADFED190A0F
:101E3000B4EEE00AF1EE10FAC7DC94ED0A0AB0EE57
:101E4000C00ADFED140AB4EEE00AF1EE10FABCDCD1
:101E500094ED0B0AB0EEC00ADFED0E0AB4EEE00A14
:101E6000F1EE10FAB1DC00BF94ED0C0ADFED0A0AC6
:101E700080EE801A84ED081A08B0BDEC048B70BDAA
:101E8000E6050020E0050020CDCC4C3FCDCC1C4128
:101E9000C0A500200AD7233CC3F51C412DE9F0471B
:101EA0002DED028B82B082460D4616461C46DDF8AB
:101EB000309001F09BF9074612F0A7FE08EE100AD9
:101EC0001CE001F093F9074612F09FFE00EE100AA5
:101ED00030EE480ADFED1E0AB4EEE00AF1EE10FA29
:101EE0000CDD1C48D0F8D400401C1A49C1F8D400BD
:101EF000002002B0BDEC028BBDE8F087504602F036
:101F0000BEFD0028DDD001F071F9074612F07DFE1C
:101F100000EE100A30EE480ABCEEC00A89ED000A55
:101F200026600020A060E0600820206101AB2A4606
:101F30002146504602F0A1FB40B10648D0F8D4003B
:101F4000401C0449C1F8D4000020D2E70120D0E7AA
:101F500000004843BCA800201CB500BF41F28830F7
:101F600011F0A2F824E011F0A5FE019011490868D3
:101F700000EBD0714910A0EB410181B90AF0B6F82D
:101F80000D480E490A680260496841600C480D4BD3
:101F90004FF4A872084900900B48FFF77FFF0548EF
:101FA0000068401C03490860012101A811F0AAF84B
:101FB000D9E700002806002000A600201404002015
:101FC0002006002010A60020800D00202DE9F04101
:101FD0002DED028B84B0804600260027FE48007D50
:101FE000042806D110F0A8FD04B0BDEC028BBDE8BA
:101FF000F081FA48B0F81500032803D000200FF054
:1020000000FF80E2F548B0F8170001280ED110F06B
:10201000CDFD012010F0A4FD032010F0D9FDEF4804
:10202000C07808BB012010F0B7FD1DE0EB48B0F808
:10203000170003280CD1012010F0B8FD012010F08A
:102040008FFD032010F0C4FD012010F0A5FD0BE072
:10205000012010F0ABFD012010F082FD002010F0F7
:10206000B7FD012010F098FD00200AF0FBFC0020D5
:1020700010F0B8FDD948B0F82B000390D748B0F85D
:102080002D00D649B1F82B104840D449B1F82B1097
:102090000840D249A1F82F000846B0F82D00B1F849
:1020A0002B104840CD49B1F82D100840CB49A1F87C
:1020B0003100BDF80C10C948A0F82D109FEDC88A5A
:1020C000DFEDC78A01241FE1BDF80C0000EA04051A
:1020D000B5F5807F37D012DC102D2AD008DC012D19
:1020E00051D0022D48D0042D3FD0082D52D135E0DB
:1020F000202D22D0402D24D0802D4BD122E0B5F5CB
:10210000805F28D009DCB5F5007F1ED0B5F5806F63
:102110001CD0B5F5006F3DD11CE0B5F5005F1BD0BC
:10212000B5F5804F03D0B5F5004F33D133E001272B
:1021300031E0012010F056FD2DE0032010F010FDDD
:1021400029E028E027E0012625E024E001200AF02C
:1021500089FC20E01FE01EE001271CE0B7EE000A2A
:1021600038EE000AB0EE408A15E0B7EE000A38EE0D
:10217000400AB0EE408A0EE0B7EE000A38EEC00A20
:10218000F0EE408A07E0B7EE000A38EE800AF0EE83
:10219000408A00E000BF00BF9048B0F82F0000EA7E
:1021A0000405B5F5807F3BD012DC102D29D008DC6A
:1021B000012D4ED0022D4BD0042D48D0082D49D1F1
:1021C00044E0202D1ED0402D1DD0802D42D126E090
:1021D000B5F5805F30D009DCB5F5007F21D0B5F5CD
:1021E000806F1FD0B5F5006F34D11CE0B5F5005FEE
:1021F0002BD0B5F5804F03D0B5F5004F2AD12AE09A
:1022000029E028E027E07548C07A012803D10020A2
:102210007249C87202E001207049C8721BE01AE0DE
:1022200019E018E017E01EB1052010F0B5FC02E03F
:10223000012010F0B1FC0EE01EB1062010F0ACFC45
:1022400002E0012010F0A8FC05E004E003E002E059
:1022500001E000E000BF00BF6048B0F8310000EAD4
:102260000405B5F5807F3FD012DC102D29D008DCA5
:10227000012D42D0022D3FD0042D3CD0082D3DD160
:1022800038E0202D1ED0402D23D0802D36D121E0E6
:10229000B5F5805F2CD009DCB5F5007F25D0B5F50C
:1022A000806F23D0B5F5006F28D120E0B5F5005F31
:1022B0001FD0B5F5804F03D0B5F5004F1ED11EE0FD
:1022C0001DE01CE04748808A401C00B245498882D6
:1022D00015E014E0444890EDE10ADFED440A30EEE9
:1022E000200A80EDE10A0AE009E008E007E006E0E4
:1022F00005E004E003E002E001E000E000BF00BF11
:102300004FF6FF7000EA4404002C3FF7DDAE35487D
:1023100080ED008AC0ED018A3048007A032818D188
:10232000B7EE000A2F4880ED020A0146B1F9140009
:1023300000EBD0714910A0EB410101290ED12948D1
:1023400090ED020AFFEE000A20EE200A80ED020A5C
:1023500004E09FED230A234880ED020A57B10220D2
:1023600010F0FEFB2248807820F080008030204969
:10237000887005E01E48807820F080001C49887035
:102380001648C078012803D01448C078032845D1E6
:10239000154890EDE10A1148B0F91D0000EE900AD1
:1023A000F8EEE00A9FED131A00EEC10A0E4880ED28
:1023B000E10AA0F5006090EDFE0A0848B0F91F00A0
:1023C00000EE900AF8EEE00A9FED0A1A00EEC10A4C
:1023D000094880EDFE0A11E0A0A800206A850020CF
:1023E00000000000A0750020C07F002000003443E2
:1023F000140400200AD7A33BC077002090EDFE0A0A
:102400004248B0F9210000EE900AF8EEE00A9FED94
:10241000401A00EEC10A3F4880EDFE0A3B4890F8A2
:1024200023000290394890F825009DF80810484094
:102430009DF808100140354880F8271090F82500D5
:102440009DF808104840314991F8251001402F4867
:1024500080F828109DF8081080F825109DF80800D5
:1024600020B101202C4981F8A00103E000202A4975
:1024700081F8A001254890F8270018B101202349D0
:1024800081F83400214890F8240001901F4890F80A
:1024900026009DF8041048409DF8041001401B4898
:1024A00080F8291090F826009DF80410484017493C
:1024B00091F826100140154880F82A109DF8041064
:1024C00080F826109DF8040030B11048C07801282B
:1024D00002D1022010F060FB0C4890F82A0030B1C5
:1024E0000A48C078022802D1012010F055FB0B48A1
:1024F000407D062806D10948807D082802D10020A9
:1025000010F04AFB00BF00BF6EE500006A850020A6
:102510006F12833AC0770020A0850020A0A8002079
:1025200070B504460025F848B0F8170001287DD0A2
:10253000022802D003287AD144E1F348B0F815000C
:10254000012875D0022802D0032872D107E010F0CC
:10255000F3FA0020ED490860ED49086030E1012000
:1025600010F024FB032010F0FBFA002010F030FBE9
:10257000012010F011FB002010F034FBE248B0F80D
:102580001100A0F5806000EE100AB8EEC00ADFED81
:10259000E10A20EE200A9FEDE01AC0EE010A94ED58
:1025A000041ADE4890EDE10A00EEC10A80EDE10A6E
:1025B000D548B0F81100A0F5806000EE100AB8EE22
:1025C000C00ADFEDD40A20EE200A9FEDD31AC0EE38
:1025D000010A94ED041AD14890EDE00A00EEC10A18
:1025E00080EDE00AC848B0F81300A0F5806000EE66
:1025F000100AB8EEC00ADFEDCA0A20EE200A9FEDED
:10260000C61AC0EE010A94ED041AC64890EDFE0AFF
:1026100000EE810A80EDFE0ABB48B0F80D00A0F57F
:10262000806000EE100AB8EEC00A03E08BE13BE3E5
:102630002CE0BDE0F7EE000A20EE200ADFEDB60A3E
:1026400080EE201AB0EE080A21EE000AB64880EDAE
:10265000000AAD48B0F80F00A0F5806000EE100A47
:10266000B8EEC00AF7EE000A60EE200A9FEDAA1A43
:1026700080EE810AF0EE080A20EE200AAA4880EDDA
:10268000010AB9EE000A80ED020A99E0012010F07B
:102690008DFA032010F064FA002010F099FA01205E
:1026A00010F07AFA012010F09DFA9748B0F8110066
:1026B000A0F5806000EE100AB8EEC00ADFED950AC2
:1026C00020EE200A9FED941AC0EE010A94ED041A40
:1026D000924890EDE10A00EEC10A80EDE10A8A48D5
:1026E000B0F81100A0F5806000EE100AB8EEC00A44
:1026F000DFED880A20EE200A9FED871AC0EE010A5E
:1027000094ED041A854890EDE00A00EEC10A80EDD0
:10271000E00A7D48B0F81300A0F5806000EE100AD2
:10272000B8EEC00ADFED7E0A20EE200A9FED7A1A8D
:10273000C0EE010A94ED041A7A4890EDFE0A00EE0C
:10274000810A80EDFE0A7048B0F80D00A0F58060A7
:1027500000EE100AB8EEC00AF7EE000A60EE200A9A
:102760009FED6D1A80EE810AF0EE080A20EE200A35
:102770006D4880ED000A6448B0F80F00A0F5806055
:1027800000EE100AB8EEC00AF7EE000A20EE200AAA
:10279000DFED610A80EE201AB0EE080A21EE000A91
:1027A000614880ED010A9FED610A80ED020A07E0B1
:1027B00010F0C2F90020554908605549086000BF73
:1027C00000BF74E25048B0F8150001282FD002284D
:1027D00002D003287CD127E0012010F0E7F954480B
:1027E0004078012803D1052010F0BAF902E0012059
:1027F00010F0B6F9002010F0EBF9022010F0CCF93F
:10280000002010F0EFF94B4890ED000A464880EDAB
:10281000000A484890ED010A434880ED010A9FED07
:10282000460A80ED020A8CE009F086F989E0012071
:1028300010F0BCF9002010F093F9042010F0C8F952
:10284000022010F0A9F9002010F0CCF92E48B0F8C1
:102850001100A0F5806000EE100AB8EEC00ADFEDAE
:102860002D0A20EE200A9FED2C1AC0EE010A94EDED
:10287000041A2A4890EDE10A00EEC10A80EDE10A4F
:102880002148B0F81100A0F5806000EE100AB8EE03
:10289000C00ADFED200A20EE200A9FED1F1AC0EECD
:1028A000010A94ED041A1D4890EDE00A00EEC10AF9
:1028B00080EDE00A1448B0F81300A0F5806000EE47
:1028C000100AB8EEC00ADFED160A20EE200A00E07A
:1028D00034E09FED111AC0EE010A94ED041A11487C
:1028E00090EDFE0A00EE810A80EDFE0A9FED120ACD
:1028F0000D4880ED000A9FED100A80ED010A9FED62
:102900000E0A80ED020A1CE06A8500201C040020EB
:10291000200400200000344300002544C07F002034
:102920000000C842C0770020A07500209A99993F06
:102930003A040020A48400200000000010F0FCF8FD
:1029400000BF00BFB3E1DD48B0F8150001287CD01E
:10295000022802D0032879D180E0012010F026F966
:10296000012010F0FDF8002010F032F9012010F0E5
:1029700013F9002010F036F90020D14981F8310018
:10298000D0490860CD48B0F81100A0F5806000EE95
:10299000100AB8EEC00A5FED210A20EE200A1FEDF2
:1029A000221AC0EE010A94ED041AC74890EDE10A1C
:1029B00000EEC10A80EDE10AC048B0F81300A0F5AE
:1029C000806000EE100AB8EEC00A5FED2B0A20EE20
:1029D000200A1FED2F1AC0EE010A94ED041ABB481D
:1029E00090EDFE0A00EE810A80EDFE0AB348B0F8D1
:1029F0000D00A0F5806000EE100AB8EEC00AF7EEF8
:102A0000000A20EE200A1FED3C1AC0EE010AB0EECB
:102A1000080A20EE800AAE4880ED000AA748B0F808
:102A20000F00A0F5806000EE100AB8EEC00AF7EEC5
:102A3000000A60EE200A1FED481A80EE810AF0EECF
:102A4000080A20EE200AA24801E0B0E027E180ED6C
:102A5000010A1FED470A80ED020A23E1012010F070
:102A6000A5F8052010F07CF8002010F0B1F8012046
:102A700010F092F8012010F0B5F80020904981F88C
:102A800031009048006878B98F4890EDDE0AB0EECA
:102A9000401AFA21F7EE000AB1EE080A8D4809F053
:102AA0006DFD0120874908608448B0F81100A0F549
:102AB000806000EE100AB8EEC00A5FED6A0A20EEF0
:102AC000200A1FED6B1AC0EE010A94ED041A7E482D
:102AD00090EDE10A00EEC10A80EDE10A7748B0F816
:102AE0001100A0F5806000EE100AB8EEC00A5FED9C
:102AF000770A20EE200A1FED781AC0EE010A94ED45
:102B0000041A714890EDE00A00EEC10A80EDE00A77
:102B10006A48B0F81300A0F5806000EE100AB8EE25
:102B2000C00A5FED810A20EE200A1FED851AC0EE73
:102B3000010A94ED041A654890EDFE0A00EE810A40
:102B400080EDFE0A5D48B0F80D00A0F5806000EE53
:102B5000100AB8EEC00AF7EE000A20EE200A1FEDB8
:102B6000921AC0EE010AB0EE080A20EE800A584818
:102B700080ED000A5148B0F80F00A0F5806000EE2B
:102B8000100AB8EEC00AF7EE000A60EE200A1FED48
:102B90009E1A80EE810AF0EE080A20EE200A4C48C8
:102BA00080ED010A1FED9C0A80ED020A7AE0012007
:102BB0000FF0FCFF02200FF0D3FF032010F008F805
:102BC00001200FF0E9FF002010F00CF800203C4934
:102BD00081F831003948B0F81100A0F5806000EEAE
:102BE000100AB8EEC00A5FEDB50A20EE200A1FED0C
:102BF000B61AC0EE010A94ED041A334890EDE10ACA
:102C000000EEC10A80EDE10A2C48B0F81100A0F5F1
:102C1000806000EE100AB8EEC00A5FEDC20A20EE36
:102C2000200A1FEDC31AC0EE010A94ED041A2648CB
:102C300090EDE00A00EEC10A80EDE00A1F48B0F80E
:102C40001300A0F5806000EE100AB8EEC00A5FED38
:102C5000CC0A20EE200A1FEDD01AC0EE010A94ED36
:102C6000041A1A4890EDFE0A00EE810A80EDFE0A71
:102C70001FEDCF0A164880ED020A1048B0F80F0089
:102C8000A0F58060B0F5A57F04DD0120124981F830
:102C9000A00103E00020104981F8A00102E00FF03C
:102CA0004BFF00BF00BF02E00FF046FF00BF00BFB8
:102CB0000248B0F81510A0F81B1070BD6A850020FE
:102CC000F08300201C040020C07F0020C07700207B
:102CD000A0750020BC750020A085002010B502481A
:102CE00002F0F4F910BD0000A410002010B5024855
:102CF00002F0ECF910BD00007C0E002010B5024877
:102D000002F0E4F910BD0000DC0E00200146087856
:102D100010381823B0FBF3F20848805CC865032A1A
:102D200005D908686FF30900001D886503E008688D
:102D30006FF309008865886D70470000284E010810
:102D4000014600208A6A8B69CBB932B1012A0DD0C5
:102D5000022A03D0032A10D10EE000BFCB6A03F091
:102D60008073B3F1807F00D1012007E0CB6AB3F11B
:102D7000C07F00D1012001E000E000BF34E08B699A
:102D8000B3F5005F1AD132B1012A07D0022A03D06D
:102D9000032A11D10AE000BF01200EE0CB6A03F044
:102DA0008073B3F1807F00D1012006E0CB6AB3F1DC
:102DB000C07F00D1012000E000BF15E032B1012A40
:102DC00005D0022A04D0032A0CD103E000BF00BFC3
:102DD000012008E0CB6A03F08073B3F1807F00D15B
:102DE000012000E000BF00BF7047000010B590F860
:102DF00033300D2B05D1644B1C680C605B684B6055
:102E000010BD12B190F8263043B9604B1C680C60BD
:102E10005B684B60012380F82630B3E0012A05D1BE
:102E20005B4B1C680C605B684B60ABE0036800EEBA
:102E3000103AD0F81E3000EE903AF1EE600AB4EE8F
:102E4000E00AF1EE10FA00D800E000BF436800EE9F
:102E5000103AD0F8223000EE903AF1EE600AB4EE6B
:102E6000E00AF1EE10FA00D800E000BFC36800EEFF
:102E7000103AD0F81A3000EE903AB1EE601ADFED59
:102E8000451AF7EE000A41EE210AB4EEE00AF1EE2F
:102E900010FA00D813E0C36800EE903AD0F81A3068
:102EA00000EE103ADFED3B1AB7EE001A10EE211AD1
:102EB000F4EEC10AF1EE10FA00DB00E000BF036897
:102EC00000EE103AD0F81E3000EE903A80EE201A54
:102ED000DFED310A9FED300A01EE200ABCEEC00A98
:102EE00010EE103A0382436800EE103AD0F8223018
:102EF00000EE903A80EE201ADFED280A9FED270AB7
:102F000001EE200ABCEEC00A10EE103A4382C368FC
:102F100000EE103ADFED1F0A80EE201AD0F81A30CA
:102F200000EE103AC1EE000A9FED1C1A9FED1B0A3D
:102F300000EE810ABCEEC00A10EE103A038303894A
:102F400083824389C382038A1B0A0B70037C4B7004
:102F5000438AC3F307138B70037C1B071B0E848A01
:102F600043EA1423CB70037D0B71C38AC3F30713A9
:102F70004B71837D1B02DBB2048B43EA14238B71FC
:102F8000037ECB7100BF3BE74705002037050020DB
:102F90003F05002000007A44000000470000004583
:102FA00000211A30017310EE101A416010EE901AD1
:102FB000016011EE101A81601A3870472DE9F04750
:102FC0002DED068B05460C46A878697840EA012667
:102FD000E8780001297940EA21176879297901F018
:102FE0000F0140EA0128A8791A34A076E879E07642
:102FF000A7F5006000EE100AB8EEC00A9FED301A87
:10300000C0EE010AA06800EE100A20EE800A10EE61
:10301000100AC4F81100A6F5004000EE100AB8EE40
:10302000C00A9FED281AC0EE010A606800EE100A7F
:1030300020EE800ADFED240A80EE201A11EE109AAD
:10304000484611F041FD41EC1A0B9FED200B53EC6B
:10305000102B11F00FFB41EC190B9FED1C0B53ECE7
:10306000102B11F0BFF841EC180B11F089F8C4F8DF
:103070000D00A8F5006000EE100AB8EEC00A9FED42
:10308000101AC0EE010A206800EE100A20EE800A35
:10309000DFED100A20EE200A10EE100AC4F8150029
:1030A00095F800A04FEA2A106076607E1A3C10B9AD
:1030B000002084F82600BDEC068BBDE8F0870000F8
:1030C0000000004500000047DB0F49400000000001
:1030D0000080664000007A4408B5084840680090C7
:1030E000074900980968884204D206480068401CD5
:1030F0000449086002490098086008BD001000E01B
:10310000800400207C0400200C494868F0EE400A4E
:1031100000BF0A494968091A01EE101AF8EE411A6F
:10312000074991ED001AB8EE411A20EE811AF4EE2B
:10313000C11AF1EE10FAECD370470000001000E065
:103140007004002010B52DED028B82B004460E48AD
:103150004068019020680199081A00EE100AF8EE04
:10316000400A0A4890ED000AB8EE400A80EE801A44
:10317000B0EE418A01982060FFF7AEFFB0EE480A3A
:1031800002B0BDEC028B10BD001000E07004002006
:1031900010B52DED028B00F081F81148D0E9022125
:1031A000104611F032FD00EE100A0D48D0ED000A75
:1031B000F8EE608ADFED0B0A40EE208AD0E90421A8
:1031C000104611F022FD00EE100ADFED070A40EE76
:1031D000208AB0EE688AB0EE480ABDEC028B10BDC2
:1031E000C08700206F12833ABD3786352DE9F04144
:1031F00000F054F80D4800680D49484300210B4A7F
:103200004FF47A77D2E90236A3FB072806FB07863C
:1032100003FB016683187141044AD2E904021C18B9
:1032200041EB020520462946BDE8F081C087002019
:1032300040420F001249096841F08071104A116044
:103240000021104A51601146096841F001011160E6
:103250000D4941430D4A1160114609684FF47A72D5
:10326000B1FBF2F10A4A116008490968064AB1FB4C
:10327000F2F1084A11600021074A1160704700000E
:10328000FCED00E0001000E040420F007004002060
:1032900074040020780400207C04002038B52D48F8
:1032A00040680090FFF718FF2B4800684FF0FF318F
:1032B000A0FB01300099591840F10000274AC2E9EB
:1032C0000010274800232549026803C9FDF7A6F826
:1032D000244A03C2234806C8214800680024A1FBF1
:1032E000003502FB005001FB04011C48D0E900201E
:1032F000D21A60EB01001C49C1E90020194800689E
:103300001A4908601A4800231749026803C9FDF7E3
:1033100085F8164AC2E902011046D0E902131448A2
:103320000068A1FB002503FB005001FB04010E48CF
:10333000D0E900309A1A60EB01000E49C1E9002083
:103340000D480023026803C9FDF768F8074AC2E97F
:10335000040138BD001000E07C0400208804002037
:10336000700400209004002098040020C0870020F2
:1033700074040020A0040020780400207047D2EDDF
:10338000020A92ED021AB6EE000A00EEC10AD2ED70
:10339000030A92ED031A00EEC10AD0ED000A20EEF6
:1033A000200AD2ED010A92ED021A60EE810A92ED36
:1033B000001AD2ED031A41EE210A90ED011A00EE37
:1033C000810AD2ED010A92ED031A60EE810A92EDB4
:1033D000001AD2ED021A41EE610A90ED021A00EED7
:1033E000810AF0EE000A20EE200A81ED000A92ED3B
:1033F000010AD2ED020A20EE200AD2ED000A92ED77
:10340000031A00EEC10AD0ED000A60EE200A92ED28
:10341000011AD2ED011AB6EE000A01EE610AD2EDF0
:10342000031A92ED032AB0EE401A01EEC21AD0ED53
:10343000011AB0EE600A01EE210AD2ED020A92ED05
:10344000031A60EE810A92ED001AD2ED011A41EEE4
:10345000210A90ED021A00EE810AF0EE000A20EE39
:10346000200A81ED010A92ED010AD2ED030A20EE55
:10347000200AD2ED000A92ED021A00EE810AD0ED88
:10348000000A20EE200AD2ED020A92ED031A60EE45
:10349000810A92ED001AD2ED011A41EE610A90ED17
:1034A000011A00EE810A92ED011AD2ED011AF6EE30
:1034B000000A41EE610A92ED021AD2ED021A41EEC3
:1034C000610A90ED021A00EE810AF0EE000A20EE89
:1034D000200A81ED020A704772B600BFFEE710B500
:1034E0002DED028B0446B0EE408A04F11800FFF780
:1034F00029FE84ED070A94ED080AD4ED070A70EE60
:10350000200A94ED070A20EE081A81EE200AD4ED75
:10351000030A94ED081A60EE810A94ED081AD4EDBE
:10352000071A31EE211AC0EE811A30EE210A84ED1D
:10353000030A208E02280EDD94ED031AF0EE410AF4
:1035400094ED071AB0EE410A04F1340007F0A6FF2B
:1035500084ED090A0BE094ED030AD4ED040A30EE81
:10356000600AD4ED070A80EE201A84ED091AB4F837
:10357000600002280EDD94ED091AF0EE410A94ED88
:10358000071AB0EE410A04F1640007F087FF84EDEA
:103590000A0A0BE094ED090AD4ED0B0A30EE600A3A
:1035A000D4ED070A80EE201A84ED0A1A94ED000A81
:1035B000D4ED030A20EE200AD4ED010A94ED091A95
:1035C00000EE810AD4ED020A94ED0A1A00EE810A97
:1035D00084ED240A94ED240AD4ED250AF1EE600A64
:1035E000B4EEE00AF1EE10FA00D800E000BF94ED6E
:1035F000030A84ED040A94ED090A84ED0B0A94EDA4
:10360000240ABDEC028B10BD10B504469FED0A0ADA
:1036100084ED0A0A84ED090A84ED030A9FED060A87
:1036200084ED0B0A84ED040A84ED240A04F11800E9
:10363000FFF788FD10BD0000000000002DE9F041FB
:103640002DED028B04460D46B0EE408AF0EE608A06
:1036500016461F4684ED258A6DB164B195ED000ACA
:1036600084ED000A95ED010A84ED010A95ED020A48
:1036700084ED020A0FE09FED170A84ED000A9FED2A
:10368000150A84ED010A9FED130A84ED020A9FEDED
:10369000110A84ED250AC4ED088A2686A4F8607014
:1036A000022E04DD314604F1340007F0DDFF022F65
:1036B00004DD394604F1640007F0D6FF04F1180078
:1036C000FFF740FD9FED030A84ED240ABDEC028B59
:1036D000BDE8F0810000000002460AB9032902D0CB
:1036E000032A02D109B9012070470020FCE700003D
:1036F00010B520220121DFED194A9FED184ADFEDB8
:10370000183A9FED173ADFED152A9FED162ADFEDE7
:10371000161A9FED121ADFED150A9FED150A1548CE
:1037200008F092FC20220121DFED0C4A9FED0B4AAC
:10373000DFED0B3A9FED0A3ADFED082A9FED092AEB
:10374000DFED091A9FED051ADFED080A9FED080A63
:103750000848B83008F078FC10BD000000000000F8
:1037600000007A4427A0893BCDCC0C4000C0DA454C
:1037700000007A46F075002010B52DED028BB0EEFA
:10378000408AF0EE608A0D48D0ED660AB0EE600A1D
:10379000F0EE480A08F0ECFA084880ED700AD0ED27
:1037A0006E0AB0EE600AF0EE680AB83008F0E0FA8F
:1037B000024880ED710ABDEC028B10BDF07500204F
:1037C00070B52DED028B05460C46B5F9000000EEF4
:1037D000100AB8EEC00ADFED160A20EE200AB0EE9D
:1037E000408AB5F9020000EE100AB8EEC00AF1EE08
:1037F000080A20EE200A84ED060ADFED0E0AB0EE7C
:10380000480A20460DF076F884ED050AB5F9040063
:1038100000EE900AF8EEE00AB0EE600ADFED060A6C
:1038200004F11C000EF0E0FABDEC028B70BD00004C
:10383000FFFF333D0000B4433333333FF0B5059D04
:10384000012D0DD113F5804F01DC1F4C06E0B3F5BF
:10385000804F02DB4FF4804400E01C4623460AE020
:103860001A4CA34200DC05E047F23054A34200DBCF
:1038700000E01C46234640F2FF14A14202D0B1F5FD
:10388000FF7F0CD1012A1EDB042A1CDC561E7400AB
:103890001E0A76B206555FB2661C875513E040F2E9
:1038A000FF24A14202D0641EA1420CD1052A0ADBEA
:1038B000072A08DC561F74001E0A76B206555FB24E
:1038C000661C875500BFF0BD00C0FFFFD08AFFFF18
:1038D00030B5034605E013F8010B80EA0204044802
:1038E000025D081EA1F10101F5D1104630BD0000B6
:1038F0004950010870B50A480468001D0568001D9C
:103900000668344454B108220649204605F0B4FD47
:10391000042204491031284605F0AEFD70BD0000B8
:10392000107AFF1FBA05002010B54A4808F062FB64
:103930004848B83808F05EFB474808F05BFB45484C
:10394000B830FFF761FE4548FFF75EFE424890ED54
:10395000FA0A80EDFE0A90EDFA0A80EDF60A9FED74
:10396000400A80EDF40A9FED3E0A80EDF50A9FEDD6
:103970003C0A80EDF80A00F6C80008F03BFB394825
:1039800008F038FB384808F035FB3748B83808F0FD
:1039900031FB3648FFF738FE34489830FFF734FEE5
:1039A0003148B830FFF730FE3148FFF72DFE2D4883
:1039B0001038D0EDDE0AB0EE600A00F5627009F052
:1039C0001BFD28481038D0EDDD0AB0EE600A00F586
:1039D0006C7009F011FD2748D0ED0B0AB0EE600ABB
:1039E000254809F009FD2348D0ED020AB0EE600A2F
:1039F0002148283009F000FD1A48103890EDDE0A01
:103A000080EDE10A90EDDE0A80EDDB0A9FED140AFD
:103A100080EDD90A9FED120A80EDDA0A154890ED83
:103A20000B0A1048103880EDE00A124890ED0B0A9E
:103A30000C48103880EDD70A9FED090A80EDD50AB1
:103A40009FED070A80EDD60A00200A4981F832006E
:103A5000888610BD30790020C0770020807A002051
:103A600000000000D07F0020307D00204081002039
:103A7000807E0020F08300209883002000B58DB068
:103A800045220121DFED7B4A9FED7B4ADFED7A3A4B
:103A90009FED793ADFED782AB6EE002ADFED771A4E
:103AA0009FED751ADFED760A9FED760A764808F0ED
:103AB000CBFA05220121DFED704A9FED744ADFED5C
:103AC0006E3A9FED6D3ADFED6C2AB0EE002ADFED25
:103AD0006C1A9FED6F1ADFED6F0A9FED6F0A6A484F
:103AE000B83808F0B1FA40220121DFED634A9FEDBA
:103AF000624ADFED613A9FED603ADFED682A9FEDA3
:103B00005E2ADFED5F1A9FED661ADFED5B0A9FED1F
:103B1000650A654808F098FA05220121DFED564A4A
:103B20009FED554ADFED543A9FED533ADFED522AAF
:103B3000B7EE082ADFED5D1AB6EE001ADFED5C0A7B
:103B40009FED5C0A5848B83808F07EFA40220121FF
:103B5000DFED484A9FED484ADFED473A9FED463A90
:103B6000DFED4B2A9FED442ADFED531A9FED4C1AEF
:103B7000DFED410A9FED510A514808F065FA052230
:103B80000121DFED3D4A9FED414ADFED3B3A9FEDDC
:103B90003A3ADFED392AB7EE002ADFED4A1AB6EEDF
:103BA000001ADFED3C0A9FED480A4548B83808F096
:103BB0004BFADFED460A9FED460A464809F032FC13
:103BC000DFED420A9FED440A4248283009F02AFC02
:103BD000DFED3E0A9FED410A3E48503809F022FCD5
:103BE000DFED3A0A9FED3C0A3A48283809F01AFC02
:103BF0003B4A07CA0AAB07C3394A0C3207CA07ABAC
:103C000007C305231A46DFED310A0AA99FED350ADD
:103C10003548FFF713FD05231A46DFED2C0A07A9E7
:103C20009FED320A30489838FFF708FD2C4A1832C9
:103C300007CA04AB07C305231A46DFED240A04A90B
:103C40009FED280A2A48FFF7F9FC254A2432D2E9D9
:103C500000109268CDE90202019105231A46DFEDBA
:103C60001B0A01A99FED210A21489838FFF7E6FCBD
:103C70000DB000BD0AD7A33C000000000000384290
:103C8000000040420000164330790020FAEDEB3A84
:103C9000CDCCCC3D0000964400803B459A99993E9E
:103CA000CDCC4C3D000034438880002000002A43E6
:103CB00000007A4400008046000000420000B44347
:103CC000307D0020000004420080BB450AD7233C21
:103CD00000409C469883002000C8AF4700401C4726
:103CE000DC5101080000C842D88100200000FA43DE
:103CF000807E002008B500BFFFF7FAFCFFF7BEFE8C
:103D000009F082FD9FED3B1AF3EE040A9FED3A0A9B
:103D10003A48FFF745F9B3EE0E1AF2EE040A9FEDAA
:103D2000360A36483630FFF73BF9DFED350AB2EE9A
:103D3000040A344808F032FB4FF4FA600FF0B4F98B
:103D400056E00FF0B7FF00902F48FFF7FBF92E4821
:103D5000203880ED090A0EF077FFFDF729FC08F006
:103D600075FC2A48C07807281AD2DFE800F004075B
:103D70000A16130D100000F0EFFA14E000F04AF8F4
:103D800011E000F041F90EE000F006FB0BE000F05E
:103D9000EDF908E000F0FEFA05E000F04FFC02E06B
:103DA00000F0DAFA00BF00BF08F0C4FE07F096F991
:103DB0001748007800F0010008B907F0A5FA144888
:103DC00000680321B0FBF1F201FB120008B907F013
:103DD00023FB07F0DDFA0E48006807F073FF0C487C
:103DE0000068401C0A490860022168460FF08AF901
:103DF000A7E7000000003442DC0F4940A682002003
:103E000000002043D0A60020DCA800206A85002006
:103E10003806002010B52DED108B0EF01DF86D4802
:103E2000D0EDFE0AB0EE600A00F066FA6A4880ED56
:103E30000E0A6A48D0EDE10AB0EE600A00F05EFBBF
:103E4000654880ED180A664890ED0A0A10EE101ACF
:103E5000084610F039FE41EC1E0B9FED620B53EC4F
:103E6000102B10F007FC41EC1C0B5D4890ED0B0A89
:103E700010EE101A084610F027FE41EC1D0B53EC13
:103E80001C2B10F0AFF941EC1A0B544890EDE00AEE
:103E900010EE101A084610F017FE41EC1B0B53EC05
:103EA0001A2B10F027FD41EC190B10F069F900EE08
:103EB000100AB0EEC00A10EE104A204610F004FEC0
:103EC00041EC1D0B9FED490B53EC102B10F0D2FB76
:103ED00041EC1B0B204610F0F7FD41EC1D0B20467A
:103EE00010F0F2FD41EC1F0B9FED420B53EC102B39
:103EF00010F0C0FB41EC1E0B53EC1D2B10F0BAFB75
:103F000041EC1C0B53EC1B2B10F0F4FC41EC1A0B96
:103F10009FED3A0B53EC102B10F064F941EC190BA8
:103F200010F02EF908EE100AB6EE000AB4EEC08AC0
:103F3000F1EE10FA02D8B6EE000A0BE0B7EE000A76
:103F4000B4EEC08AF1EE10FA02DBB7EE000A01E02F
:103F5000B0EE480AB0EE408A214890ED0A0A10EE11
:103F6000101A084610F0B0FD41EC1C0B9FED1D0B24
:103F700053EC102B10F07EFB41EC1A0B184890ED1F
:103F80000B0A10EE101A084610F09EFD41EC1B0BB8
:103F900053EC1A2B10F026F941EC190B10F0F0F845
:103FA00008EE900AF0EE480AB0EE680A15480DF0E7
:103FB0001BFF0A48D0EDE00AB0EE600A00F0D8F826
:103FC000054880ED130A0120054981F83000BDEC59
:103FD000108B10BDC0770020B4A90020C07F002046
:103FE000F0830020333333333333E33F9278793A2D
:103FF0005794423FE59E09A8CBBD3BBF000000E0BF
:10400000CEF7EF3F4083002010B52DED028B84B03A
:104010000D2249496846FCF778FA484890EDFE0AB7
:104020004748D0ED000A30EE600AB0EEC00ADFED7E
:10403000450AB4EEE00AF1EE10FA22D2424890EDC1
:10404000E10A4248D0ED000A30EE600AB0EEC00A44
:10405000DFED3F0AB4EEE00AF1EE10FA11D23D486E
:10406000807E0D280DD1364890ED000A334880ED52
:10407000FE0A364890ED000A334880EDE10AFDF76C
:10408000F9F92E4890EDFE0AB0EEC00ADFED2D0AD8
:10409000B4EEE00AF1EE10FA03DD90EDFA0A80EDDD
:1040A000FE0A294890EDE10ADFED2B0A30EE600AA6
:1040B000B0EEC00A10EE104A204610F005FD41ECAB
:1040C000180B9FED260B53EC102B10F097FA0AD229
:1040D0001D4890EDDE0A80EDE10A224890ED0B0AC2
:1040E000194880EDE00A0DF0B7FE1448D0EDFE0A45
:1040F000B0EE600A00F000F91B4880ED0E0A12488D
:10410000D0EDE00AB0EE600A00F032F8164880ED1B
:10411000130A0D48D0EDE10AB0EE600A00F0EEF9A6
:10412000114880ED180A01200E4981F8300004B0D2
:10413000BDEC028B10BD000058840020C077002029
:104140003004002000007042C07F002034040020B2
:1041500000008C42A0A8002000C079442D431CEB35
:10416000E2361A3FF0830020B4A900207047000017
:1041700010B52DED028BB0EE408AB0EE480A5448DF
:1041800008F0C4FF534880EDD70A90EDD71AF0EE3F
:10419000410A514890ED0B1AB0EE410A4F4807F022
:1041A000E7FDF0EE408A4B48D0EDD70AB0EE600A4A
:1041B000A0F5A070FFF793F938EE800A454880ED2E
:1041C000D50AD0EDD50AB0EE600A00F5806008F09F
:1041D0009DFF404890EDD51AF0EE410A3E4890ED23
:1041E000021AB0EE410A3D48B83807F0C1FDF0EEC2
:1041F000408A3848D0EDD50AB0EE600AA0F5EC70E0
:10420000FFF76DF938EE800AF7EE000A20EE200A7B
:10421000304880EDD60A314890ED060AB0EEC00A6B
:10422000F1EE040AB4EEE00AF1EE10FA17D22A48D1
:10423000808E401C284988860846808E962805DA9C
:104240009FED270A254880ED100A08E00120224949
:1042500081F832009FED230A204880ED100A1E48A5
:1042600090F83200F8B91B4890EDD60ADFED1E0A2F
:10427000B4EEE00AF1EE10FA02D89FED1B0A0FE04F
:10428000144890EDD60ADFED190AB4EEE00AF1EE1B
:1042900010FA02DB9FED150A02E00E4890EDD60AF7
:1042A0000C4880EDD60A1248B0F8A80368B10A4855
:1042B00090ED010AB5EEC00AF1EE10FA05D00548FE
:1042C00090EDD60ABDEC028B10BD9FED0A0AF9E70E
:1042D00098830020C07F0020F0830020307D0020E4
:1042E0000000204300009643000096C4000096445E
:1042F000C07700200000000010B52DED028BB0EE5D
:10430000408A144880EDF68A90EDF61AF0EE410AE4
:1043100090EDFA1AB0EE410A00F5B87007F028FDEA
:104320000C4880EDF40A90EDF41AF0EE410A90ED9D
:10433000F91AB0EE410AB83007F01AFDF7EE000A9C
:1043400020EE200A034880EDF50A90EDF50ABDEC59
:10435000028B10BDC077002010B50DF07DFDFFF77A
:10436000E3FA9FED090A094880ED0E0A9FED060A5F
:1043700080ED130A9FED040A80ED180A002004491D
:1043800081F8300010BD000000000000B4A900203A
:10439000F08300207047000010B52DED028B84B033
:1043A0000D2249496846FCF7B0F8484890EDFE0AEE
:1043B0004748D0ED000A30EE600AB0EEC00ADFEDEB
:1043C000450AB4EEE00AF1EE10FA22D2424890ED2E
:1043D000E10A4248D0ED000A30EE600AB0EEC00AB1
:1043E000DFED3F0AB4EEE00AF1EE10FA11D23D48DB
:1043F000807E0D280DD1364890ED000A334880EDBF
:10440000FE0A364890ED000A334880EDE10AFDF7D8
:1044100031F82E4890EDFE0AB0EEC00ADFED2D0A0D
:10442000B4EEE00AF1EE10FA03DD90EDFA0A80ED49
:10443000FE0A294890EDE10ADFED2B0A30EE600A12
:10444000B0EEC00A10EE104A204610F03DFB41ECE1
:10445000180B9FED260B53EC102B10F0CFF80AD25F
:104460001D4890EDDE0A80EDE10A224890ED0B0A2E
:10447000194880EDE00A0DF0EFFC1448D0EDFE0A7B
:10448000B0EE600AFFF738FF1B4880ED0E0A1248B5
:10449000D0EDE00AB0EE600AFFF76AFE164880ED44
:1044A000130A0D48D0EDE10AB0EE600A00F026F8DC
:1044B000114880ED180A01200E4981F8300004B03F
:1044C000BDEC028B10BD000058840020C077002096
:1044D0003004002000007042C07F0020340400201F
:1044E00000008C42A0A8002000C079442D431CEBA2
:1044F000E2361A3FF0830020B4A9002010B52DED5C
:10450000028BB0EE408AB0EE480A454808F0FEFD46
:10451000444880EDDB0A90EDDB1AF0EE410A90EDA5
:10452000DE1AB0EE410AC83007F022FCF0EE408AF5
:104530003C48D0EDDB0AB0EE600A00F50670FEF7ED
:10454000CEFF38EE800A374880EDD90AD0EDD90A7F
:10455000B0EE600A00F56C7008F0D8FD314890EDBF
:10456000D91AF0EE410A90EDDD1AB0EE410A103092
:1045700007F0FEFBF0EE408A2A48D0EDD90AB0EEF3
:10458000600A00F5C070FEF7AAFF38EE800AF7EE69
:10459000000A20EE200A234880EDDA0A90EDDA0ABC
:1045A000DFED210AB4EEE00AF1EE10FA02D89FED39
:1045B0001E0A0FE01B4890EDDA0ADFED1C0AB4EE8C
:1045C000E00AF1EE10FA02DB9FED180A02E015484E
:1045D00090EDDA0A134880EDDA0AA0F5006090ED5C
:1045E000F10ADFED130AB4EEE00AF1EE10FA0EDD87
:1045F00090EDF10ADFED0F0AB4EEE00AF1EE10FAE9
:1046000005D2084890EDDA0ABDEC028B10BD9FED93
:104610000A0A044880EDDA0A90EDDA0AF4E70000AD
:1046200048830020C07F0020000080C60000804634
:10463000000028C200001C420000000010B50CF071
:10464000A9F80120014981F8300010BDF083002055
:1046500010B5024692F82030012B01D0022B06D172
:1046600010684069084314686061002010BD506AFA
:1046700040F4802050620120F8E7F0B504460D4672
:104680001E4694F8207020688368A86800B900E08E
:1046900000BF012F01D0022F7DD103F0806030B91F
:1046A00003F0006018B903F0805000287ED0C3F3F7
:1046B0000161012088403060A86860B9B5F800C089
:1046C000E86840EA4C5C206800F5C07000EB01101F
:1046D000C0F800C00FE0D5E901C040EACC00D5F831
:1046E0000CC040EA0C00D4F800C00CF5C07C0CEB08
:1046F000011CCCF80000D5F810C0206800F5C0708F
:1047000000EB0110C0F804C0287D01280ED12068FC
:1047100000F5C07000EB0110406840F4807C206818
:1047200000F5C07000EB0110C0F804C0D07900069D
:1047300092F806C040EA0C4092F805C040EA0C200E
:1047400092F804C040EA0C00D4F800C00CF5C07C1C
:104750000CEB011CCCF80C00D078000692F802C0DB
:1047600040EA0C4092F801C040EA0C2092F800C0E8
:1047700040EA0C00D4F800C00CF5C07C0CEB011C26
:10478000CCF80800206800F5C07000EB011000684C
:1047900040F0010C01E00FE008E0206800F5C07077
:1047A00000EB0110C0F800C00020F0BD606A40F4CA
:1047B000001060620120F8E7606A40F480206062C7
:1047C0000120F2E7F0B504460A46216894F820502B
:1047D000012D01D0022D7ED1424901F500710868FA
:1047E00040F001000860086820F47C500860086808
:1047F000566A40EA06200860107D00F01F0601207E
:1048000000FA06F3C8699843C861A1F50071D06940
:10481000C8B9D1F80C029843C1F80C02908880B254
:10482000968940EA064601F51070576940F83760EE
:10483000108880B2168940EA064601F51070576963
:1048400000EBC7004660D069012819D1D1F80C02ED
:104850001843C1F80C02908880B2168840EA0646D8
:1048600001F51070576940F83760908980B2168959
:1048700040EA064601F51070576900EBC700466034
:10488000906928B9D1F804029843C1F8040204E001
:10489000D1F804021843C1F80402106928B9D1F80C
:1048A00014029843C1F8140204E0D1F8140218432A
:1048B000C1F81402106A012804D1D1F81C0218436F
:1048C000C1F81C02D1F8000220F00100C1F800027A
:1048D0000020F0BDFFE7606A40F4802060620120A4
:1048E000F7E7000000640040704770B5044694F894
:1048F0002050012D01D0022D7DD151B92068C06812
:1049000000F0030080B9606A40F40010606201208A
:1049100070BD2068006900F0030028B9606A40F4A7
:10492000001060620120F3E7206800F5D87000EB0A
:104930000110006800F004009060906840B92068A1
:1049400000F5D87000EB01100068400D106007E022
:10495000206800F5D87000EB01100068C0085060B6
:10496000206800F5D87000EB0110006800F002002C
:10497000D060206800F5D87000EB0110406800F0AE
:104980000F00082802D30820106108E0206800F515
:10499000D87000EB0110406800F00F001061206833
:1049A00000F5D87000EB0110406800F47F40000A69
:1049B0009061206800F5D87000EB01104068000C91
:1049C0005061206800F5D87000EB01108068187005
:1049D000206800F5D87000EB0110806800F47F407B
:1049E000000A5870206800F5D87000EB011080684C
:1049F00000F47F0000E03CE0000C9870206800F5B7
:104A0000D87000EB01108068000ED870206800F5A7
:104A1000D87000EB0110C0681871206800F5D870DC
:104A200000EB0110C06800F47F40000A5871206854
:104A300000F5D87000EB0110C06800F47F00000C96
:104A40009871206800F5D87000EB0110C068000E66
:104A5000D87131B92068C06840F020002668F06045
:104A600005E02068006940F02000266830610020E1
:104A70004EE7606A40F480206062012048E701460A
:104A8000002091F82020012A01D0022A11D10B68C0
:104A90009B6803F0806303B1401C0B689B6803F0C4
:104AA000006303B1401C0B689B6803F0805303B1A3
:104AB000401C70472DE9F05F0446002520684669D8
:104AC0002068D0F80490206887682068D0F80CA08F
:104AD0002068D0F810B02068D0F8188006F00100E7
:104AE000002855D007F00100C0B10120216888607E
:104AF00007F0020018B1204600F0E1FA0EE007F0DE
:104B0000040010B145F4006508E007F0080010B19A
:104B100045F4805502E0204600F0D0FA07F480709A
:104B2000C8B14FF480702168886007F4007018B134
:104B3000204600F0C6FA0EE007F4806010B145F49C
:104B4000005508E007F4006010B145F4804502E02C
:104B5000204600F0B5FA07F48030C8B14FF4803039
:104B60002168886007F4003018B1204600F0ABFAE5
:104B70000EE007F4802010B145F4004508E007F48A
:104B8000002010B145F4803502E0204600F09AFA8A
:104B900006F0080038B10AF0100020B145F40075A5
:104BA00010202168C86006F0040040B10AF0080037
:104BB00028B108202168C860204600F02DFA06F0D0
:104BC000020038B12068C06800F0030010B1204630
:104BD00000F023FA06F0400038B10BF0100020B1CD
:104BE00045F4806510202168086106F0200040B17E
:104BF0000BF0080028B1082021680861204600F069
:104C00001CFA06F0100038B12068006900F00300BB
:104C100010B1204600F012FA06F4003040B109F05D
:104C2000100028B1102021684860204600F016FAD4
:104C300006F4803040B109F0080028B1082021684E
:104C40004860204600F040FA06F4004088B309F0BE
:104C5000040078B306F4807020B108F0010008B1B8
:104C600045F0010506F4007020B108F0020008B11B
:104C700045F0020506F4806020B108F0040008B198
:104C800045F0040506F40060A0B108F0700088B19A
:104C900008F07000402817D006DC10280BD0202820
:104CA0000CD0302819D10CE0502810D0602814D135
:104CB00010E01DE019E045F008050FE045F0100593
:104CC0000CE045F0200509E045F0400506E045F020
:104CD000800503E045F4807500E000BF00BF206858
:104CE000806920F070002168886104202168486094
:104CF0002DB1606A284360622046FFF7F5FDBDE8EC
:104D0000F09F70B504460CB9012070BD94F82000E6
:104D100010B9204600F0B0F82068006840F00100AB
:104D20002168086000F07CFC05460DE000F078FC8E
:104D3000401B0A2808D9606A40F4003060620520F0
:104D400084F820000120E0E72068406800F00100BE
:104D50000028EBD02068006820F00200216808607D
:104D600000F05EFC05460DE000F05AFC401B0A28EE
:104D700008D9606A40F400306062052084F82000A1
:104D80000120C2E72068406800F002000028EBD153
:104D9000207E012806D12068006840F0800021684C
:104DA000086005E02068006820F080002168086045
:104DB000607E012806D12068006840F0400021682C
:104DC000086005E02068006820F040002168086065
:104DD000A07E012806D12068006840F020002168EC
:104DE000086005E02068006820F020002168086065
:104DF000E07E012806D12068006820F010002168BC
:104E0000086005E02068006840F010002168086034
:104E1000207F012806D12068006840F00800216842
:104E2000086005E02068006820F00800216808603C
:104E3000607F012806D12068006840F004002168E6
:104E4000086005E02068006820F004002168086020
:104E5000D4E9020108432169084361690843616894
:104E6000491E08432168C86100206062012084F85F
:104E70002000002049E7000010B586B00446142148
:104E800001A8FBF7E3FB5E492068884251D15D48E9
:104E90000068401C5B4908600846006801280FD183
:104EA00000BF002000905848006840F0007056494C
:104EB00008600846006800F00070009000BF00BF66
:104EC00000BF0020009050481038006840F00800F3
:104ED0004D49103908600846006800F0080000904D
:104EE00000BF00BF03200190022002900020039029
:104EF000032004900920059001A9444800F090FA8D
:104F000000220521132000F073FD132000F05CFD4A
:104F100000220521142000F06BFD142000F054FD48
:104F200000220521152000F063FD152000F04CFD46
:104F300064E037492068884260D100BF00200090BB
:104F40003148006840F080602F49086008460068DA
:104F500000F08060009000BF00BF2A480068401C3D
:104F6000284908600846006801280FD100BF0020CA
:104F700000902548006840F000702349086008460A
:104F8000006800F00070009000BF00BF00BF00206C
:104F900000901D481038006840F002001A4910398E
:104FA00008600846006800F00200009000BF00BFE3
:104FB00060200190022002900020039003200490C2
:104FC0000920059001A9134800F02AFA00220521C2
:104FD0003F2000F00DFD3F2000F0F6FC00220521EF
:104FE000402000F005FD402000F0EEFC00220521ED
:104FF000412000F0FDFC412000F0E6FC06B010BDB1
:10500000006400402800002040380240000C0240AC
:105010000068004000040240704710B58AB00446A2
:1050200001AB03AA00212046FFF75FFC01AA03A9F8
:10503000204605F0F1FD0AB010BD704710B58AB0EA
:10504000044601AB03AA01212046FFF74EFC01AA4A
:1050500003A9204605F0E0FD0AB010BD704770B509
:10506000044694F82000012822D1022084F8200070
:105070002068006820F001002168086000F0D0FA84
:1050800005460DE000F0CCFA401B0A2808D9606AFA
:1050900040F400306062052084F82000012070BDDB
:1050A0002068406800F001000028EBD16062F6E75C
:1050B000606A40F4002060620120F0E770477047AA
:1050C000704770477047704770470000F8B5044656
:1050D000002000908C4800684FF41651B0FBF1F7A7
:1050E000A56D2E6894F85C1008208840304098B177
:1050F0002068006800F0040070B12068006820F0AB
:1051000004002168086094F85C1008208840A860BA
:10511000606D40F00100606594F85C1001208840EB
:10512000304068B12068406900F0800040B194F8D8
:105130005C1001208840A860606D40F0020060654E
:1051400094F85C1004208840304068B12068006802
:1051500000F0020040B194F85C1004208840A86080
:10516000606D40F00400606594F85C101020884089
:10517000304078B32068006800F0080050B394F81D
:105180005C1010208840A8602068006800F480202F
:1051900080B12068006800F4002028B9206CC8B1F4
:1051A0002046216C884715E0A06C98B12046A16C80
:1051B00088470FE02068006800F4807028B92068F4
:1051C000006820F0080021680860206C10B12046BB
:1051D000216C884794F85C102020884030400028DB
:1051E00065D02068006800F0100000285FD094F8B7
:1051F0005C1020208840A86094F83500052828D14C
:105200002068006820F01600216808602068406966
:1052100020F0800021684861206C08B9A06C28B19A
:105220002068006820F008002168086094F85C108D
:105230003F208840A860012084F8350000BF00208E
:1052400084F8340000BF206D10B12046216D8847DE
:10525000F8BD2068006800F4802080B120680068F4
:1052600000F4002028B9606C10B12046616C8847BA
:105270001DE0E06BD8B12046E16B884717E020685D
:10528000006800F4807068B92068006820F01000A1
:1052900021680860012084F8350000BF002084F8F0
:1052A000340000BFE06B10B12046E16B8847606DB1
:1052B00038B3606D00F00100F0B1052084F83500CE
:1052C0002068006820F001002168086000BF009895
:1052D000401C0090B84200D905E02068006800F04A
:1052E00001000028F3D100BF012084F8350000BF81
:1052F000002084F8340000BFE06C10B12046E16C5F
:10530000884700BFA4E70000380000202DE9F041E5
:105310000446002500F084F9074614B90120BDE8D1
:10532000F081606A00B100BF022084F8350000BF40
:10533000002084F8340000BF2068006820F00100DD
:10534000216808600AE000F06BF9C01B052805D948
:1053500020206065032084F83500E0E720680068BD
:1053600000F001000028EED12068056821480540C2
:10537000D4E901010843E1680843216908436169F0
:105380000843A1690843E1690843216A08430543CA
:10539000606A042803D1D4E90B010843054320685F
:1053A00005602068456925F00705606A0543606A65
:1053B00004280DD1A06A0543E06A48B12046FDF7F4
:1053C000BFFC28B140206065012084F83500A6E7C5
:1053D000206845612046FDF799FC064694F85C106C
:1053E0003F208840B06000206065012084F83500CF
:1053F000002094E73F8010F070B5044600F010F9EB
:1054000006462546681C10B104480078054400BFD4
:1054100000F006F9801BA842FAD370BD34000020CA
:10542000F8B502460B460025002400200021D6E0F6
:10543000012606FA01F51E6806EA0504AC4274D19D
:105440001E7906F00306012E04D01E7906F003062D
:10545000022E13D190684F000326BE40B0434F0088
:10546000DE68BE4030439060506801268E40B043F5
:105470001E79C6F300168E40304350601E7906F048
:105480000306032E09D0D0684F000326BE40B04368
:105490004F009E68BE403043D0601E7906F0030680
:1054A000022E13D1CF0802F1200656F827004E072E
:1054B000F70E0F26BE40B0434F07FF0E1E69BE40D9
:1054C0003043CF0802F1200646F8270010684F004D
:1054D0000326BE40B0431E7906F003064F00BE40CF
:1054E000304310605E6806F44036002E76D000BF70
:1054F000002600963C4E366846F480463A4F3E60A1
:105500003E46366806F48046009600BF00BF374E20
:105510008F0856F827008E07370F0F26BE40B0437E
:10552000334EB24202D1002624E057E0314EB2425F
:1055300001D101261EE0304EB24201D1022619E00F
:105540002E4EB24201D1032614E02D4EB24201D1BB
:1055500004260FE02B4EB24201D105260AE02A4E66
:10556000B24201D1062605E0284EB24201D10726FB
:1055700000E008268F073F0FBE4030431B4E8F08C8
:1055800046F82700224E3068A0435E6806F4801675
:1055900006B120431E4E3060361D3068A0435E6861
:1055A00006F4001606B12043194E361D3060184E21
:1055B000361F3068A0435E6806F4003606B120430B
:1055C000134E361F3060361F3068A0435E6806F405
:1055D000803606B120430E4E083E3060491C10292B
:1055E000FFF426AFF8BD00004438024008380140FF
:1055F000000002400004024000080240000C02408B
:10560000001002400014024000180240001C02403A
:10561000083C01400AB1816101E00B0483617047DD
:1056200001480068704700002C00002070B5044657
:105630000CB9012070BD94F83D0028B9002084F811
:105640003C00204600F0DAF8242084F83D00206871
:10565000006820F00100216808602068006840F4BC
:105660000040216808602068006820F4004021683C
:10567000086001F0A9F905465C496068884206D8CF
:105680005B48854201D2012007E0002005E059482F
:10569000854201D2012000E00020012800D1C9E7A5
:1056A0005548B5FBF0F62068406820F03F003043D5
:1056B000216848604D496068884201D8701C07E045
:1056C0004FF4967070434FF47A71B0FBF1F0401CC8
:1056D0002168096A21F03F010843216808624349B3
:1056E0006068884214D8681E61684900B0FBF1F018
:1056F000401CC0F30B00042801D204203DE0681ECA
:1057000061684900B0FBF1F0401CC0F30B0034E0CD
:10571000A06838B9681E616801EB4101B0FBF1F087
:10572000401C0AE0681E616801EBC10202EB011136
:10573000B0FBF1F0401C40F48040C0F30B0008B90E
:1057400001201AE0A06848B9681E616801EB4101B8
:10575000B0FBF1F0401CC0F30B000CE0681E616868
:1057600001EBC10202EB0111B0FBF1F0401CC0F3F0
:105770000B0040F4804040F400402168C9694CF6B9
:10578000FF72914308432168C861D4E907010843C7
:105790002168096821F0C001084321680860D4E944
:1057A000031008432168896848F2FF329143084397
:1057B00021688860D4E9050108432168C96821F09F
:1057C000FF0108432168C8602068006840F00100BC
:1057D0002168086000202064202084F83D0000201B
:1057E000206384F83E0000BF24E70000A08601008B
:1057F00080841E0000093D0040420F0010B586B0B5
:105800000446142101A8FAF721FF2A49206888429A
:105810004DD100BF002000902748006840F00400F0
:10582000254908600846006800F00400009000BFA9
:1058300000BF00BF002000900846006840F0010053
:1058400008600846006800F00100009000BF00BF3B
:10585000481501901220029001200390032004902B
:105860000420059001A91548FFF7DAFD4FF4807078
:105870000190122002900120039003200490042044
:10588000059001A90E48FFF7CBFD00BF0020009056
:1058900009481030006840F40000074910310860E2
:1058A0000846006800F40000009000BF00BF06B08A
:1058B00010BD0000005C004030380240000802408B
:1058C0000000024003480068034909780844014980
:1058D000086070472C0000203400002010B50D48EF
:1058E000006840F400700B4908600846006840F406
:1058F000806008600846006840F4807008600320FB
:1059000000F0B4F80F2000F007F800F02BF80020AA
:1059100010BD0000003C024070B504460E480078FF
:105920004FF47A71B1FBF0F00C490968B1FBF0F566
:10593000284601F043FD08B1012070BD102C07D2AC
:1059400000222146501E00F053F80548046001E093
:105950000120F2E70020F0E73400002038000020AA
:105960003000002008B500BF0020009015480068F6
:1059700040F48040134908600846006800F4804005
:10598000009000BF00BF00BF00200090081F00680B
:1059900040F08050091F08600846006800F0805001
:1059A000009000BF00BF00220F21901E00F020F8E1
:1059B00000220521084600F01BF8052000F004F83D
:1059C00008BD0000443802400146084600280DDBAF
:1059D00000BF00BF00F01F0301229A4043099B0053
:1059E00003F1E023C3F8002100BF00BF00BF7047F0
:1059F0002DE9F05F80460D46164600270BF000F8B3
:105A0000074639462A46334601F00700C0F1070A27
:105A1000BAF1040F02D94FF0040A01E0C0F1070AFD
:105A2000D14600F1040ABAF1070F02D24FF0000A82
:105A300001E0A0F1030AD4464FF0010A0AFA09FA7C
:105A4000AAF1010A0AEA020A0AFA0CFA4FF0010B5B
:105A50000BFA0CFBABF1010B0BEA030B4AEA0B044C
:105A6000214640460AF0D4FFBDE8F09F00BF00F099
:105A70000702064B19684FF6FF031940044B0B430E
:105A800043EA0221014B196000BF70470CED00E0B2
:105A90000000FA0570470246106841620020704716
:105AA000F0B5034615461868446A21B944EA054032
:105AB0001E68B06219E01868806A04EB1044002286
:105AC00008E0186800F5827050F8220004EB1044DA
:105AD000501CC2B2481E9042F3D844EA05471868E9
