:020000040800F2
:10000000C0EA002031030008F9B40008B17D0008FF
:1000100059AC0008A9180008FD0401080000000000
:100020000000000000000000000000007102000855
:10003000C533000800000000CD02000825D00008EC
:100040004B0300084B0300084B0300084B03000858
:100050004B03000825C200084B0300084B030008AF
:100060004B0300084B0300084B0300084B03000838
:10007000252D00084B0300084B0300084B03000824
:100080004B0300084B0300084B030008CD18000881
:10009000AD180008BD1800084B0300084B0300080A
:1000A0004B0300084B0300084B0300084B030008F8
:1000B0004B0300084B0300084B0300084B030008E8
:1000C0004B0300084B0300084B0300084B030008D8
:1000D0004B0300084B0300084B03000861DB0008DA
:1000E0004B0300084B0300084B0300084B030008B8
:1000F0004B0300084B0300084B0300084B030008A8
:100100004B0300084B0300084B0300084B03000897
:100110004B0300084B0300084B0300084B03000887
:10012000352D00084B0300084B030008452D00083F
:100130004B0300084B0300084B030008FD180008A0
:10014000DD180008ED1800084B03000815B700087B
:100150004B0300084B0300084B0300084B03000847
:100160004B0300084B0300084B0300084B03000837
:100170004B0300084B0300084B030008000000007D
:100180004B0300084B03000800F002F800F060F891
:100190000AA090E8000C82448344AAF10107DA45E2
:1001A00001D100F055F8AFF2090EBAE80F0013F0D4
:1001B000010F18BFFB1A43F001031847445A01000E
:1001C000645A01000A444FF0000C10F8013B13F090
:1001D000070408BF10F8014B1D1108BF10F8015BA0
:1001E000641E05D010F8016B641E01F8016BF9D193
:1001F00013F0080F1EBF10F8014BAD1C0C1B09D1EA
:100200006D1E58BF01F801CBFAD505E014F8016B5B
:1002100001F8016B6D1EF9D59142D6D370470000ED
:100220000023002400250026103A28BF78C1FBD8FF
:10023000520728BF30C148BF0B6070471FB514F08C
:100240000CFE9DE8030000F047FA1FBD10B510BD7D
:1002500000F0AEFA1146FFF7F1FF11F0CDFE00F00D
:10026000CCFA03B4FFF7F2FF03BC00F0FDFA000084
:100270002C4B19680868B0E8F04F80F30988BFF389
:100280006F8F4FF0000080F311887047000000006E
:1002900008480068006880F308884FF0000080F389
:1002A000148862B661B6BFF34F8FBFF36F8F00DF64
:1002B00000BF00BF08ED00E0DFF80C00016841F46A
:1002C00070010160704700BF88ED00E0EFF3098026
:1002D000BFF36F8F134B1A681EF0100F08BF20ED8D
:1002E000108A20E9F04F106009B44FF0500080F3FD
:1002F0001188BFF34F8FBFF36F8F13F091F84FF05A
:10030000000080F3118809BC19680868B0E8F04F54
:100310001EF0100F08BFB0EC108A80F30988BFF3FD
:100320006F8F70473C000020EFF30580704700009E
:100330000948804709480047FEE7FEE7FEE7FEE779
:10034000FEE7FEE7FEE7FEE7FEE7FEE704480549B5
:10035000054A064B70470000EDD0000889010008EF
:10036000C0AA0020C0EA0020C0CA0020C0CA0020E5
:1003700070B5064600F094F9056806F10B0020F010
:100380000704B4429CBF002070BD2B466A68BAB116
:100390001068A04210D304F1080188423CBF5068A5
:1003A000586007D35168101941601168091B01603A
:1003B00058601460101D70BD13465268002AE7D1C2
:1003C0002146284600F074F90028DED170BD70B5D2
:1003D0000446051F00F064F90068002C14BF44684F
:1003E00070BD002C18BFAC423CBF20466468F8D3F7
:1003F00001680A18AA4218BF456003D12A68054659
:100400001144016028684119A1421CBF6C6070BD95
:100410006168696021680844286070BD53EA020C75
:1004200000F069802DE9F04B4FF00006002B1FBF54
:10043000B3FA83F503FA05F424FA05F65E4012BF19
:100440001643B2FA82F502FA05F4C5F120051EBF83
:1004500022FA05FC44EA0C04203556EA044C4FEA23
:10046000144418BF641C4FF000084FF0000990427C
:1004700071EB030C39D3002919BFB1FA81F701FAE6
:1004800007F6B0FA80F700FA07F6C7F120071EBF9B
:1004900020FA07FC46EA0C062037B6FBF4FCA7EB73
:1004A0000507103F07F01F0BCBF120060CFA0BFBE2
:1004B0002CFA06F644BFB3460026202FA4BF5E46A2
:1004C0004FF0000B5BEA060C08BF4FF0010B19EB75
:1004D0000B09ABFB027C48EB0608C01B06FB02CCF9
:1004E0000BFB03CC71EB0C01C1E70B460246414606
:1004F0004846BDE8F08B13B54FF000004FF0000107
:10050000AFF30080BDE81C407047032A40F2308002
:1005100010F0030C00F0158011F8013BBCF1020F44
:10052000624498BF11F801CB00F8013B38BF11F8C5
:10053000013BA2F1040298BF00F801CB38BF00F8DC
:10054000013B11F0030300F02580083AC0F0088059
:1005500051F8043B083A51F804CBA0E80810F5E73D
:10056000121D5CBF51F8043B40F8043BAFF3008020
:10057000D20724BF11F8013B11F801CB48BF11F895
:10058000012B24BF00F8013B00F801CB48BF00F865
:10059000012B704710B5203AC0F00B80B1E818501D
:1005A000203AA0E81850B1E81850A0E81850BFF45D
:1005B000F5AF5FEA027C24BFB1E81850A0E81850FC
:1005C00044BF18C918C0BDE810405FEA827C24BF50
:1005D00051F8043B40F8043B08BF7047D20728BFDE
:1005E00031F8023B48BF11F8012B28BF20F8023B2D
:1005F00048BF00F8012B704702F0FF0343EA0322D3
:1006000042EA024200F002B84FF000020429C0F0B2
:10061000128010F0030C00F01B80CCF1040CBCF134
:10062000020F18BF00F8012BA8BF20F8022BA1EB86
:100630000C0100F00DB85FEAC17C24BF00F8012B6B
:1006400000F8012B48BF00F8012B70474FF0000263
:1006500000B5134694469646203922BFA0E80C50B8
:10066000A0E80C50B1F12001BFF4F7AF090728BF93
:10067000A0E80C5048BF0CC05DF804EB890028BF0F
:1006800040F8042B08BF704748BF20F8022B11F038
:10069000804F18BF00F8012B7047704770477047B4
:1006A0000048704764AA0020704770477047704741
:1006B00038B504460A4600206946AFF3008000289A
:1006C00008BF38BD02460099204600F04FF80120CF
:1006D00038BD012000F064B8F8B5AFF300800546DE
:1006E00000200C46102000BF0646A819A0420DD9D4
:1006F000324669460020AFF30080070008BF00F0D3
:100700004FF80098A04218BF0546C419FFF7C8FF6C
:1007100005600746F01D20F007004619284600F046
:100720000AF8B44208BFF8BDA21B31463868BDE8DC
:10073000F84000F01BB800210160C0E901107047CB
:100740001020704710B500F00DF8006810BD10B50E
:10075000044600F007F8046010BD00000048704730
:100760005CAA0020004870475CAA0020034640684D
:100770008C46002818BF88423CBF03464068F8D327
:1007800018681844884207D00CF1030020F00700D5
:10079000001D411A521A0146081D0A60FFF717BED4
:1007A00010B500F039F8BDE8104000F02FB87047E0
:1007B0007546FFF7D3FFAE4605006946534620F065
:1007C0000700854618B020B5FFF7C0FDBDE8204002
:1007D0004FF000064FF000074FF000084FF0000BFD
:1007E00021F00701AC46ACE8C009ACE8C009ACE8B0
:1007F000C009ACE8C0098D46704710B50446AFF398
:1008000000802046BDE81040FFF72BBD002801D036
:1008100000F02AB87047000010B5012805D000216B
:1008200003A000F027F8012010BD09A1F8E700009F
:1008300053494752544D454D3A204F7574206F66C9
:100840002068656170206D656D6F72790000000031
:100850003A2048656170206D656D6F727920636F15
:10086000727275707465640001491820ABBEFEE7B2
:100870002600020070B505460C460A2000E06D1CFB
:1008800000F011F835B128780028F8D102E0641C96
:1008900000F009F814B120780028F8D1BDE87040C4
:1008A0000A20AFF3008008B569468DF800000320E8
:1008B000ABBE08BDF0B581B04FF68311C3F622611F
:1008C00014F07CFA4FF07A5114F09BF9044614F0BE
:1008D000F9F9054620460021002714F0BEF900284A
:1008E00018BF013D284614F0FBF90146204614F0DC
:1008F000BEFA4FF0884114F061FA054614F0E9F9A8
:10090000044628464FF0444114F07BF90646B7EB05
:10091000542F0CBF2E460024204614F018FA01462E
:10092000304614F0A4FA05464FF07E50294614F0E4
:100930009EFA45F2FC37C0F6010757F8241014F070
:100940003DFA064607EB84004168284614F036FA63
:100950000146304614F055F901B0F0BD2DE9F041E3
:1009600003880F88BB423FD147884E88B7423BD1AE
:100970001688B34238D15688B74235D14668546894
:100980004D6807FB03F80020B0EB980F1BD04FEA2F
:10099000980047423068296814F033F92060706885
:1009A000696814F02EF96060B068A96814F029F93C
:1009B000A060F068E96814F024F9E06010341035A4
:1009C00010360137E6D118F003000BD0474200BFC4
:1009D00056F8040B55F8041B14F013F944F8040BF3
:1009E0000137F5D1002000E0FD2040B2BDE8F081E4
:1009F00043604280018070472DE9F04F93B0B0F81A
:100A000002A0B0F800B0D34540F05D810A88FD2512
:100A1000934540F059814B889A4240F05581476890
:100A2000BBF1000F00F039814C686FF003000197B3
:100A300000274FF07E585E46CDF820A000EB8B09D2
:100A400020460494BBEB060008D0B9002046FFF70F
:100A5000FDFD0020013004348742FBD104F1040A7B
:100A6000751EC4F800800FD0A9EB87015046FFF730
:100A7000EDFD0120544600BF013004348642FBD115
:100A80000137002D2E46DDD1019FDDF820A0BBF1FE
:100A9000000F00F00281042007EB8A023C1DABF13D
:100AA00001080021CDF824A0CDF81CB000EB8A008D
:100AB0000290CAF100000B904FEA8A00129000BF2A
:100AC000594580F0058101FB0AF0109104990597C2
:100AD000002593460392CDF8188057F8209001EB3B
:100AE000800107EB80004F460E910D9008E000BF9B
:100AF0001298DBF80070A8F1010835465844834687
:100B00003846002114F0A2F840B93846294614F0BE
:100B10008FF800283E4608D008E000BF87F0004666
:100B20002846314614F099F800B92E46B8F1000F66
:100B3000DED13046002114F06DF8002840F0C88066
:100B400029F00040314614F065F8DDE9062140B98E
:100B50001098C043401804D0002000BF01308242EA
:100B6000FCD14846002114F055F8099E002840F0B9
:100B7000AF800D994FF07E500F9408601098AAEB4B
:100B80000001012908460C910BD00F9D012400BFE4
:100B90002868494614F074F8013445F8040BA6425D
:100BA000F6D10B9C0E9D00BF2868494614F068F8EA
:100BB00045F8040B0134F7D10C98DDF81C804FF098
:100BC000000B01380A90DDE90465DDE90F4100BF43
:100BD0008B4505D10C9806EB8A0605EB80053CE0B9
:100BE0000D98D5F800900168484614F0E7F80146E2
:100BF000484614F03CF945F8040B0A98E0B1CDF8EA
:100C00004480DDF8248001274FF0000A54F80A10D0
:100C1000484614F0D3F8014655F80A0014F027F9B5
:100C2000013745F80A000AF1040AB845EED15544E7
:100C3000DDF820A0DDF844800B9F0E9C54F8041BC7
:100C4000484614F0BBF80146306814F010F946F835
:100C5000040B0137F2D1DDE90F4105EB81050BF102
:100C6000010BB8F10108B3D10298039ADDF818809E
:100C7000059FDDF81CB00131044402440998A8F135
:100C800001080437013809907FF41AAF4846002163
:100C9000002513F0BFFF019FB0B10AFB0BF5002444
:100CA000002645B13868002113F0B4FF18B10136B1
:100CB0000437AE42F6D3AE4208BF6FF004042046BC
:100CC00013B0BDE8F08FFD2568B213B0BDE8F08F1A
:100CD000FB25F9E72DE9F04F91B047880B889F423B
:100CE00040F0AF80068813889E4240F0AA804D886D
:100CF00053889D4240F0A58052684FF00009496832
:100D00004FEA850805960497039502924268A9EB7D
:100D100097000191079027F0030002EB80000C92EE
:100D20000990B8080B90684301EB00102946009029
:100D300007F003000A904042069000BF029800EBC3
:100D4000890ADDE9000BCDF8209010900B980F91E7
:100D5000002847D0CDF838A0CDF834B0D946DDF81A
:100D60001CA0DDF830B000249BE8C100D9F80010C9
:100D7000DBF80C5014F022F80146204613F041FF36
:100D800059F808100446304614F018F80146204679
:100D900013F037FF09EB08060446384656F80810EA
:100DA00014F00CF80146204613F02BFF464404468D
:100DB000284656F8081014F001F80146204613F0B2
:100DC00020FF044606EB08000BF1100B1AF1010A94
:100DD00000EB0809C8D1109DDDE90896DDE90DBAE0
:100DE00003E000BF0C9E00245D460A9868B1069F90
:100DF00056F8040B296813F0E1FF0146204613F072
:100E000000FF044645440137F2D110980F994AF883
:100E1000044B0BF1040B04300139109096D1049867
:100E2000099901EB800109910C9901EB800105986A
:100E30000C9103990138894405907FF47FAF00201D
:100E400000E0FD2040B211B0BDE8F08F2DE9F04187
:100E500003880F88BB423FD147884E88B7423BD1B9
:100E60001688B34238D15688B74235D1466854689F
:100E70004D6807FB03F80020B0EB980F1BD04FEA3A
:100E8000980047423068296813F0F1FF20607068CD
:100E9000696813F0ECFF6060B068A96813F0E7FFC1
:100EA000A060F068E96813F0E2FFE06010341035EC
:100EB00010360137E6D118F003000BD0474200BFCF
:100EC00056F8040B55F8041B13F0D1FF44F8040B3B
:100ED0000137F5D1002000E0FD2040B2BDE8F081EF
:100EE0002DE9F04F82B0B0F800E04B889E454BD121
:100EF00044880B889C4247D100234E6804F0030BC2
:100F000040684FEA0E184FEA940AA3EB9401CBF124
:100F1000000901914FEA8E0132460096BAF1000FA6
:100F20001CD0019F344600BF2546046801372C6061
:100F300044686C5005EB0104D0F808C044F801C0C7
:100F40000C44C26800F11000625004EB010202EB95
:100F50000104E9D105EB080703E000BF009A02EBAA
:100F60008307BBF1000F07D04D4600BF50F8042B9C
:100F700001353A600F44F9D10436BEF1010E03F198
:100F80000103CBD1002000E0FD2040B202B0BDE85B
:100F9000F08FF0B581B04FF68311C3F6226113F0E4
:100FA0000DFF044613F08EFE054620460021002763
:100FB00013F053FE002818BF013D284613F090FEA1
:100FC0000146204613F053FF4FF0884113F0F6FE20
:100FD000054613F07EFE044628464FF0444113F0C8
:100FE00010FE0646B7EB542F0CBF2E4600242046B9
:100FF00013F0ADFE0146304613F039FF05464FF0C1
:101000007E50294613F033FF45F2FC37C0F6010746
:1010100057F8241013F0D2FE064607EB840041680F
:10102000284613F0CBFE0146304613F0EAFD01B02E
:10103000F0BD000008B500BF4FF4FA6012F0A6F84A
:101040000B4802F0A3F8012012F0A0F80FE012F014
:10105000A3FE0090064802F099F805480C3880ED90
:10106000040A10F017FF0421684612F0BDF8EEE7FD
:10107000AC75002070B505460C4600260DB1022C5B
:1010800000D870BD611EFF22284602F045FC0646CE
:10109000601E2E5400BFF4E710B501221021024853
:1010A00004F0DAFA10BD00000000024010B5002282
:1010B0001021024804F0D0FA10BD000000000240E8
:1010C00010B501221146024804F0C6FA10BD000016
:1010D0000004024010B500220121024804F0BCFACD
:1010E00010BD00000004024010B50446FFF7DEFF0B
:1010F000922000F0A5F906229549122000F080F90F
:10110000FFF7CAFF92484078000200B29049097880
:101110000843904908800846B0F9000000EE100A24
:10112000B8EEC00A8C48D0ED000A20EE200AD4EDBB
:10113000080A20EE200A84ED000A8548C0780002E3
:1011400000B2834989780843824908800846B0F98B
:10115000000000EE100AB8EEC00A7F48D0ED000A89
:1011600020EE200AD4ED080A20EE200A84ED010AC0
:1011700077484079000200B27549097908437549FA
:1011800008800846B0F9000000EE100AB8EEC00A68
:101190007148D0ED000A20EE200AD4ED080A20EEB6
:1011A000200A84ED020AFFF795FF08226849002013
:1011B00000F026F9FFF784FF654800780F284FD12B
:1011C00066480078F0B36248C078000200B2604917
:1011D000897808435F49088094ED090A0846B0F908
:1011E000000000EE900AF8EEE00A5D4890ED001A6B
:1011F00010EE810A84ED030A55484079000200B2DE
:101200005349097908435349088094ED0A0A08466E
:10121000B0F9000000EE900AF8EEE00A504890EDB8
:10122000001A10EE810A84ED040A4948C0790002D0
:1012300000B24749897908434649088094ED0B0A72
:10124000084600E00DE0B0F9000000EE900AF8EE6C
:10125000E00A434890ED001A10EE810A84ED050A79
:1012600044E03B48C078000200B23949897808431D
:10127000384908800846B0F9000000EE100AB8EEC0
:10128000C00A3748D0ED000A20EE200A84ED030A98
:101290002F484079000200B22D49097908432D49B1
:1012A00008800846B0F9000000EE100AB8EEC00A47
:1012B0002B48D0ED000A20EE200A84ED040A2448D1
:1012C000C079000200B22249897908432149088087
:1012D0000846B0F9000000EE100AB8EEC00A204837
:1012E000D0ED000A20EE200A84ED050AFFF7DEFEAD
:1012F000A22000F0A5F802221549222000F080F873
:10130000FFF7CAFE12480078C0001149497840EA48
:101310006110104908800846B0F90000B0F5806FF0
:1013200005DB08460088A0F5006000B20880094887
:10133000B0F9000000EE100AF8EEC00AB4EE001A90
:10134000B3EE070A00EE810A84ED070A10BD000023
:10135000160600201E060020D4050020E40500200B
:10136000D805002070B504460D461C4804600020D6
:101370001B49087010F006F9194909780843184903
:10138000087010F0B5F91649097808431449087037
:101390001DB1144800F02AFB1CE09FED130A114810
:1013A00080ED090A9FED110A80ED0A0A9FED100AEF
:1013B00080ED0B0A9FED0F0A80ED0C0A90ED0C0AF0
:1013C000DFED0D0A80EE801A80ED081A9FED0B0A02
:1013D00080ED060A0248007870BD0000E805002094
:1013E000DE050020FCA50020D978A83AA279E4BB4C
:1013F0004A177E3A4D271C41C3F51C4100000F429D
:1014000070B506460C46154646F0800000F018F808
:1014100006E0552000F014F82070641C681EC5B268
:10142000002DF6D170BD70B504460D4644F0800025
:1014300000F006F8552000F003F8287070BD000099
:1014400001B582B04FF47A70012301AA02A900907D
:10145000024805F0B1FE9DF804000EBD240E0020E8
:1014600070B505460C462846FFF7EAFF2046FFF711
:10147000E7FF70BD10B52DED108B5C4890ED0A0AAA
:1014800010EE101A084613F091FB41EC1E0B9FED75
:10149000580B53EC102B13F05FF941EC1C0B534825
:1014A00090ED0B0A10EE101A084613F07FFB41EC8A
:1014B0001D0B53EC1C2B12F007FF41EC1A0B4E488E
:1014C00090EDE00A10EE101A084613F06FFB41ECA5
:1014D0001B0B53EC1A2B13F07FFA41EC190B12F093
:1014E000C1FE00EE100AB0EEC00A10EE104A20460F
:1014F00013F05CFB41EC1D0B9FED400B53EC102BEC
:1015000013F02AF941EC1B0B204613F04FFB41EC82
:101510001D0B204613F04AFB41EC1F0B9FED390BCE
:1015200053EC102B13F018F941EC1E0B53EC1D2B50
:1015300013F012F941EC1C0B53EC1B2B13F04CFA7B
:1015400041EC1A0B9FED310B53EC102B12F0BCFE4B
:1015500041EC190B12F086FE08EE100AB6EE000AF6
:10156000B4EEC08AF1EE10FA02D8B6EE000A0BE033
:10157000B7EE000AB4EEC08AF1EE10FA02DBB7EE65
:10158000000A01E0B0EE480AB0EE408A174890ED3C
:101590000A0A10EE101A084613F008FB41EC1C0B67
:1015A0009FED130B53EC102B13F0D6F841EC1A0BF4
:1015B0000E4890ED0B0A10EE101A084613F0F6FADA
:1015C00041EC1B0B53EC1A2B12F07EFE41EC190B75
:1015D00012F048FE08EE900AF0EE480AB0EE680AF3
:1015E0000C4810F073FCBDEC108B10BDF083002094
:1015F000333333333333E33FC07F00209278793A7B
:101600005794423FE59E09A8CBBD3BBF000000C0F8
:101610009DEFEF3F4083002010B50748D0F80D0B39
:1016200000EE100ADFED050A05480FF0C1F9054884
:1016300080ED000A10BD0000C07700200000B44318
:10164000288400202C0400202348D0ED060AF0EE68
:10165000E00AB7EE001AF4EEC10AF1EE10FA1ED25B
:1016600000F55670D0ED060AF0EEE00AB7EE001A6B
:10167000F4EEC10AF1EE10FA11D2184890F83100D8
:1016800068B9164890F8300048B11548D0EDF10A15
:101690009FED141A70EEC10A1348C0ED000A0F48FE
:1016A000D0ED010A9FED111AC0EE811ADFED100A8C
:1016B00021EEA00AD0ED010A70EE800AC0ED0B0AFF
:1016C0000748D0EDF10A9FED071A70EEC10A0348F2
:1016D000C0ED0A0A70470000307D0020F083002032
:1016E000C077002000000000340400200000B44354
:1016F00085EB4140D2ED020A92ED021AB6EE000AE5
:1017000000EEC10AD2ED030A92ED031A00EEC10AFF
:10171000D0ED000A20EE200AD2ED010A92ED021A65
:1017200060EE810A92ED001AD2ED031A41EE610AD1
:1017300090ED011A00EE810AD2ED010A92ED031A32
:1017400060EE810A92ED001AD2ED021A41EE210AF2
:1017500090ED021A00EE810AF0EE000A20EE200A57
:1017600081ED000A92ED010AD2ED020A20EE200A74
:10177000D2ED000A92ED031A00EE810AD0ED000AC4
:1017800060EE200A92ED011AD2ED011AB6EE000ABF
:1017900001EE610AD2ED031A92ED032AB0EE401A6F
:1017A00001EEC21AD0ED011AB0EE600A01EE210A74
:1017B000D2ED020A92ED031A60EE810A92ED001A50
:1017C000D2ED011A41EE610A90ED021A00EE810A93
:1017D000F0EE000A20EE200A81ED010A92ED010AE6
:1017E000D2ED030A20EE200AD2ED000A92ED021A91
:1017F00000EEC10AD0ED000A20EE200AD2ED020A66
:1018000092ED031A60EE810A92ED001AD2ED011AF0
:1018100041EE210A90ED011A00EE810A92ED011AC3
:10182000D2ED011AF6EE000A41EE610A92ED021ABB
:10183000D2ED021A41EE610A90ED021A00EE810A21
:10184000F0EE000A20EE200A81ED020A7047000047
:1018500010B504F065F80BF0EFFB08F0B7FE08F0E8
:101860002DFE09F071F809F04FF909F04FF808F072
:10187000E1FD09F0C3F809F08BF808F0FDFD09F06F
:10188000A5F909F0C3F9A82001F0F8FC0FF0DAFF80
:1018900009F0E8F8034805F0B7FE0821014806F012
:1018A000BDF810BD840F002000BFFEE710B5024850
:1018B00003F022F910BD0000800D002010B5024891
:1018C00003F01AF910BD0000800D002010B5024889
:1018D00003F012F910BD0000800D002010B5024881
:1018E00003F00AF910BD0000A80D002010B5024851
:1018F00003F002F910BD0000A80D002010B5024849
:1019000003F0FAF810BD0000A80D00200346042BD8
:1019100015D007DC7BB1012B0ED0022B0DD0032B91
:1019200012D10BE0202B0BD0212B0AD0222B09D077
:10193000232B09D107E008E007E006E005E004E01A
:1019400003E002E001E000E000BF00BF00207047BC
:101950000020704710B50022044905480CF029FC0E
:10196000044903480CF016FC002010BDEC94002044
:10197000108A0020EC8C002070B504460D462146EC
:1019800007482A68FEF7C1FD05480AF093F821468A
:1019900004480CF0FFFB03480CF0C8FB002070BDAE
:1019A0003C840020108A002010B503460C4600211C
:1019B000084610BD2DE9F04104460D4600260A48B0
:1019C000D0F8BC72D7F8140210B10120BDE8F08144
:1019D0002A46214604480CF0ECFB03480CF09CFC22
:1019E00006463046F2E70000108A002070B52DED63
:1019F000048B88B0044600200690079001F0ECFBB1
:101A0000FE4880ED000A00BF01F0E6FBFB48D0ED88
:101A1000000A30EE600AF2EE040AB4EEE00AF1EEDB
:101A200010FA14DD9FEDF60A84ED090A9FEDF50A20
:101A300084ED0A0A9FEDF40A84ED0B0A9FEDF30A88
:101A400084ED0C0A9FEDF20A84ED060A57E29FED41
:101A5000F10A01F07DFB9FEDF00A84ED0C0A9FED89
:101A6000EE0A84ED090A9FEDEC0A84ED0A0A9FED67
:101A7000EA0A84ED0B0A002673E1FFF717FB9220B8
:101A8000FFF7DEFC062206A91220FFF7B9FCFFF7DC
:101A900003FB9DF81900000200B29DF8181040EAFF
:101AA000010500EE105AB8EEC00ADC48D0ED000A7D
:101AB00020EE200A84ED000A9DF81B00000200B20F
:101AC0009DF81A1040EA010500EE105AB8EEC00A5F
:101AD000D248D0ED000A20EE200A84ED010A9DF8DC
:101AE0001D00000200B29DF81C1040EA010500EE46
:101AF000105AB8EEC00AC948D0ED000A20EE200AFC
:101B000084ED020AD4ED000A60EEA00A94ED011AF9
:101B1000D4ED011A41EE210A94ED021AD4ED021A15
:101B200041EE210AB0EE600A0FF0A4FBB0EE408A4D
:101B300094ED0C0A30EE080A84ED0C0AFFF7CAFA9D
:101B4000082206A90020FFF75BFCFFF7B9FA9DF811
:101B500018000F2850D19DF81B00000200B29DF81C
:101B60001A1040EA010500EE105AB8EEC00AAC485F
:101B7000D0ED000A20EE200A84ED030A94ED090A54
:101B8000D4ED030A30EE200A84ED090A9DF81D0009
:101B9000000200B29DF81C1040EA010500EE105A48
:101BA000B8EEC00A9E48D0ED000A20EE200A84ED6F
:101BB000040A94ED0A0AD4ED040A30EE200A84EDFA
:101BC0000A0A9DF81F00000200B29DF81E1040EAAC
:101BD000010500EE105AB8EEC00A9148D0ED000A97
:101BE00020EE200A84ED050A94ED0B0AD4ED050AD7
:101BF00030EE200A84ED0B0A06BBF0EE488AB0EE08
:101C0000489A002017E004F10C0101EB800191EDEE
:101C1000000A03A901EB800181ED000A04F10C0127
:101C200001EB800191ED000A694601EB800181ED35
:101C3000000A411CC8B20328E5DB49E0B4EEE88A9B
:101C4000F1EE10FA01DDF0EE488AB4EEC98AF1EE49
:101C500010FA01D2B0EE489A002037E004F10C01EE
:101C600001EB800191ED000A03A901EB8001D1EDA8
:101C7000000AB4EEE00AF1EE10FA0ADD04F10C01FC
:101C800001EB800191ED000A03A901EB800181EDD8
:101C9000000A04F10C0101EB800191ED000A694694
:101CA00001EB8001D1ED000AB4EEE00AF1EE10FA8A
:101CB0000AD204F10C0101EB800191ED000A6946A2
:101CC00001EB800181ED000A411CC8B20328C5DB8D
:101CD00038EEC90A534880ED000A002012E003A93B
:101CE00001EB800191ED000A694601EB8001D1ED25
:101CF000000A30EE600A4C4901EB800181ED000AD8
:101D0000411CC8B20328EADB464890ED000AF6EE13
:101D1000000AB4EEE00AF1EE10FA1BDC424890ED46
:101D2000000ADFED420AB4EEE00AF1EE10FA11DC2F
:101D300090ED010ADFED3D0AB4EEE00AF1EE10FA93
:101D400008DC90ED020ADFED390AB4EEE00AF1EEAC
:101D500010FA00DD0AE09FED360A01F0F9F9701C77
:101D600086B2344800888642FFF687AE00BFD4EDC5
:101D70000C0A3048008800EE100AB8EE400A80EEE7
:101D8000801A84ED0C1A002015E004F1240101EB07
:101D90008001D1ED000A2749098800EE101AB8EE3B
:101DA000400A80EE801A04F1240101EB800181EDEC
:101DB000001A411CC8B20328E7DBFFF777F9A2201D
:101DC000FFF73EFB022206A92220FFF719FBFFF7CF
:101DD00063F99DF81800C0009DF8191040EA6115DC
:101DE000B5F5806F02DBA5F5006005B200EE105A74
:101DF000F8EEC00AB4EE001A1EE000001006002043
:101E0000D978A83AA279E4BB4A177E3A4D271C41FB
:101E100000000F420AD7A33B00000000D4050020B9
:101E2000D8050020E0050020F0A500209A99193E71
:101E30006F12033A14060020B3EE070A00EE810A7F
:101E400084ED060A34480088401C00B232490880FC
:101E5000324890ED000ADFED320AB4EEE00AF1EE0E
:101E600010FA3FF7D1AD94ED0C0ADFED2E0A30EEFB
:101E7000600AB0EEC00AF6EE000AB4EEE00AF1EE37
:101E800010FAEEDC284890ED000A5FED180AB4EE77
:101E9000E00AF1EE10FAE4DC90ED010A5FED1D0AB4
:101EA000B4EEE00AF1EE10FADBDC90ED020A5FED31
:101EB000210AB4EEE00AF1EE10FAD2DC94ED090A40
:101EC000B0EEC00ADFED190AB4EEE00AF1EE10FA46
:101ED000C7DC94ED0A0AB0EEC00ADFED140AB4EED6
:101EE000E00AF1EE10FABCDC94ED0B0AB0EEC00A89
:101EF000DFED0E0AB4EEE00AF1EE10FAB1DC00BF3D
:101F000094ED0C0ADFED0A0A80EE801A84ED081ABF
:101F100008B0BDEC048B70BDE6050020E005002094
:101F2000CDCC4C3FCDCC1C41F0A500200AD7233CA2
:101F3000C3F51C412DE9F0472DED028B82B082469E
:101F40000D4616461C46DDF8309001F073F9074641
:101F500012F0CDFE08EE100A1CE001F06BF9074606
:101F600012F0C5FE00EE100A30EE480ADFED1E0A40
:101F7000B4EEE00AF1EE10FA0CDD1C48D0F8D40003
:101F8000401C1A49C1F8D400002002B0BDEC028BFD
:101F9000BDE8F087504602F094FD0028DDD001F046
:101FA00049F9074612F0A3FE00EE100A30EE480A87
:101FB000BCEEC00A89ED000A26600020A060E06047
:101FC0000820206101AB2A462146504602F077FBEB
:101FD00040B10648D0F8D400401C0449C1F8D400F0
:101FE0000020D2E70120D0E700004843ECA8002001
:101FF0001CB500BF41F2883011F0C8F824E011F0A0
:10200000CBFE01901149086800EBD0714910A0EB9C
:10201000410181B90AF058F80D480E490A6802607A
:10202000496841600C480D4B4FF4A8720849009074
:102030000B48FFF77FFF05480068401C0349086014
:10204000012101A811F0D0F8D9E7000028060020EE
:1020500030A600201C0400202006002040A60020FE
:10206000800D00202DE9F0412DED028B84B08046DB
:1020700000260027FE48007D042806D110F0CEFD82
:1020800004B0BDEC028BBDE8F081FA48B0F8150051
:10209000032803D000200FF026FF80E2F548B0F8B7
:1020A000170001280ED110F0F3FD012010F0CAFD39
:1020B000032010F0FFFDEF48C07808BB012010F0AE
:1020C000DDFD1DE0EB48B0F8170003280CD101201E
:1020D00010F0DEFD012010F0B5FD032010F0EAFD48
:1020E000012010F0CBFD0BE0012010F0D1FD01200C
:1020F00010F0A8FD002010F0DDFD012010F0BEFD65
:1021000000200AF0A9FC002010F0DEFDD948B0F84C
:102110004F000390D748B0F85100D649B1F84F109E
:102120004840D449B1F84F100840D249A1F85300B3
:102130000846B0F85100B1F84F104840CD49B1F809
:1021400051100840CB49A1F85500BDF80C10C94802
:10215000A0F851109FEDC88ADFEDC78A01241FE166
:10216000BDF80C0000EA0405B5F5807F37D012DC1D
:10217000102D2AD008DC012D51D0022D48D0042D7D
:102180003FD0082D52D135E0202D22D0402D24D033
:10219000802D4BD122E0B5F5805F28D009DCB5F564
:1021A000007F1ED0B5F5806F1CD0B5F5006F3DD116
:1021B0001CE0B5F5005F1BD0B5F5804F03D0B5F539
:1021C000004F33D133E0012731E0012010F07CFDD6
:1021D0002DE0032010F036FD29E028E027E001265D
:1021E00025E024E001200AF037FC20E01FE01EE09B
:1021F00001271CE0B7EE000A38EE000AB0EE408A74
:1022000015E0B7EE000A38EE400AB0EE408A0EE064
:10221000B7EE000A38EEC00AF0EE408A07E0B7EEEB
:10222000000A38EE800AF0EE408A00E000BF00BFEE
:102230009048B0F8530000EA0405B5F5807F3BD024
:1022400012DC102D29D008DC012D4ED0022D4BD0F0
:10225000042D48D0082D49D144E0202D1ED0402D1A
:102260001DD0802D42D126E0B5F5805F30D009DC4D
:10227000B5F5007F21D0B5F5806F1FD0B5F5006FA3
:1022800034D11CE0B5F5005F2BD0B5F5804F03D0FD
:10229000B5F5004F2AD12AE029E028E027E075486B
:1022A000C07A012803D100207249C87202E00120DF
:1022B0007049C8721BE01AE019E018E017E01EB17F
:1022C000052010F0DBFC02E0012010F0D7FC0EE04E
:1022D0001EB1062010F0D2FC02E0012010F0CEFC6E
:1022E00005E004E003E002E001E000E000BF00BF21
:1022F0006048B0F8550000EA0405B5F5807F3FD08E
:1023000012DC102D29D008DC012D42D0022D3FD047
:10231000042D3CD0082D3DD138E0202D1ED0402D7D
:1023200023D0802D36D121E0B5F5805F2CD009DC9B
:10233000B5F5007F25D0B5F5806F23D0B5F5006FDA
:1023400028D120E0B5F5005F1FD0B5F5804F03D050
:10235000B5F5004F1ED11EE01DE01CE04748808A05
:10236000401C00B24549888215E014E0444890EDD5
:10237000E10ADFED440A30EE200A80EDE10A0AE0CE
:1023800009E008E007E006E005E004E003E002E021
:1023900001E000E000BF00BF4FF6FF7000EA440418
:1023A000002C3FF7DDAE354880ED008AC0ED018A94
:1023B0003048007A032818D1B7EE000A2F4880ED84
:1023C000020A0146B1F9140000EBD0714910A0EBEC
:1023D000410101290ED1294890ED020AFFEE000AC1
:1023E00020EE200A80ED020A04E09FED230A234834
:1023F00080ED020A57B1022010F024FC22488078B8
:1024000020F00100401C2049887005E01E488078BB
:1024100020F001001C4988701648C078012803D0BC
:102420001448C078032845D1154890EDE10A1148B9
:10243000B0F9410000EE900AF8EEE00A9FED131AA1
:1024400000EEC10A0E4880EDE10AA0F5006090EDB3
:10245000FE0A0848B0F9430000EE900AF8EEE00AE0
:102460009FED0A1A00EEC10A094880EDFE0A11E04C
:10247000D0A800207185002000000000A075002079
:10248000C07F0020000034431C0400200AD7A33B77
:10249000C077002090EDFE0A4248B0F9450000EEFA
:1024A000900AF8EEE00A9FED401A00EEC10A3F489C
:1024B00080EDFE0A3B4890F847000290394890F8BA
:1024C00049009DF8081048409DF808100140354823
:1024D00080F84B1090F849009DF8081048403149A9
:1024E00091F8491001402F4880F84C109DF80810D1
:1024F00080F849109DF8080020B101202C4981F88E
:10250000A00103E000202A4981F8A001254890F8A5
:102510004B0018B10120234981F85800214890F858
:10252000480001901F4890F84A009DF80410484068
:102530009DF8041001401B4880F84D1090F84A00A7
:102540009DF804104840174991F84A100140154879
:1025500080F84E109DF8041080F84A109DF8040091
:1025600030B11048C078012802D1022010F086FB5B
:102570000C4890F84E0030B10A48C078022802D1C9
:10258000012010F07BFB0B48407D062806D109484E
:10259000807D082802D1002010F070FB00BF00BF32
:1025A0006EE50000718500206F12833AC07700202D
:1025B000D0850020D0A8002070B504460025FE4834
:1025C000B0F8170001287DD0022802D003287AD164
:1025D00044E1F948B0F81500012875D0022802D06E
:1025E000032872D107E010F019FB0020F3490860BE
:1025F000F349086030E1012010F04AFB032010F09D
:1026000021FB002010F056FB012010F037FB0020CA
:1026100010F05AFBE848B0F81100A0F5806000EE19
:10262000100AB8EEC00ADFEDE70A20EE200A9FED9F
:10263000E61AC0EE010A94ED041AE44890EDE10AAE
:1026400000EEC10A80EDE10ADB48B0F81100A0F508
:10265000806000EE100AB8EEC00ADFEDDA0A20EE64
:10266000200A9FEDD91AC0EE010A94ED041AD7484A
:1026700090EDE00A00EEC10A80EDE00ACE48B0F825
:102680001300A0F5806000EE100AB8EEC00ADFED7E
:10269000D00A20EE200A9FEDCC1AC0EE010A94ED7C
:1026A000041ACC4890EDFE0A00EE810A80EDFE0A85
:1026B000C148B0F80F00A0F5806000EE100AB8EE37
:1026C000C00A03E04BE112E32CE0BDE0F7EE000AA4
:1026D00020EE200ADFEDBC0A80EE201AB0EE080AD8
:1026E00021EE000ABC4880ED000AB348B0F80D00A6
:1026F000A0F5806000EE100AB8EEC00AF7EE000AFE
:1027000060EE200A9FEDB01A80EE810AF0EE080A12
:1027100020EE200AB04880ED010AB9EE000A80EDF3
:10272000020A99E0012010F0B3FA032010F08AFAAF
:10273000002010F0BFFA012010F0A0FA012010F0E4
:10274000C3FA9D48B0F81100A0F5806000EE100AB1
:10275000B8EEC00ADFED9B0A20EE200A9FED9A1A20
:10276000C0EE010A94ED041A984890EDE10A00EEDB
:10277000C10A80EDE10A9048B0F81100A0F5806030
:1027800000EE100AB8EEC00ADFED8E0A20EE200A35
:102790009FED8D1AC0EE010A94ED041A8B4890ED5E
:1027A000E00A00EEC10A80EDE00A8348B0F81300A9
:1027B000A0F5806000EE100AB8EEC00ADFED840AD2
:1027C00020EE200A9FED801AC0EE010A94ED041A53
:1027D000804890EDFE0A00EE810A80EDFE0A764800
:1027E000B0F80F00A0F5806000EE100AB8EEC00A45
:1027F000F7EE000A60EE200A9FED731A80EE810A60
:10280000F0EE080A20EE200A734880ED000A6A48BC
:10281000B0F80D00A0F5806000EE100AB8EEC00A16
:10282000F7EE000A60EE200A9FED671A80EE810A3B
:10283000F0EE080A20EE200A674880ED010AB0EEAB
:10284000000A80ED020A07E010F0E8F900205B4979
:1028500008605B49086000BF00BF4BE25648B0F813
:10286000150001280AD0022802D0032872D102E004
:1028700009F096F971E009F093F96EE0012010F08B
:1028800007FA002010F0DEF9042010F013FA0220FD
:1028900010F0F4F9002010F017FA4748B0F81100D2
:1028A000A0F5806000EE100AB8EEC00ADFED450A20
:1028B00020EE200A9FED441AC0EE010A94ED041A9E
:1028C000424890EDE10A00EEC10A80EDE10A3A4883
:1028D000B0F81100A0F5806000EE100AB8EEC00A52
:1028E000DFED380A20EE200A9FED371AC0EE010A0C
:1028F00094ED041A354890EDE00A00EEC10A80ED2F
:10290000E00A2D48B0F81300A0F5806000EE100A30
:10291000B8EEC00ADFED2E0A20EE200A9FED2A1A3B
:10292000C0EE010A94ED041A2A4890EDFE0A00EE6A
:10293000810A80EDFE0A9FED290A274880ED000AF2
:102940009FED260A80ED010A9FED240A80ED020A20
:1029500003E0FFE710F062F900BF00BFCAE11648CC
:10296000B0F8150001287DD0022802D003287AD1C2
:1029700097E0012010F08CF9012010F063F900209D
:1029800010F098F9012010F079F9002010F09CF96E
:102990000020134981F83100084908600648B0F862
:1029A0001100A0F5806000EE100AB8EEC00ADFED5D
:1029B000050A20EE200A15E071850020240400207D
:1029C000280400200000344300002544C07F00207C
:1029D0000000C842C0770020A07500200000000061
:1029E000F08300201FED081AC0EE010A94ED041ACE
:1029F000C44890EDE10A00EEC10A80EDE10AC24848
:102A0000B0F81300A0F5806000EE100AB8EEC00A1E
:102A10005FED110A20EE200A1FED151AC0EE010A23
:102A200094ED041AB94890EDFE0A00EE810A80ED9B
:102A3000FE0AB548B0F80F00A0F5806000EE100A5D
:102A4000B8EEC00AF7EE000A60EE200A1FED221A67
:102A500080EE810AF0EE080A20EE200AAC4880EDF4
:102A6000000A01E0C6E03DE1A748B0F80D00A0F57E
:102A7000806000EE100AB8EEC00AF7EE000A60EEC1
:102A8000200A1FED2F1A80EE810AF0EE080A20EED0
:102A9000200A9F4880ED010A1FED300A80ED020AEE
:102AA00023E1012010F0F4F8052010F0CBF800200D
:102AB00010F000F9012010F0E1F8012010F004F905
:102AC0000020944981F831009348006878B98D4816
:102AD00090EDDE0AB0EE401AFA21F7EE000AB1EEF0
:102AE000080A8E4809F036FD01208B4908608648A7
:102AF000B0F81100A0F5806000EE100AB8EEC00A30
:102B00005FED500A20EE200A1FED511AC0EE010AB7
:102B100094ED041A7B4890EDE10A00EEC10A80EDC5
:102B2000E10A7948B0F81100A0F5806000EE100AC3
:102B3000B8EEC00A5FED5D0A20EE200A1FED5E1AB6
:102B4000C0EE010A94ED041A6E4890EDE00A00EE22
:102B5000C10A80EDE00A6C48B0F81300A0F580606F
:102B600000EE100AB8EEC00A5FED670A20EE200AF8
:102B70001FED6B1AC0EE010A94ED041A634890ED44
:102B8000FE0A00EE810A80EDFE0A5F48B0F80F00F1
:102B9000A0F5806000EE100AB8EEC00AF7EE000A59
:102BA00060EE200A1FED781A80EE810AF0EE080A26
:102BB00020EE200A564880ED000A5348B0F80D0078
:102BC000A0F5806000EE100AB8EEC00AF7EE000A29
:102BD00020EE200A5FED840A80EE201AB0EE080A8B
:102BE00021EE000A4A4880ED010A1FED840A80EDBB
:102BF000020A7AE0012010F04BF8022010F022F8CF
:102C0000032010F057F8012010F038F8002010F0E1
:102C10005BF800203F4981F831003B48B0F81100D3
:102C2000A0F5806000EE100AB8EEC00A5FED9B0AC6
:102C300020EE200A1FED9C1AC0EE010A94ED041A42
:102C4000304890EDE10A00EEC10A80EDE10A2E481D
:102C5000B0F81100A0F5806000EE100AB8EEC00ACE
:102C60005FEDA80A20EE200A1FEDA91AC0EE010AA6
:102C700094ED041A234890EDE00A00EEC10A80EDBD
:102C8000E00A2148B0F81300A0F5806000EE100AB9
:102C9000B8EEC00A5FEDB20A20EE200A1FEDB61AA8
:102CA000C0EE010A94ED041A184890EDFE0A00EEF9
:102CB000810A80EDFE0A1FEDB70A154880ED020A71
:102CC0001148B0F80F00A0F58060B0F5A57F04DDD5
:102CD0000120134981F8A00103E00020104981F888
:102CE000A00102E00FF09AFF00BF00BF02E00FF06A
:102CF00095FF00BF00BF0448B0F81510A0F81B10E6
:102D000070BD0000C07F002071850020C0770020CA
:102D1000A0750020F083002024040020BC75002052
:102D2000D085002010B5024802F0F2F910BD000075
:102D3000A410002010B5024802F0EAF910BD00000E
:102D40007C0E002010B5024802F0E2F910BD000030
:102D5000DC0E00200146087810381823B0FBF3F28F
:102D60000848805CC865032A05D908686FF3090024
:102D7000001D886503E008686FF309008865886DA9
:102D8000704700000C4F0108014600208A6A8B69D9
:102D9000CBB932B1012A0DD0022A03D0032A10D1B7
:102DA0000EE000BFCB6A03F08073B3F1807F00D1E7
:102DB000012007E0CB6AB3F1C07F00D1012001E020
:102DC00000E000BF34E08B69B3F5005F1AD132B187
:102DD000012A07D0022A03D0032A11D10AE000BF3A
:102DE00001200EE0CB6A03F08073B3F1807F00D145
:102DF000012006E0CB6AB3F1C07F00D1012000E0E2
:102E000000BF15E032B1012A05D0022A04D0032AFE
:102E10000CD103E000BF00BF012008E0CB6A03F043
:102E20008073B3F1807F00D1012000E000BF00BFBC
:102E30007047000010B590F833300D2B05D1644B6E
:102E40001C680C605B684B6010BD12B190F82630B6
:102E500043B9604B1C680C605B684B60012380F8D1
:102E60002630B3E0012A05D15B4B1C680C605B681F
:102E70004B60ABE0036800EE103AD0F81E3000EE75
:102E8000903AF1EE600AB4EEE00AF1EE10FA00D8E2
:102E900000E000BF436800EE103AD0F8223000EEA8
:102EA000903AF1EE600AB4EEE00AF1EE10FA00D8C2
:102EB00000E000BFC36800EE103AD0F81A3000EE10
:102EC000903AB1EE601ADFED451AF7EE000A41EED6
:102ED000210AB4EEE00AF1EE10FA00D813E0C3685C
:102EE00000EE903AD0F81A3000EE103ADFED3B1ABF
:102EF000B7EE001A10EE211AF4EEC10AF1EE10FA44
:102F000000DB00E000BF036800EE103AD0F81E308E
:102F100000EE903A80EE201ADFED310A9FED300A84
:102F200001EE200ABCEEC00A10EE103A038243689C
:102F300000EE103AD0F8223000EE903A80EE201ADF
:102F4000DFED280A9FED270A01EE200ABCEEC00A39
:102F500010EE103A4382C36800EE103ADFED1F0A0C
:102F600080EE201AD0F81A3000EE103AC1EE000AB6
:102F70009FED1C1A9FED1B0A00EE810ABCEEC00AF1
:102F800010EE103A0383038983824389C382038A44
:102F90001B0A0B70037C4B70438AC3F307138B70BF
:102FA000037C1B071B0E848A43EA1423CB70037D2A
:102FB0000B71C38AC3F307134B71837D1B02DBB212
:102FC000048B43EA14238B71037ECB7100BF3BE774
:102FD00047050020370500203F05002000007A4407
:102FE000000000470000004500211A30017310EE78
:102FF000101A416010EE901A016011EE101A8160F3
:103000001A3870472DE9F0472DED068B05460C4622
:10301000A878697840EA0126E8780001297940EA31
:1030200021176879297901F00F0140EA0128A87970
:103030001A34A076E879E076A7F5006000EE100A71
:10304000B8EEC00A9FED301AC0EE010AA06800EE8B
:10305000100A20EE800A10EE100AC4F81100A6F53E
:10306000004000EE100AB8EEC00A9FED281AC0EE2C
:10307000010A606800EE100A20EE800ADFED240AE3
:1030800080EE201A11EE109A484611F08FFD41ECA7
:103090001A0B9FED200B53EC102B11F05DFB41EC54
:1030A000190B9FED1C0B53EC102B11F00DF941EC9B
:1030B000180B11F0D7F8C4F80D00A8F5006000EE69
:1030C000100AB8EEC00A9FED101AC0EE010A20687F
:1030D00000EE100A20EE800ADFED100A20EE200A32
:1030E00010EE100AC4F8150095F800A04FEA2A1057
:1030F0006076607E1A3C10B9002084F82600BDEC92
:10310000068BBDE8F0870000000000450000004786
:10311000DB0F4940000000000080664000007A4458
:1031200008B5084840680090074900980968884237
:1031300004D206480068401C04490860024900980F
:10314000086008BD001000E0800400207C0400201E
:103150000C494868F0EE400A00BF0A494968091A5C
:1031600001EE101AF8EE411A074991ED001AB8EE77
:10317000411A20EE811AF4EEC11AF1EE10FAECD3E6
:1031800070470000001000E07004002010B52DED25
:10319000028B82B004460E48406801902068019975
:1031A000081A00EE100AF8EE400A0A4890ED000AEC
:1031B000B8EE400A80EE801AB0EE418A0198206095
:1031C000FFF7AEFFB0EE480A02B0BDEC028B10BDB7
:1031D000001000E07004002010B52DED028B00F00F
:1031E00081F81148D0E90221104611F080FD00EE6F
:1031F000100A0D48D0ED000AF8EE608ADFED0B0AE8
:1032000040EE208AD0E90421104611F070FD00EE56
:10321000100ADFED070A40EE208AB0EE688AB0EEB1
:10322000480ABDEC028B10BDF08700206F12833A74
:10323000BD3786352DE9F04100F054F80D4800689F
:103240000D49484300210B4A4FF47A77D2E9023600
:10325000A3FB072806FB078603FB01668318714161
:10326000044AD2E904021C1841EB02052046294613
:10327000BDE8F081F087002040420F001249096844
:1032800041F08071104A11600021104A51601146CE
:10329000096841F0010111600D4941430D4A116077
:1032A000114609684FF47A72B1FBF2F10A4A1160D3
:1032B00008490968064AB1FBF2F1084A1160002189
:1032C000074A116070470000FCED00E0001000E0CC
:1032D00040420F0070040020740400207804002095
:1032E0007C04002038B52D4840680090FFF718FF97
:1032F0002B4800684FF0FF31A0FB013000995918AE
:1033000040F10000274AC2E9001027480023254960
:10331000026803C9FDF782F8244A03C2234806C89D
:10332000214800680024A1FB003502FB005001FB8E
:1033300004011C48D0E90020D21A60EB01001C49AE
:10334000C1E90020194800681A4908601A4800239A
:103350001749026803C9FDF761F8164AC2E902017C
:103360001046D0E9021314480068A1FB002503FBB6
:10337000005001FB04010E48D0E900309A1A60EBBE
:1033800001000E49C1E900200D480023026803C96D
:10339000FDF744F8074AC2E9040138BD001000E017
:1033A0007C04002088040020700400209004002089
:1033B00098040020F087002074040020A00400205E
:1033C000780400207047D2ED020A92ED021AB6EEA0
:1033D000000A00EEC10AD2ED030A92ED031A00EED4
:1033E000C10AD0ED000A20EE200AD2ED010A92EDCA
:1033F000021A60EE810A92ED001AD2ED031A41EE34
:10340000210A90ED011A00EE810AD2ED010A92ED37
:10341000031A60EE810A92ED001AD2ED021A41EE13
:10342000610A90ED021A00EE810AF0EE000A20EE29
:10343000200A81ED000A92ED010AD2ED020A20EE87
:10344000200AD2ED000A92ED031A00EEC10AD0ED77
:10345000000A60EE200A92ED011AD2ED011AB6EED2
:10346000000A01EE610AD2ED031A92ED032AB0EED2
:10347000401A01EEC21AD0ED011AB0EE600A01EE58
:10348000210AD2ED020A92ED031A60EE810A92ED52
:10349000001AD2ED011A41EE210A90ED021A00EE57
:1034A000810AF0EE000A20EE200A81ED010A92ED79
:1034B000010AD2ED030A20EE200AD2ED000A92EDB5
:1034C000021A00EE810AD0ED000A20EE200AD2EDA9
:1034D000020A92ED031A60EE810A92ED001AD2ED13
:1034E000011A41EE610A90ED011A00EE810A92ED97
:1034F000011AD2ED011AF6EE000A41EE610A92EDD0
:10350000021AD2ED021A41EE610A90ED021A00EEA3
:10351000810AF0EE000A20EE200A81ED020A7047CF
:1035200072B600BFFEE710B52DED028B0446B0EE7B
:10353000408A04F11800FFF729FE84ED070A94ED94
:10354000080AD4ED070A70EE200A94ED070A20EE6F
:10355000081A81EE200AD4ED030A94ED081A60EEF1
:10356000810A94ED081AD4ED071A31EE211AC0EE43
:10357000811A30EE210A84ED030A208E02280EDD26
:1035800094ED031AF0EE410A94ED071AB0EE410AE9
:1035900004F1340007F0B2FF84ED090A0BE094ED6A
:1035A000030AD4ED040A30EE600AD4ED070A80EE77
:1035B000201A84ED091AB4F8600002280EDD94ED9B
:1035C000091AF0EE410A94ED071AB0EE410A04F12F
:1035D000640007F093FF84ED0A0A0BE094ED090AFA
:1035E000D4ED0B0A30EE600AD4ED070A80EE201A03
:1035F00084ED0A1A94ED000AD4ED030A20EE200AA5
:10360000D4ED010A94ED091A00EE810AD4ED020A04
:1036100094ED0A1A00EE810A84ED240A94ED240A3E
:10362000D4ED250AF1EE600AB4EEE00AF1EE10FAEC
:1036300000D800E000BF94ED030A84ED040A94ED85
:10364000090A84ED0B0A94ED240ABDEC028B10BD2F
:1036500010B504469FED0A0A84ED0A0A84ED090AB2
:1036600084ED030A9FED060A84ED0B0A84ED040A3B
:1036700084ED240A04F11800FFF788FD10BD000056
:10368000000000002DE9F0412DED028B04460D46AF
:10369000B0EE408AF0EE608A16461F4684ED258A19
:1036A0006DB164B195ED000A84ED000A95ED010A53
:1036B00084ED010A95ED020A84ED020A0FE09FED08
:1036C000170A84ED000A9FED150A84ED010A9FEDAB
:1036D000130A84ED020A9FED110A84ED250AC4ED58
:1036E000088A2686A4F86070022E04DD314604F1B3
:1036F000340007F0E9FF022F04DD394604F16400CD
:1037000007F0E2FF04F11800FFF740FD9FED030A08
:1037100084ED240ABDEC028BBDE8F08100000000BE
:1037200002460AB9032902D0032A02D109B90120AD
:1037300070470020FCE7000010B520220121DFEDDA
:10374000194A9FED184ADFED183A9FED173ADFED61
:10375000152A9FED162ADFED161A9FED121ADFEDDE
:10376000150A9FED150A154808F05CFC202201217E
:10377000DFED0C4A9FED0B4ADFED0B3A9FED0A3A65
:10378000DFED082A9FED092ADFED091A9FED051AE2
:10379000DFED080A9FED080A0848B83008F042FC3F
:1037A00010BD00000000000000007A4427A0893B03
:1037B000CDCC0C4000C0DA4500007A46F075002000
:1037C00010B52DED028BB0EE408AF0EE608A0D4808
:1037D000D0ED660AB0EE600AF0EE480A08F0B6FADC
:1037E000084880ED700AD0ED6E0AB0EE600AF0EE87
:1037F000680AB83008F0AAFA024880ED710ABDECF8
:10380000028B10BDF075002070B52DED028B0546C2
:103810000C46B5F9000000EE100AB8EEC00ADFED64
:10382000160A20EE200AB0EE408AB5F9020000EE3A
:10383000100AB8EEC00AF1EE080A20EE200A84ED64
:10384000060ADFED0E0AB0EE480A20460DF0B0F889
:1038500084ED050AB5F9040000EE900AF8EEE00ADE
:10386000B0EE600ADFED060A04F11C000EF02EFB3C
:10387000BDEC028B70BD0000FFFF333D0000B44380
:103880003333333FF0B5059D012D0DD113F5804F36
:1038900001DC1F4C06E0B3F5804F02DB4FF480449F
:1038A00000E01C4623460AE01A4CA34200DC05E077
:1038B00047F23054A34200DB00E01C46234640F2AE
:1038C000FF14A14202D0B1F5FF7F0CD1012A1EDB0B
:1038D000042A1CDC561E74001E0A76B206555FB21E
:1038E000661C875513E040F2FF24A14202D0641EFB
:1038F000A1420CD1052A0ADB072A08DC561F7400F6
:103900001E0A76B206555FB2661C875500BFF0BD31
:1039100000C0FFFFD08AFFFF30B5034605E013F873
:10392000010B80EA02040448025D081EA1F10101B6
:10393000F5D1104630BD00002D51010870B50A4880
:103940000468001D0568001D0668344454B108224F
:103950000649204605F0B2FD0422044910312846EC
:1039600005F0ACFD70BD0000107AFF1FBA05002005
:1039700010B54A4808F02CFB4848B83808F028FB36
:10398000474808F025FB4548B830FFF761FE454839
:10399000FFF75EFE424890EDFA0A80EDFE0A90EDD8
:1039A000FA0A80EDF60A9FED400A80EDF40A9FEDD9
:1039B0003E0A80EDF50A9FED3C0A80EDF80A00F61C
:1039C000C80008F005FB394808F002FB384808F049
:1039D000FFFA3748B83808F0FBFA3648FFF738FEE8
:1039E00034489830FFF734FE3148B830FFF730FEE6
:1039F0003148FFF72DFE2D481038D0EDDE0AB0EE2D
:103A0000600A00F5627009F0F1FC28481038D0ED2A
:103A1000DD0AB0EE600A00F56C7009F0E7FC27489B
:103A2000D0ED0B0AB0EE600A254809F0DFFC234810
:103A3000D0ED020AB0EE600A2148283009F0D6FC29
:103A40001A48103890EDDE0A80EDE10A90EDDE0AAA
:103A500080EDDB0A9FED140A80EDD90A9FED120A72
:103A600080EDDA0A154890ED0B0A1048103880ED09
:103A7000E00A124890ED0B0A0C48103880EDD70A86
:103A80009FED090A80EDD50A9FED070A80EDD60A61
:103A900000200A4981F83200888610BD3079002064
:103AA000C0770020807A002000000000D07F002036
:103AB000307D002040810020807E0020F0830020A7
:103AC0009883002000B58DB045220121DFED7B4AAF
:103AD0009FED7B4ADFED7A3A9FED793ADFED782A68
:103AE000B6EE002ADFED771A9FED751ADFED760A44
:103AF0009FED760A764808F095FA05220121DFED60
:103B0000704A9FED744ADFED6E3A9FED6D3ADFED3E
:103B10006C2AB7EE002AF3EE0E1A9FED6F1ADFED56
:103B20006F0A9FED6F0A6A48B83808F07BFA4022A6
:103B30000121DFED634A9FED624ADFED613A9FEDBF
:103B4000603ADFED5F2A9FED5E2AF3EE041A9FEDE7
:103B5000651ADFED5B0A9FED640A644808F062FABB
:103B600005220121DFED564A9FED554ADFED543A1B
:103B70009FED533ADFED522AB7EE002ADFED5C1AD3
:103B8000B6EE001ADFED5B0A9FED5B0A5748B838C6
:103B900008F048FA40220121DFED484A9FED484AEB
:103BA000DFED473A9FED463ADFED4B2A9FED442A81
:103BB000DFED521A9FED4B1ADFED410A9FED500ADF
:103BC000504808F02FFA05220121DFED3D4A9FED14
:103BD000414ADFED3B3A9FED3A3ADFED392AB7EE45
:103BE000002ADFED491AB6EE001ADFED3C0A9FED20
:103BF000470A4448B83808F015FADFED450A9FED4A
:103C0000450A454809F008FCDFED410A9FED430AEB
:103C10004148283009F000FCDFED3D0A9FED400AE5
:103C20003D48503809F0F8FBDFED390A9FED3B0ABB
:103C30003948283809F0F0FB3A4A07CA0AAB07C3EB
:103C4000384A0C3207CA07AB07C305231A46DFED13
:103C5000300A0AA99FED340A3448FFF713FD052303
:103C60001A46DFED2B0A07A99FED310A2F48983835
:103C7000FFF708FD2B4A183207CA04AB07C3052318
:103C80001A46DFED230A04A99FED270A2948FFF70A
:103C9000F9FC244A2432D2E900109268CDE90202EC
:103CA000019105231A46DFED1A0A01A99FED200AAA
:103CB00020489838FFF7E6FC0DB000BD0AD7A33CBA
:103CC00000000000000020420000404200001643B7
:103CD00030790020FAEDEB3ACDCCCC3D0000964493
:103CE00000606A46CDCC4C3D000034438880002003
:103CF0000000A04200007A4400008046000000421C
:103D00000000B443307D0020000004420080BB4529
:103D10000AD7233C00409C469883002000C8AF4748
:103D200000401C47C05201080000C842D881002052
:103D30000000FA43807E002008B500BFFFF7FCFCBE
:103D4000FFF7C0FE09F05AFD9FED3B1AF3EE040A9F
:103D50009FED3A0A3A48FFF747F9B3EE0E1AF2EE32
:103D6000040A9FED360A36483630FFF73DF9DFED9D
:103D7000350AB2EE040A344808F0FCFA4FF4FA604F
:103D80000FF004FA56E010F007F800902F48FFF704
:103D9000FDF92E48203880ED090A0EF0C7FFFDF727
:103DA00053FC08F03FFC2A48C07807281AD2DFE805
:103DB00000F004070A16130D100000F0EFFA14E0EB
:103DC00000F04AF811E000F041F90EE000F006FBC7
:103DD0000BE000F0EDF908E000F0FEFA05E000F07D
:103DE0004FFC02E000F0DAFA00BF00BF08F09CFED2
:103DF00007F0A4F91748007800F0010008B907F0AF
:103E0000B3FA144800680321B0FBF1F201FB120081
:103E100008B907F031FB07F0EBFA0E48006807F02D
:103E20003FFF0C480068401C0A49086002216846B0
:103E30000FF0DAF9A7E7000000003442DC0F494038
:103E4000A68200200000204300A700200CA900202B
:103E5000718500203806002010B52DED108B0EF076
:103E60006DF86D48D0EDFE0AB0EE600A00F066FA1B
:103E70006A4880ED0E0A6A48D0EDE10AB0EE600AA9
:103E800000F05EFB654880ED180A664890ED0A0A6E
:103E900010EE101A084610F089FE41EC1E0B9FED43
:103EA000620B53EC102B10F057FC41EC1C0B5D48DF
:103EB00090ED0B0A10EE101A084610F077FE41EC58
:103EC0001D0B53EC1C2B10F0FFF941EC1A0B54485E
:103ED00090EDE00A10EE101A084610F067FE41EC73
:103EE0001B0B53EC1A2B10F077FD41EC190B10F063
:103EF000B9F900EE100AB0EEC00A10EE104A2046E2
:103F000010F054FE41EC1D0B9FED490B53EC102BB0
:103F100010F022FC41EC1B0B204610F047FE41EC58
:103F20001D0B204610F042FE41EC1F0B9FED420B93
:103F300053EC102B10F010FC41EC1E0B53EC1D2B1E
:103F400010F00AFC41EC1C0B53EC1B2B10F044FD51
:103F500041EC1A0B9FED3A0B53EC102B10F0B4F917
:103F600041EC190B10F07EF908EE100AB6EE000ACB
:103F7000B4EEC08AF1EE10FA02D8B6EE000A0BE0F9
:103F8000B7EE000AB4EEC08AF1EE10FA02DBB7EE2B
:103F9000000A01E0B0EE480AB0EE408A214890EDF8
:103FA0000A0A10EE101A084610F000FE41EC1C0B35
:103FB0009FED1D0B53EC102B10F0CEFB41EC1A0BB8
:103FC000184890ED0B0A10EE101A084610F0EEFD9E
:103FD00041EC1B0B53EC1A2B10F076F941EC190B4A
:103FE00010F040F908EE900AF0EE480AB0EE680AC8
:103FF00015480DF06BFF0A48D0EDE00AB0EE600AFC
:1040000000F0D8F8054880ED130A0120054981F831
:104010003000BDEC108B10BDC0770020E4A900205B
:10402000C07F0020F0830020333333333333E33F4A
:104030009278793A5794423FE59E09A8CBBD3BBFA1
:10404000000000E0CEF7EF3F4083002010B52DEDDB
:10405000028B84B00E2249496846FCF756FA48485C
:1040600090EDFE0A4748D0ED000A30EE600AB0EE4F
:10407000C00ADFED450AB4EEE00AF1EE10FA22D2F2
:10408000424890EDE10A4248D0ED000A30EE600A65
:10409000B0EEC00ADFED3F0AB4EEE00AF1EE10FA2E
:1040A00011D23D48807E0D280DD1364890ED000A92
:1040B000334880EDFE0A364890ED000A334880ED23
:1040C000E10AFDF7D7F92E4890EDFE0AB0EEC00ADE
:1040D000DFED2D0AB4EEE00AF1EE10FA03DD90ED0B
:1040E000FA0A80EDFE0A294890EDE10ADFED2B0A7D
:1040F00030EE600AB0EEC00A10EE104A204610F012
:1041000055FD41EC180B9FED260B53EC102B10F0D6
:10411000E7FA0AD21D4890EDDE0A80EDE10A224856
:1041200090ED0B0A194880EDE00A0DF007FF1448E6
:10413000D0EDFE0AB0EE600A00F000F91B4880EDF9
:104140000E0A1248D0EDE00AB0EE600A00F032F834
:10415000164880ED130A0D48D0EDE10AB0EE600A72
:1041600000F0EEF9114880ED180A01200E4981F89F
:10417000300004B0BDEC028B10BD0000598400205B
:10418000C07700203804002000007042C07F00206B
:104190003C04002000008C42D0A8002000C07944DC
:1041A0002D431CEBE2361A3FF0830020E4A90020E7
:1041B0007047000010B52DED028BB0EE408AB0EED6
:1041C000480A544808F09CFF534880EDD70A90ED08
:1041D000D71AF0EE410A514890ED0B1AB0EE410AA1
:1041E0004F4807F0B3FDF0EE408A4B48D0EDD70AB8
:1041F000B0EE600AA0F5A070FFF795F938EE800ADE
:10420000454880EDD50AD0EDD50AB0EE600A00F53C
:10421000806008F075FF404890EDD51AF0EE410A35
:104220003E4890ED021AB0EE410A3D48B83807F01A
:104230008DFDF0EE408A3848D0EDD50AB0EE600A28
:10424000A0F5EC70FFF76FF938EE800AF7EE000A80
:1042500020EE200A304880EDD60A314890ED060A5B
:10426000B0EEC00AF1EE040AB4EEE00AF1EE10FA84
:1042700017D22A48808E401C284988860846808E9E
:10428000962805DA9FED270A254880ED100A08E0F8
:104290000120224981F832009FED230A204880ED59
:1042A000100A1E4890F83200F8B91B4890EDD60A63
:1042B000DFED1E0AB4EEE00AF1EE10FA02D89FED2F
:1042C0001B0A0FE0144890EDD60ADFED190AB4EE90
:1042D000E00AF1EE10FA02DB9FED150A02E00E484B
:1042E00090EDD60A0C4880EDD60A1248B0F8A80323
:1042F00068B10A4890ED010AB5EEC00AF1EE10FA75
:1043000005D0054890EDD60ABDEC028B10BD9FED9F
:104310000A0AF9E798830020C07F0020F08300207C
:10432000307D00200000204300009643000096C42A
:1043300000009644C07700200000000010B52DED6D
:10434000028BB0EE408A144880EDF68A90EDF61AA2
:10435000F0EE410A90EDFA1AB0EE410A00F5B8709D
:1043600007F0F4FC0C4880EDF40A90EDF41AF0EE3E
:10437000410A90EDF91AB0EE410AB83007F0E6FCB8
:10438000F7EE000A20EE200A034880EDF50A90EDD2
:10439000F50ABDEC028B10BDC077002010B50DF002
:1043A000CDFDFFF7E5FA9FED090A094880ED0E0AF9
:1043B0009FED060A80ED130A9FED040A80ED180AAE
:1043C0000020044981F8300010BD0000000000000A
:1043D000E4A90020F08300207047000010B52DED07
:1043E000028B84B00E2249496846FCF78EF8484893
:1043F00090EDFE0A4748D0ED000A30EE600AB0EEBC
:10440000C00ADFED450AB4EEE00AF1EE10FA22D25E
:10441000424890EDE10A4248D0ED000A30EE600AD1
:10442000B0EEC00ADFED3F0AB4EEE00AF1EE10FA9A
:1044300011D23D48807E0D280DD1364890ED000AFE
:10444000334880EDFE0A364890ED000A334880ED8F
:10445000E10AFDF70FF82E4890EDFE0AB0EEC00A13
:10446000DFED2D0AB4EEE00AF1EE10FA03DD90ED77
:10447000FA0A80EDFE0A294890EDE10ADFED2B0AE9
:1044800030EE600AB0EEC00A10EE104A204610F07E
:104490008DFB41EC180B9FED260B53EC102B10F00D
:1044A0001FF90AD21D4890EDDE0A80EDE10A22488C
:1044B00090ED0B0A194880EDE00A0DF03FFD14481D
:1044C000D0EDFE0AB0EE600AFFF738FF1B4880ED22
:1044D0000E0A1248D0EDE00AB0EE600AFFF76AFE5D
:1044E000164880ED130A0D48D0EDE10AB0EE600ADF
:1044F00000F026F8114880ED180A01200E4981F8D5
:10450000300004B0BDEC028B10BD000059840020C7
:10451000C07700203804002000007042C07F0020D7
:104520003C04002000008C42D0A8002000C0794448
:104530002D431CEBE2361A3FF0830020E4A9002053
:1045400010B52DED028BB0EE408AB0EE480A45481A
:1045500008F0D6FD444880EDDB0A90EDDB1AF0EE62
:10456000410A90EDDE1AB0EE410AC83007F0EEFBCA
:10457000F0EE408A3C48D0EDDB0AB0EE600A00F570
:104580000670FEF7D0FF38EE800A374880EDD90A72
:10459000D0EDD90AB0EE600A00F56C7008F0B0FDFD
:1045A000314890EDD91AF0EE410A90EDDD1AB0EEE7
:1045B000410A103007F0CAFBF0EE408A2A48D0EDDD
:1045C000D90AB0EE600A00F5C070FEF7ACFF38EE15
:1045D000800AF7EE000A20EE200A234880EDDA0A6E
:1045E00090EDDA0ADFED210AB4EEE00AF1EE10FAFE
:1045F00002D89FED1E0A0FE01B4890EDDA0ADFEDAE
:104600001C0AB4EEE00AF1EE10FA02DB9FED180A84
:1046100002E0154890EDDA0A134880EDDA0AA0F5B9
:10462000006090EDF10ADFED130AB4EEE00AF1EE5E
:1046300010FA0EDD90EDF10ADFED0F0AB4EEE00A9C
:10464000F1EE10FA05D2084890EDDA0ABDEC028BC3
:1046500010BD9FED0A0A044880EDDA0A90EDDA0AEF
:10466000F4E7000048830020C07F0020000080C6DF
:1046700000008046000034C2000034420000000008
:1046800010B50CF0E5F80120014981F8300010BDAB
:10469000F083002010B5024692F82030012B01D0A3
:1046A000022B06D11068406908431468606100203D
:1046B00010BD506A40F4802050620120F8E7F0B548
:1046C00004460D461E4694F8207020688368A8684A
:1046D00000B900E000BF012F01D0022F7DD103F00F
:1046E000806030B903F0006018B903F080500028F2
:1046F0007ED0C3F30161012088403060A86860B9B2
:10470000B5F800C0E86840EA4C5C206800F5C0706D
:1047100000EB0110C0F800C00FE0D5E901C040EA8D
:10472000CC00D5F80CC040EA0C00D4F800C00CF561
:10473000C07C0CEB011CCCF80000D5F810C0206840
:1047400000F5C07000EB0110C0F804C0287D0128FE
:104750000ED1206800F5C07000EB0110406840F4F5
:10476000807C206800F5C07000EB0110C0F804C028
:10477000D079000692F806C040EA0C4092F805C0D5
:1047800040EA0C2092F804C040EA0C00D4F800C0C3
:104790000CF5C07C0CEB011CCCF80C00D0780006AA
:1047A00092F802C040EA0C4092F801C040EA0C20A6
:1047B00092F800C040EA0C00D4F800C00CF5C07CB0
:1047C0000CEB011CCCF80800206800F5C07000EB71
:1047D0000110006840F0010C01E00FE008E02068E3
:1047E00000F5C07000EB0110C0F800C00020F0BD63
:1047F000606A40F4001060620120F8E7606A40F4EB
:10480000802060620120F2E7F0B504460A46216884
:1048100094F82050012D01D0022D7ED1424901F59E
:104820000071086840F001000860086820F47C50BE
:1048300008600868566A40EA06200860107D00F0AB
:104840001F06012000FA06F3C8699843C861A1F564
:104850000071D069C8B9D1F80C029843C1F80C02B4
:10486000908880B2968940EA064601F51070576933
:1048700040F83760108880B2168940EA064601F594
:104880001070576900EBC7004660D069012819D144
:10489000D1F80C021843C1F80C02908880B2168837
:1048A00040EA064601F51070576940F83760908974
:1048B00080B2168940EA064601F51070576900EB90
:1048C000C7004660906928B9D1F804029843C1F83E
:1048D000040204E0D1F804021843C1F8040210698C
:1048E00028B9D1F814029843C1F8140204E0D1F8B1
:1048F00014021843C1F81402106A012804D1D1F837
:104900001C021843C1F81C02D1F8000220F001007B
:10491000C1F800020020F0BDFFE7606A40F480208B
:1049200060620120F7E7000000640040704770B546
:10493000044694F82050012D01D0022D7DD151B9AB
:104940002068C06800F0030080B9606A40F400107D
:104950006062012070BD2068006900F0030028B982
:10496000606A40F4001060620120F3E7206800F5FF
:10497000D87000EB0110006800F0040090609068AF
:1049800040B9206800F5D87000EB01100068400DB8
:10499000106007E0206800F5D87000EB0110006897
:1049A000C0085060206800F5D87000EB0110006866
:1049B00000F00200D060206800F5D87000EB011014
:1049C000406800F00F00082802D30820106108E0BA
:1049D000206800F5D87000EB0110406800F00F006F
:1049E0001061206800F5D87000EB0110406800F4F9
:1049F0007F40000A9061206800F5D87000EB01103C
:104A00004068000C5061206800F5D87000EB011080
:104A100080681870206800F5D87000EB011080687D
:104A200000F47F40000A5870206800F5D87000EB51
:104A30000110806800F47F0000E03CE0000C9870FA
:104A4000206800F5D87000EB01108068000ED87067
:104A5000206800F5D87000EB0110C068187120685C
:104A600000F5D87000EB0110C06800F47F40000A28
:104A70005871206800F5D87000EB0110C06800F490
:104A80007F00000C9871206800F5D87000EB0110D1
:104A9000C068000ED87131B92068C06840F02000AD
:104AA0002668F06005E02068006940F02000266874
:104AB000306100204EE7606A40F48020606201208F
:104AC00048E70146002091F82020012A01D0022A5F
:104AD00011D10B689B6803F0806303B1401C0B6825
:104AE0009B6803F0006303B1401C0B689B6803F0F4
:104AF000805303B1401C70472DE9F05F0446002548
:104B0000206846692068D0F804902068876820688B
:104B1000D0F80CA02068D0F810B02068D0F8188029
:104B200006F00100002855D007F00100C0B10120B7
:104B30002168886007F0020018B1204600F0E1FA11
:104B40000EE007F0040010B145F4006508E007F03E
:104B5000080010B145F4805502E0204600F0D0FA7C
:104B600007F48070C8B14FF480702168886007F442
:104B7000007018B1204600F0C6FA0EE007F480601D
:104B800010B145F4005508E007F4006010B145F499
:104B9000804502E0204600F0B5FA07F48030C8B145
:104BA0004FF480302168886007F4003018B1204647
:104BB00000F0ABFA0EE007F4802010B145F4004598
:104BC00008E007F4002010B145F4803502E02046EB
:104BD00000F09AFA06F0080038B10AF0100020B18F
:104BE00045F4007510202168C86006F0040040B14B
:104BF0000AF0080028B108202168C860204600F0AB
:104C00002DFA06F0020038B12068C06800F00300F9
:104C100010B1204600F023FA06F0400038B10BF046
:104C2000100020B145F4806510202168086106F06D
:104C3000200040B10BF0080028B10820216808616D
:104C4000204600F01CFA06F0100038B12068006918
:104C500000F0030010B1204600F012FA06F4003014
:104C600040B109F0100028B11020216848602046AA
:104C700000F016FA06F4803040B109F0080028B1BF
:104C8000082021684860204600F040FA06F4004001
:104C900088B309F0040078B306F4807020B108F0FE
:104CA000010008B145F0010506F4007020B108F0DC
:104CB000020008B145F0020506F4806020B108F05A
:104CC000040008B145F0040506F40060A0B108F046
:104CD000700088B108F07000402817D006DC10285A
:104CE0000BD020280CD0302819D10CE0502810D03F
:104CF000602814D110E01DE019E045F008050FE030
:104D000045F010050CE045F0200509E045F04005B0
:104D100006E045F0800503E045F4807500E000BF43
:104D200000BF2068806920F070002168886104203D
:104D3000216848602DB1606A284360622046FFF711
:104D4000F5FDBDE8F09F70B504460CB9012070BDBB
:104D500094F8200010B9204600F0B0F820680068F0
:104D600040F001002168086000F07CFC05460DE081
:104D700000F078FC401B0A2808D9606A40F4003033
:104D80006062052084F820000120E0E72068406888
:104D900000F001000028EBD02068006820F002003D
:104DA0002168086000F05EFC05460DE000F05AFC4A
:104DB000401B0A2808D9606A40F400306062052070
:104DC00084F820000120C2E72068406800F002005B
:104DD0000028EBD1207E012806D12068006840F031
:104DE00080002168086005E02068006820F08000ED
:104DF00021680860607E012806D12068006840F0C4
:104E000040002168086005E02068006820F040004C
:104E100021680860A07E012806D12068006840F063
:104E200020002168086005E02068006820F020006C
:104E300021680860E07E012806D12068006820F023
:104E400010002168086005E02068006840F010004C
:104E500021680860207F012806D12068006840F0A2
:104E600008002168086005E02068006820F008005C
:104E700021680860607F012806D12068006840F042
:104E800004002168086005E02068006820F0040044
:104E900021680860D4E90201084321690843616977
:104EA00008436168491E08432168C86100206062A8
:104EB000012084F82000002049E7000010B586B0EA
:104EC0000446142101A8FBF7C1FB5E492068884213
:104ED00051D15D480068401C5B4908600846006885
:104EE00001280FD100BF002000905848006840F012
:104EF0000070564908600846006800F00070009095
:104F000000BF00BF00BF002000905048103800686C
:104F100040F008004D49103908600846006800F06C
:104F20000800009000BF00BF032001900220029003
:104F300000200390032004900920059001A9444813
:104F400000F090FA00220521132000F073FD1320D9
:104F500000F05CFD00220521142000F06BFD142000
:104F600000F054FD00220521152000F063FD1520FE
:104F700000F04CFD64E037492068884260D100BFF2
:104F8000002000903148006840F080602F490860A0
:104F90000846006800F08060009000BF00BF2A480B
:104FA0000068401C284908600846006801280FD1A5
:104FB00000BF002000902548006840F000702349A1
:104FC00008600846006800F00070009000BF00BF55
:104FD00000BF002000901D481038006840F002001B
:104FE0001A49103908600846006800F00200009075
:104FF00000BF00BF602001900220029000200390BB
:10500000032004900920059001A9134800F02AFA12
:10501000002205213F2000F00DFD3F2000F0F6FCAE
:1050200000220521402000F005FD402000F0EEFCAC
:1050300000220521412000F0FDFC412000F0E6FCAB
:1050400006B010BD00640040280000204038024037
:10505000000C02400068004000040240704710B598
:105060008AB0044601AB03AA00212046FFF75FFC8B
:1050700001AA03A9204605F0F1FD0AB010BD704752
:1050800010B58AB0044601AB03AA01212046FFF700
:105090004EFC01AA03A9204605F0E0FD0AB010BDB0
:1050A000704770B5044694F82000012822D10220F0
:1050B00084F820002068006820F001002168086062
:1050C00000F0D0FA05460DE000F0CCFA401B0A28AB
:1050D00008D9606A40F400306062052084F820003E
:1050E000012070BD2068406800F001000028EBD16D
:1050F0006062F6E7606A40F4002060620120F0E739
:10510000704770477047704770477047704700009E
:10511000F8B50446002000908C4800684FF4165102
:10512000B0FBF1F7A56D2E6894F85C10082088405C
:10513000304098B12068006800F0040070B1206829
:10514000006820F004002168086094F85C100820D2
:105150008840A860606D40F00100606594F85C10C4
:1051600001208840304068B12068406900F080002C
:1051700040B194F85C1001208840A860606D40F058
:105180000200606594F85C1004208840304068B1EB
:105190002068006800F0020040B194F85C10042020
:1051A0008840A860606D40F00400606594F85C1071
:1051B00010208840304078B32068006800F0080074
:1051C00050B394F85C1010208840A86020680068F4
:1051D00000F4802080B12068006800F4002028B925
:1051E000206CC8B12046216C884715E0A06C98B1AE
:1051F0002046A16C88470FE02068006800F48070AA
:1052000028B92068006820F0080021680860206C38
:1052100010B12046216C884794F85C10202088400B
:105220003040002865D02068006800F01000002899
:105230005FD094F85C1020208840A86094F8350076
:10524000052828D12068006820F016002168086031
:105250002068406920F0800021684861206C08B90E
:10526000A06C28B12068006820F008002168086060
:1052700094F85C103F208840A860012084F8350035
:1052800000BF002084F8340000BF206D10B120461C
:10529000216D8847F8BD2068006800F4802080B147
:1052A0002068006800F4002028B9606C10B1204626
:1052B000616C88471DE0E06BD8B12046E16B884700
:1052C00017E02068006800F4807068B92068006802
:1052D00020F0100021680860012084F8350000BF2C
:1052E000002084F8340000BFE06B10B12046E16B71
:1052F0008847606D38B3606D00F00100F0B10520A3
:1053000084F835002068006820F0010021680860FA
:1053100000BF0098401C0090B84200D905E020680A
:10532000006800F001000028F3D100BF012084F8DC
:10533000350000BF002084F8340000BFE06C10B1DD
:105340002046E16C884700BFA4E700003800002039
:105350002DE9F0410446002500F084F9074614B910
:105360000120BDE8F081606A00B100BF022084F82E
:10537000350000BF002084F8340000BF20680068BA
:1053800020F00100216808600AE000F06BF9C01B02
:10539000052805D920206065032084F83500E0E762
:1053A0002068006800F001000028EED12068056840
:1053B00021480540D4E901010843E1680843216917
:1053C000084361690843A1690843E1690843216A08
:1053D00008430543606A042803D1D4E90B0108435C
:1053E0000543206805602068456925F00705606A67
:1053F0000543606A04280DD1A06A0543E06A48B1FC
:105400002046FDF7C1FC28B140206065012084F8EA
:105410003500A6E7206845612046FDF79BFC06465F
:1054200094F85C103F208840B06000206065012047
:1054300084F83500002094E73F8010F070B50446F2
:1054400000F010F906462546681C10B104480078A3
:10545000054400BF00F006F9801BA842FAD370BDD6
:1054600034000020F8B502460B4600250024002039
:105470000021D6E0012606FA01F51E6806EA0504B9
:10548000AC4274D11E7906F00306012E04D01E79B9
:1054900006F00306022E13D190684F000326BE408B
:1054A000B0434F00DE68BE40304390605068012634
:1054B0008E40B0431E79C6F300168E4030435060D4
:1054C0001E7906F00306032E09D0D0684F0003268C
:1054D000BE40B0434F009E68BE403043D0601E794E
:1054E00006F00306022E13D1CF0802F1200656F86B
:1054F00027004E07F70E0F26BE40B0434F07FF0EA2
:105500001E69BE403043CF0802F1200646F827004E
:1055100010684F000326BE40B0431E7906F0030614
:105520004F00BE40304310605E6806F44036002EE7
:1055300076D000BF002600963C4E366846F4804682
:105540003A4F3E603E46366806F48046009600BFFD
:1055500000BF374E8F0856F827008E07370F0F26EB
:10556000BE40B043334EB24202D1002624E057E0A1
:10557000314EB24201D101261EE0304EB24201D17D
:10558000022619E02E4EB24201D1032614E02D4E20
:10559000B24201D104260FE02B4EB24201D10526C2
:1055A0000AE02A4EB24201D1062605E0284EB24258
:1055B00001D1072600E008268F073F0FBE40304389
:1055C0001B4E8F0846F82700224E3068A0435E68C5
:1055D00006F4801606B120431E4E3060361D30683A
:1055E000A0435E6806F4001606B12043194E361D2E
:1055F0003060184E361F3068A0435E6806F40036EF
:1056000006B12043134E361F3060361F3068A0436A
:105610005E6806F4803606B120430E4E083E3060C8
:10562000491C1029FFF426AFF8BD000044380240A1
:105630000838014000000240000402400008024017
:10564000000C02400010024000140240001802400A
:10565000001C0240083C01400AB1816101E00B04DA
:105660008361704701480068704700002C000020EB
:1056700070B504460CB9012070BD94F83D0028B9FE
:10568000002084F83C00204600F0DAF8242084F85A
:105690003D002068006820F0010021680860206853
:1056A000006840F40040216808602068006820F429
:1056B00000402168086001F0A9F905465C4960686E
:1056C000884206D85B48854201D2012007E00020CD
:1056D00005E05948854201D2012000E00020012860
:1056E00000D1C9E75548B5FBF0F62068406820F0C6
:1056F0003F003043216848604D496068884201D8C6
:10570000701C07E04FF4967070434FF47A71B0FB51
:10571000F1F0401C2168096A21F03F01084321682B
:10572000086243496068884214D8681E616849006D
:10573000B0FBF1F0401CC0F30B00042801D20420A0
:105740003DE0681E61684900B0FBF1F0401CC0F309
:105750000B0034E0A06838B9681E616801EB4101B4
:10576000B0FBF1F0401C0AE0681E616801EBC10269
:1057700002EB0111B0FBF1F0401C40F48040C0F39B
:105780000B0008B901201AE0A06848B9681E6168DA
:1057900001EB4101B0FBF1F0401CC0F30B000CE049
:1057A000681E616801EBC10202EB0111B0FBF1F070
:1057B000401CC0F30B0040F4804040F400402168DE
:1057C000C9694CF6FF72914308432168C861D4E966
:1057D000070108432168096821F0C00108432168D6
:1057E0000860D4E9031008432168896848F2FF3251
:1057F0009143084321688860D4E905010843216882
:10580000C96821F0FF0108432168C860206800686A
:1058100040F001002168086000202064202084F806
:105820003D000020206384F83E0000BF24E7000014
:10583000A086010080841E0000093D0040420F0048
:1058400010B586B00446142101A8FAF7FFFE2A49D4
:10585000206888424DD100BF002000902748006892
:1058600040F00400254908600846006800F0040084
:10587000009000BF00BF00BF0020009008460068F5
:1058800040F0010008600846006800F00100009048
:1058900000BF00BF48150190122002900120039024
:1058A000032004900420059001A91548FFF7DAFDB4
:1058B0004FF4807001901220029001200390032089
:1058C00004900420059001A90E48FFF7CBFD00BF0E
:1058D0000020009009481030006840F4000007499B
:1058E000103108600846006800F40000009000BF16
:1058F00000BF06B010BD0000005C00403038024020
:10590000000802400000024003480068034909788B
:1059100008440149086070472C0000203400002032
:1059200010B50D48006840F400700B490860084647
:10593000006840F4806008600846006840F48070A9
:105940000860032000F0B4F80F2000F007F800F022
:105950002BF8002010BD0000003C024070B504464A
:105960000E4800784FF47A71B1FBF0F00C490968E9
:10597000B1FBF0F5284601F043FD08B1012070BDF0
:10598000102C07D200222146501E00F053F8054883
:10599000046001E00120F2E70020F0E7340000207D
:1059A000380000203000002008B500BF0020009023
:1059B0001548006840F480401349086008460068B4
:1059C00000F48040009000BF00BF00BF00200090A6
:1059D000081F006840F08050091F086008460068F2
:1059E00000F08050009000BF00BF00220F21901EE9
:1059F00000F020F800220521084600F01BF80520E1
:105A000000F004F808BD0000443802400146084692
:105A100000280DDB00BF00BF00F01F0301229A40E9
:105A200043099B0003F1E023C3F8002100BF00BF3E
:105A300000BF70472DE9F05F80460D4616460027EF
:105A40000BF03CF8074639462A46334601F007007A
:105A5000C0F1070ABAF1040F02D94FF0040A01E0BD
:105A6000C0F1070AD14600F1040ABAF1070F02D2C9
:105A70004FF0000A01E0A0F1030AD4464FF0010AFA
:105A80000AFA09FAAAF1010A0AEA020A0AFA0CFA5F
:105A90004FF0010B0BFA0CFBABF1010B0BEA030B04
:105AA0004AEA0B04214640460BF010F8BDE8F09F8F
:105AB00000BF00F00702064B19684FF6FF031940BC
:105AC000044B0B4343EA0221014B196000BF7047AE
:105AD0000CED00E00000FA057047024610684162D4
