:020000040800F2
:10000000D0E800203103000835B800086D800008F2
:1000100055AF0008D5160008E510010800000000E3
:100020000000000000000000000000007102000855
:10003000C133000800000000CD0200081DDC0008EC
:100040004B0300084B0300084B0300084B03000858
:100050004B03000859CB00084B0300084B03000872
:100060004B0300084B0300084B0300084B03000838
:10007000452C00084B0300084B0300084B03000805
:100080004B0300084B0300084B030008F916000857
:10009000D9160008E91600084B0300084B030008B6
:1000A0004B0300084B0300084B0300084B030008F8
:1000B0004B0300084B0300084B0300084B030008E8
:1000C0004B0300084B0300084B0300084B030008D8
:1000D0004B0300084B0300084B03000849E70008E6
:1000E0004B0300084B0300084B0300084B030008B8
:1000F0004B0300084B0300084B0300084B030008A8
:100100004B0300084B0300084B0300084B03000897
:100110004B0300084B0300084B0300084B03000887
:10012000552C00084B0300084B030008652C000801
:100130004B0300084B0300084B0300082917000875
:1001400009170008191700084B030008F9BA00083E
:100150004B0300084B0300084B0300084B03000847
:100160004B0300084B0300084B0300084B03000837
:100170004B0300084B0300084B030008000000007D
:100180004B0300084B03000800F002F800F060F891
:100190000AA090E8000C82448344AAF10107DA45E2
:1001A00001D100F055F8AFF2090EBAE80F0013F0D4
:1001B000010F18BFFB1A43F001031847446D0100FB
:1001C000646D01000A444FF0000C10F8013B13F07D
:1001D000070408BF10F8014B1D1108BF10F8015BA0
:1001E000641E05D010F8016B641E01F8016BF9D193
:1001F00013F0080F1EBF10F8014BAD1C0C1B09D1EA
:100200006D1E58BF01F801CBFAD505E014F8016B5B
:1002100001F8016B6D1EF9D59142D6D370470000ED
:100220000023002400250026103A28BF78C1FBD8FF
:10023000520728BF30C148BF0B6070471FB515F08B
:100240008AFF9DE8030000F047FA1FBD10B510BDFE
:1002500000F0AEFA1146FFF7F1FF13F021F800F0BD
:10026000CCFA03B4FFF7F2FF03BC00F0FDFA000084
:100270002C4B19680868B0E8F04F80F30988BFF389
:100280006F8F4FF0000080F311887047000000006E
:1002900008480068006880F308884FF0000080F389
:1002A000148862B661B6BFF34F8FBFF36F8F00DF64
:1002B00000BF00BF08ED00E0DFF80C00016841F46A
:1002C00070010160704700BF88ED00E0EFF3098026
:1002D000BFF36F8F134B1A681EF0100F08BF20ED8D
:1002E000108A20E9F04F106009B44FF0500080F3FD
:1002F0001188BFF34F8FBFF36F8F14F00FFA4FF0D9
:10030000000080F3118809BC19680868B0E8F04F54
:100310001EF0100F08BFB0EC108A80F30988BFF3FD
:100320006F8F70473C000020EFF30580704700009E
:100330000948804709480047FEE7FEE7FEE7FEE779
:10034000FEE7FEE7FEE7FEE7FEE7FEE704480549B5
:10035000054A064B70470000E5DC000889010008EB
:10036000D0A80020D0E80020D0C80020D0C80020AD
:1003700070B5064600F094F9056806F10B0020F010
:100380000704B4429CBF002070BD2B466A68BAB116
:100390001068A04210D304F1080188423CBF5068A5
:1003A000586007D35168101941601168091B01603A
:1003B00058601460101D70BD13465268002AE7D1C2
:1003C0002146284600F074F90028DED170BD70B5D2
:1003D0000446051F00F064F90068002C14BF44684F
:1003E00070BD002C18BFAC423CBF20466468F8D3F7
:1003F00001680A18AA4218BF456003D12A68054659
:100400001144016028684119A1421CBF6C6070BD95
:100410006168696021680844286070BD53EA020C75
:1004200000F069802DE9F04B4FF00006002B1FBF54
:10043000B3FA83F503FA05F424FA05F65E4012BF19
:100440001643B2FA82F502FA05F4C5F120051EBF83
:1004500022FA05FC44EA0C04203556EA044C4FEA23
:10046000144418BF641C4FF000084FF0000990427C
:1004700071EB030C39D3002919BFB1FA81F701FAE6
:1004800007F6B0FA80F700FA07F6C7F120071EBF9B
:1004900020FA07FC46EA0C062037B6FBF4FCA7EB73
:1004A0000507103F07F01F0BCBF120060CFA0BFBE2
:1004B0002CFA06F644BFB3460026202FA4BF5E46A2
:1004C0004FF0000B5BEA060C08BF4FF0010B19EB75
:1004D0000B09ABFB027C48EB0608C01B06FB02CCF9
:1004E0000BFB03CC71EB0C01C1E70B460246414606
:1004F0004846BDE8F08B13B54FF000004FF0000107
:10050000AFF30080BDE81C407047032A40F2308002
:1005100010F0030C00F0158011F8013BBCF1020F44
:10052000624498BF11F801CB00F8013B38BF11F8C5
:10053000013BA2F1040298BF00F801CB38BF00F8DC
:10054000013B11F0030300F02580083AC0F0088059
:1005500051F8043B083A51F804CBA0E80810F5E73D
:10056000121D5CBF51F8043B40F8043BAFF3008020
:10057000D20724BF11F8013B11F801CB48BF11F895
:10058000012B24BF00F8013B00F801CB48BF00F865
:10059000012B704710B5203AC0F00B80B1E818501D
:1005A000203AA0E81850B1E81850A0E81850BFF45D
:1005B000F5AF5FEA027C24BFB1E81850A0E81850FC
:1005C00044BF18C918C0BDE810405FEA827C24BF50
:1005D00051F8043B40F8043B08BF7047D20728BFDE
:1005E00031F8023B48BF11F8012B28BF20F8023B2D
:1005F00048BF00F8012B704702F0FF0343EA0322D3
:1006000042EA024200F002B84FF000020429C0F0B2
:10061000128010F0030C00F01B80CCF1040CBCF134
:10062000020F18BF00F8012BA8BF20F8022BA1EB86
:100630000C0100F00DB85FEAC17C24BF00F8012B6B
:1006400000F8012B48BF00F8012B70474FF0000263
:1006500000B5134694469646203922BFA0E80C50B8
:10066000A0E80C50B1F12001BFF4F7AF090728BF93
:10067000A0E80C5048BF0CC05DF804EB890028BF0F
:1006800040F8042B08BF704748BF20F8022B11F038
:10069000804F18BF00F8012B7047704770477047B4
:1006A0000048704778A8002070477047704770472F
:1006B00038B504460A4600206946AFF3008000289A
:1006C00008BF38BD02460099204600F04FF80120CF
:1006D00038BD012000F064B8F8B5AFF300800546DE
:1006E00000200C46102000BF0646A819A0420DD9D4
:1006F000324669460020AFF30080070008BF00F0D3
:100700004FF80098A04218BF0546C419FFF7C8FF6C
:1007100005600746F01D20F007004619284600F046
:100720000AF8B44208BFF8BDA21B31463868BDE8DC
:10073000F84000F01BB800210160C0E901107047CB
:100740001020704710B500F00DF8006810BD10B50E
:10075000044600F007F8046010BD00000048704730
:1007600070A800200048704770A800200346406829
:100770008C46002818BF88423CBF03464068F8D327
:1007800018681844884207D00CF1030020F00700D5
:10079000001D411A521A0146081D0A60FFF717BED4
:1007A00010B500F039F8BDE8104000F02FB87047E0
:1007B0007546FFF7D3FFAE4605006946534620F065
:1007C0000700854618B020B5FFF7C0FDBDE8204002
:1007D0004FF000064FF000074FF000084FF0000BFD
:1007E00021F00701AC46ACE8C009ACE8C009ACE8B0
:1007F000C009ACE8C0098D46704710B50446AFF398
:1008000000802046BDE81040FFF72BBD002801D036
:1008100000F02AB87047000010B5012805D000216B
:1008200003A000F027F8012010BD09A1F8E700009F
:1008300053494752544D454D3A204F7574206F66C9
:100840002068656170206D656D6F72790000000031
:100850003A2048656170206D656D6F727920636F15
:10086000727275707465640001491820ABBEFEE7B2
:100870002600020070B505460C460A2000E06D1CFB
:1008800000F011F835B128780028F8D102E0641C96
:1008900000F009F814B120780028F8D1BDE87040C4
:1008A0000A20AFF3008008B569468DF800000320E8
:1008B000ABBE08BDF0B581B04FF68311C3F622611F
:1008C00015F0FAFB4FF07A5115F019FB044615F0BC
:1008D00077FB054620460021002715F03CFB002849
:1008E00018BF013D284615F079FB0146204615F05A
:1008F0003CFC4FF0884115F0DFFB054615F067FB27
:10090000044628464FF0444115F0F9FA0646B7EB85
:10091000542F0CBF2E460024204615F096FB0146AE
:10092000304615F022FC05464FF07E50294615F062
:100930001CFC46F2FC67C0F6010757F8241015F0BE
:10094000BBFB064607EB84004168284615F0B4FB64
:100950000146304615F0D3FA01B0F0BD2DE9F04163
:1009600003880F88BB423FD147884E88B7423BD1AE
:100970001688B34238D15688B74235D14668546894
:100980004D6807FB03F80020B0EB980F1BD04FEA2F
:10099000980047423068296815F0B1FA2060706805
:1009A000696815F0ACFA6060B068A96815F0A7FA3C
:1009B000A060F068E96815F0A2FAE0601034103524
:1009C00010360137E6D118F003000BD0474200BFC4
:1009D00056F8040B55F8041B15F091FA44F8040B73
:1009E0000137F5D1002000E0FD2040B2BDE8F081E4
:1009F00043604280018070472DE9F04F93B0B0F81A
:100A000002A0B0F800B0D34540F05D810A88FD2512
:100A1000934540F059814B889A4240F05581476890
:100A2000BBF1000F00F039814C686FF003000197B3
:100A300000274FF07E585E46CDF820A000EB8B09D2
:100A400020460494BBEB060008D0B9002046FFF70F
:100A5000FDFD0020013004348742FBD104F1040A7B
:100A6000751EC4F800800FD0A9EB87015046FFF730
:100A7000EDFD0120544600BF013004348642FBD115
:100A80000137002D2E46DDD1019FDDF820A0BBF1FE
:100A9000000F00F00281042007EB8A023C1DABF13D
:100AA00001080021CDF824A0CDF81CB000EB8A008D
:100AB0000290CAF100000B904FEA8A00129000BF2A
:100AC000594580F0058101FB0AF0109104990597C2
:100AD000002593460392CDF8188057F8209001EB3B
:100AE000800107EB80004F460E910D9008E000BF9B
:100AF0001298DBF80070A8F1010835465844834687
:100B00003846002115F020FA40B93846294615F03C
:100B10000DFA00283E4608D008E000BF87F00046E6
:100B20002846314615F017FA00B92E46B8F1000FE5
:100B3000DED13046002115F0EBF9002840F0C880E6
:100B400029F00040314615F0E3F9DDE9062140B90E
:100B50001098C043401804D0002000BF01308242EA
:100B6000FCD14846002115F0D3F9099E002840F039
:100B7000AF800D994FF07E500F9408601098AAEB4B
:100B80000001012908460C910BD00F9D012400BFE4
:100B90002868494615F0F2F9013445F8040BA642DD
:100BA000F6D10B9C0E9D00BF2868494615F0E6F96A
:100BB00045F8040B0134F7D10C98DDF81C804FF098
:100BC000000B01380A90DDE90465DDE90F4100BF43
:100BD0008B4505D10C9806EB8A0605EB80053CE0B9
:100BE0000D98D5F800900168484615F065FA014661
:100BF000484615F0BAFA45F8040B0A98E0B1CDF86A
:100C00004480DDF8248001274FF0000A54F80A10D0
:100C1000484615F051FA014655F80A0015F0A5FAB4
:100C2000013745F80A000AF1040AB845EED15544E7
:100C3000DDF820A0DDF844800B9F0E9C54F8041BC7
:100C4000484615F039FA0146306815F08EFA46F834
:100C5000040B0137F2D1DDE90F4105EB81050BF102
:100C6000010BB8F10108B3D10298039ADDF818809E
:100C7000059FDDF81CB00131044402440998A8F135
:100C800001080437013809907FF41AAF4846002163
:100C9000002515F03DF9019FB0B10AFB0BF50024CA
:100CA000002645B13868002115F032F918B1013637
:100CB0000437AE42F6D3AE4208BF6FF004042046BC
:100CC00013B0BDE8F08FFD2568B213B0BDE8F08F1A
:100CD000FB25F9E72DE9F04F91B047880B889F423B
:100CE00040F0AF80068813889E4240F0AA804D886D
:100CF00053889D4240F0A58052684FF00009496832
:100D00004FEA850805960497039502924268A9EB7D
:100D100097000191079027F0030002EB80000C92EE
:100D20000990B8080B90684301EB00102946009029
:100D300007F003000A904042069000BF029800EBC3
:100D4000890ADDE9000BCDF8209010900B980F91E7
:100D5000002847D0CDF838A0CDF834B0D946DDF81A
:100D60001CA0DDF830B000249BE8C100D9F80010C9
:100D7000DBF80C5015F0A0F90146204615F0BFF83D
:100D800059F808100446304615F096F901462046F9
:100D900015F0B5F809EB08060446384656F8081071
:100DA00015F08AF90146204615F0A9F84644044694
:100DB000284656F8081015F07FF90146204615F030
:100DC0009EF8044606EB08000BF1100B1AF1010A1D
:100DD00000EB0809C8D1109DDDE90896DDE90DBAE0
:100DE00003E000BF0C9E00245D460A9868B1069F90
:100DF00056F8040B296815F05FF90146204615F0F6
:100E00007EF8044645440137F2D110980F994AF80C
:100E1000044B0BF1040B04300139109096D1049867
:100E2000099901EB800109910C9901EB800105986A
:100E30000C9103990138894405907FF47FAF00201D
:100E400000E0FD2040B211B0BDE8F08F2DE9F04187
:100E500003880F88BB423FD147884E88B7423BD1B9
:100E60001688B34238D15688B74235D1466854689F
:100E70004D6807FB03F80020B0EB980F1BD04FEA3A
:100E8000980047423068296815F06FF92060706853
:100E9000696815F06AF96060B068A96815F065F9CD
:100EA000A060F068E96815F060F9E0601034103572
:100EB00010360137E6D118F003000BD0474200BFCF
:100EC00056F8040B55F8041B15F04FF944F8040BC1
:100ED0000137F5D1002000E0FD2040B2BDE8F081EF
:100EE0002DE9F04F82B0B0F800E04B889E454BD121
:100EF00044880B889C4247D100234E6804F0030BC2
:100F000040684FEA0E184FEA940AA3EB9401CBF124
:100F1000000901914FEA8E0132460096BAF1000FA6
:100F20001CD0019F344600BF2546046801372C6061
:100F300044686C5005EB0104D0F808C044F801C0C7
:100F40000C44C26800F11000625004EB010202EB95
:100F50000104E9D105EB080703E000BF009A02EBAA
:100F60008307BBF1000F07D04D4600BF50F8042B9C
:100F700001353A600F44F9D10436BEF1010E03F198
:100F80000103CBD1002000E0FD2040B202B0BDE85B
:100F9000F08FF0B581B04FF68311C3F6226115F0E2
:100FA0008BF8044615F00CF8054620460021002772
:100FB00014F0D1FF002818BF013D284615F00EF8A7
:100FC0000146204615F0D1F84FF0884115F074F82D
:100FD000054614F0FCFF044628464FF0444114F047
:100FE0008EFF0646B7EB542F0CBF2E46002420463A
:100FF00015F02BF80146304615F0B7F805464FF0CE
:101000007E50294615F0B1F846F2FC67C0F601079C
:1010100057F8241015F050F8064607EB8400416895
:10102000284615F049F80146304614F068FF01B033
:10103000F0BD000008B500BF4FF4FA6013F024FAC9
:101040000B4802F0A1F8012013F01EFA0FE014F093
:1010500021F80090064802F097F805480C3880ED1A
:10106000040A12F021F80421684613F03BFAEEE777
:101070006476002070B505460C4600260DB1022CA2
:1010800000D870BD611EFF22284602F0F1FB064623
:10109000601E2E5400BFF4E710B501221021024853
:1010A00004F038FC10BD00000000024010B5002222
:1010B0001021024804F02EFC10BD00000000024088
:1010C00070B50024FFF7F2FF802000F0DFF9552013
:1010D00000F0DCF9552000F0D9F90546FFF7DCFFF8
:1010E0001E2D01D144F0010400F01AF8802000F018
:1010F000CDF9552000F0CAF9054600F007F80F2D8C
:1011000001D144F00204204670BD000010B5012258
:101110001146024804F0FEFB10BD0000000402402E
:1011200010B500220121024804F0F4FB10BD0000BC
:101130000004024010B50446FFF7B8FF922000F00B
:10114000A5F906229549122000F080F9FFF7A4FFC7
:1011500092484078000200B29049097808439049CB
:1011600008800846B0F9000000EE100AB8EEC00A88
:101170008C48D0ED000A20EE200AD4ED080A20EEBB
:10118000200A84ED000A8548C078000200B2834935
:1011900089780843824908800846B0F9000000EECB
:1011A000100AB8EEC00A7F48D0ED000A20EE200AEF
:1011B000D4ED080A20EE200A84ED010A7748407930
:1011C000000200B27549097908437549088008464C
:1011D000B0F9000000EE100AB8EEC00A7148D0ED78
:1011E000000A20EE200AD4ED080A20EE200A84ED41
:1011F000020AFFF795FF08226849002000F026F94F
:10120000FFF784FF654800780F284FD166480078C3
:10121000F0B36248C078000200B2604989780843A0
:101220005F49088094ED090A0846B0F9000000EE15
:10123000900AF8EEE00A5D4890ED001A10EE810A7F
:1012400084ED030A55484079000200B253490979F8
:1012500008435349088094ED0A0A0846B0F9000093
:1012600000EE900AF8EEE00A504890ED001A10EEF9
:10127000810A84ED040A4948C079000200B2474956
:10128000897908434649088094ED0B0A084600E036
:101290000DE0B0F9000000EE900AF8EEE00A4348D5
:1012A00090ED001A10EE810A84ED050A44E03B48F7
:1012B000C078000200B2394989780843384908806B
:1012C0000846B0F9000000EE100AB8EEC00A374830
:1012D000D0ED000A20EE200A84ED030A2F48407961
:1012E000000200B22D49097908432D4908800846BB
:1012F000B0F9000000EE100AB8EEC00A2B48D0ED9D
:10130000000A20EE200A84ED040A2448C079000275
:1013100000B2224989790843214908800846B0F97A
:10132000000000EE100AB8EEC00A2048D0ED000A16
:1013300020EE200A84ED050AFFF7B8FEA22000F097
:10134000A5F802221549222000F080F8FFF7A4FE3C
:1013500012480078C0001149497840EA61101049EC
:1013600008800846B0F90000B0F5806F05DB08463C
:101370000088A0F5006000B208800948B0F90000BC
:1013800000EE100AF8EEC00AB4EE001AB3EE070A37
:1013900000EE810A84ED070A10BD0000C606002099
:1013A000CE06002084060020940600208806002037
:1013B00070B504460D461C48046000201B490870A7
:1013C00011F09EF91949097808431849087011F07D
:1013D0004DFA164909780843144908701DB114489C
:1013E00000F014FA1CE09FED130A114880ED090A81
:1013F0009FED110A80ED0A0A9FED100A80ED0B0A9D
:101400009FED0F0A80ED0C0A90ED0C0ADFED0D0A3E
:1014100080EE801A80ED081A9FED0B0A80ED060A17
:101420000248007870BD0000980600208E0600205B
:101430001CA40020D978A83AA279E4BB4A177E3AC6
:101440004D271C41C3F51C4100000F4270B50646F4
:101450000C46154646F0800000F018F806E05520CE
:1014600000F014F82070641C681EC5B2002DF6D17F
:1014700070BD70B504460D4644F0800000F006F8DB
:10148000552000F003F8287070BD000001B582B04F
:10149000002001904FF47A70012301AA02A9009064
:1014A000044805F0E7FF08B100200EBD9DF80400D8
:1014B000FBE70000DC0E002070B505460C46284610
:1014C000FFF7E4FF2046FFF7E1FF70BD10B50748C6
:1014D000D0F87F0700EE100ADFED050A054810F08E
:1014E00009F9054880ED000A10BD00007878002059
:1014F0000000B443208100206804002000BF05489C
:1015000090EDFC0A044880ED0B0A9FED040A80ED83
:101510000A0A7047787C0020E88000200000000064
:10152000D2ED020A92ED021AB6EE000A00EEC10AEE
:10153000D2ED030A92ED031A00EEC10AD0ED000AC3
:1015400020EE200AD2ED010A92ED021A60EE810A25
:1015500092ED001AD2ED031A41EE610A90ED011AE4
:1015600000EE810AD2ED010A92ED031A60EE810AC3
:1015700092ED001AD2ED021A41EE210A90ED021A04
:1015800000EE810AF0EE000A20EE200A81ED000A4A
:1015900092ED010AD2ED020A20EE200AD2ED000AF5
:1015A00092ED031A00EE810AD0ED000A60EE200AE7
:1015B00092ED011AD2ED011AB6EE000A01EE610AAF
:1015C000D2ED031A92ED032AB0EE401A01EEC21AD0
:1015D000D0ED011AB0EE600A01EE210AD2ED020A46
:1015E00092ED031A60EE810A92ED001AD2ED011A13
:1015F00041EE610A90ED021A00EE810AF0EE000A57
:1016000020EE200A81ED010A92ED010AD2ED030AD3
:1016100020EE200AD2ED000A92ED021A00EEC10A75
:10162000D0ED000A20EE200AD2ED020A92ED031A54
:1016300060EE810A92ED001AD2ED011A41EE210A04
:1016400090ED011A00EE810A92ED011AD2ED011A15
:10165000F6EE000A41EE610A92ED021AD2ED021A8C
:1016600041EE610A90ED021A00EE810AF0EE000AE6
:1016700020EE200A81ED020A7047000010B504F048
:10168000ADFA0CF0D5FA09F01FF909F095F809F058
:10169000D9FA09F0B7FB09F0B7FA09F049F809F0EF
:1016A0002BFB09F0F3FA09F065F809F00DFC09F0DD
:1016B0002BFCA82001F0E0FD11F082F909F050FBAD
:1016C000034806F0FFF80821014806F005FB10BDAD
:1016D0003C10002000BFFEE710B5024803F06AFB93
:1016E00010BD0000380E002010B5024803F062FB68
:1016F00010BD0000380E002010B5024803F05AFB60
:1017000010BD0000380E002010B5024803F052FB57
:1017100010BD0000600E002010B5024803F04AFB27
:1017200010BD0000600E002010B5024803F042FB1F
:1017300010BD0000600E00200346042B15D007DC0E
:101740007BB1012B0ED0022B0DD0032B12D10BE05D
:10175000202B0BD0212B0AD0222B09D0232B09D1EF
:1017600007E008E007E006E005E004E003E002E04F
:1017700001E000E000BF00BF00207047002070477C
:1017800010B50022044905480DF007FB0449034841
:101790000DF0F4FA002010BD0C93002030880020DA
:1017A0000C8B002070B504460D46204629680AF0CF
:1017B00041FE214603480DF0E1FA02480DF0AAFA75
:1017C000002070BD3088002010B503460C46002173
:1017D000084610BD2DE9F04104460D4600260A4892
:1017E000D0F8BC72D7F8140210B10120BDE8F08126
:1017F0002A46214604480DF0D0FA03480DF080FB3C
:1018000006463046F2E700003088002070B52DED26
:10181000048B88B0044600200690079001F0DAFCA3
:10182000FE4880ED000A00BF01F0D4FCFB48D0ED7B
:10183000000A30EE600AF2EE040AB4EEE00AF1EEBD
:1018400010FA14DD9FEDF60A84ED090A9FEDF50A02
:1018500084ED0A0A9FEDF40A84ED0B0A9FEDF30A6A
:1018600084ED0C0A9FEDF20A84ED060A57E29FED23
:10187000F10A01F06BFC9FEDF00A84ED0C0A9FED7C
:10188000EE0A84ED090A9FEDEC0A84ED0A0A9FED49
:10189000EA0A84ED0B0A002673E1FFF707FC9220A9
:1018A000FFF7F4FD062206A91220FFF7CFFDFFF790
:1018B000F3FB9DF81900000200B29DF8181040EAF1
:1018C000010500EE105AB8EEC00ADC48D0ED000A5F
:1018D00020EE200A84ED000A9DF81B00000200B2F1
:1018E0009DF81A1040EA010500EE105AB8EEC00A41
:1018F000D248D0ED000A20EE200A84ED010A9DF8BE
:101900001D00000200B29DF81C1040EA010500EE27
:10191000105AB8EEC00AC948D0ED000A20EE200ADD
:1019200084ED020AD4ED000A60EEA00A94ED011ADB
:10193000D4ED011A41EE210A94ED021AD4ED021AF7
:1019400041EE210AB0EE600A10F0A8FCB0EE408A29
:1019500094ED0C0A30EE080A84ED0C0AFFF7E0FB68
:10196000082206A90020FFF771FDFFF7CFFB9DF8C5
:1019700018000F2850D19DF81B00000200B29DF8FE
:101980001A1040EA010500EE105AB8EEC00AAC4841
:10199000D0ED000A20EE200A84ED030A94ED090A36
:1019A000D4ED030A30EE200A84ED090A9DF81D00EB
:1019B000000200B29DF81C1040EA010500EE105A2A
:1019C000B8EEC00A9E48D0ED000A20EE200A84ED51
:1019D000040A94ED0A0AD4ED040A30EE200A84EDDC
:1019E0000A0A9DF81F00000200B29DF81E1040EA8E
:1019F000010500EE105AB8EEC00A9148D0ED000A79
:101A000020EE200A84ED050A94ED0B0AD4ED050AB8
:101A100030EE200A84ED0B0A06BBF0EE488AB0EEE9
:101A2000489A002017E004F10C0101EB800191EDD0
:101A3000000A03A901EB800181ED000A04F10C0109
:101A400001EB800191ED000A694601EB800181ED17
:101A5000000A411CC8B20328E5DB49E0B4EEE88A7D
:101A6000F1EE10FA01DDF0EE488AB4EEC98AF1EE2B
:101A700010FA01D2B0EE489A002037E004F10C01D0
:101A800001EB800191ED000A03A901EB8001D1ED8A
:101A9000000AB4EEE00AF1EE10FA0ADD04F10C01DE
:101AA00001EB800191ED000A03A901EB800181EDBA
:101AB000000A04F10C0101EB800191ED000A694676
:101AC00001EB8001D1ED000AB4EEE00AF1EE10FA6C
:101AD0000AD204F10C0101EB800191ED000A694684
:101AE00001EB800181ED000A411CC8B20328C5DB6F
:101AF00038EEC90A534880ED000A002012E003A91D
:101B000001EB800191ED000A694601EB8001D1ED06
:101B1000000A30EE600A4C4901EB800181ED000AB9
:101B2000411CC8B20328EADB464890ED000AF6EEF5
:101B3000000AB4EEE00AF1EE10FA1BDC424890ED28
:101B4000000ADFED420AB4EEE00AF1EE10FA11DC11
:101B500090ED010ADFED3D0AB4EEE00AF1EE10FA75
:101B600008DC90ED020ADFED390AB4EEE00AF1EE8E
:101B700010FA00DD0AE09FED360A01F0E7FA701C6A
:101B800086B2344800888642FFF687AE00BFD4EDA7
:101B90000C0A3048008800EE100AB8EE400A80EEC9
:101BA000801A84ED0C1A002015E004F1240101EBE9
:101BB0008001D1ED000A2749098800EE101AB8EE1D
:101BC000400A80EE801A04F1240101EB800181EDCE
:101BD000001A411CC8B20328E7DBFFF767FAA2200E
:101BE000FFF754FC022206A92220FFF72FFCFFF783
:101BF00053FA9DF81800C0009DF8191040EA6115CD
:101C0000B5F5806F02DBA5F5006005B200EE105A55
:101C1000F8EEC00AB4EE001A1EE00000C006002074
:101C2000D978A83AA279E4BB4A177E3A4D271C41DD
:101C300000000F420AD7A33B0000000084060020EA
:101C4000880600209006002010A400209A99193ED2
:101C50006F12033AC4060020B3EE070A00EE810AB1
:101C600084ED060A34480088401C00B232490880DE
:101C7000324890ED000ADFED320AB4EEE00AF1EEF0
:101C800010FA3FF7D1AD94ED0C0ADFED2E0A30EEDD
:101C9000600AB0EEC00AF6EE000AB4EEE00AF1EE19
:101CA00010FAEEDC284890ED000A5FED180AB4EE59
:101CB000E00AF1EE10FAE4DC90ED010A5FED1D0A96
:101CC000B4EEE00AF1EE10FADBDC90ED020A5FED13
:101CD000210AB4EEE00AF1EE10FAD2DC94ED090A22
:101CE000B0EEC00ADFED190AB4EEE00AF1EE10FA28
:101CF000C7DC94ED0A0AB0EEC00ADFED140AB4EEB8
:101D0000E00AF1EE10FABCDC94ED0B0AB0EEC00A6A
:101D1000DFED0E0AB4EEE00AF1EE10FAB1DC00BF1E
:101D200094ED0C0ADFED0A0A80EE801A84ED081AA1
:101D300008B0BDEC048B70BD960600209006002014
:101D4000CDCC4C3FCDCC1C4110A400200AD7233C65
:101D5000C3F51C417047704738B504460848046015
:101D600000200749087148718871C8710548064B01
:101D70004FF4AD720090054800F00AF838BD00003D
:101D8000120500201C050020F8850020380E0020D8
:101D90002DE9F0472DED028B82B082460D461646A6
:101DA0001C46DDF8309001F043FA074614F01DF9A7
:101DB00008EE100A1CE001F03BFA074614F015F992
:101DC00000EE100A30EE480ADFED1E0AB4EEE00A1B
:101DD000F1EE10FA0CDD1C48D0F8D400401C1A4972
:101DE000C1F8D400002002B0BDEC028BBDE8F08742
:101DF000504602F0C4FF0028DDD001F019FA074672
:101E000014F0F3F800EE100A30EE480ABCEEC00AF7
:101E100089ED000A26600020A060E06008202061B3
:101E200001AB2A462146504602F0A7FD40B10648C4
:101E3000D0F8D400401C0449C1F8D4000020D2E7F7
:101E40000120D0E70000484314A700201CB500BFC4
:101E500041F2883012F018FB40E013F01BF90190BA
:101E60001F49086800EBD0714910A0EB410181B90E
:101E70000AF0A6FD1B481C490A68026049684160D7
:101E80001A481B4B4FF4A872164900901948FFF7E7
:101E90007FFF13480068322190FBF1F201FB120032
:101EA00098B90AF045FE0F4813490A6882604968EC
:101EB000C1600E48001D0E4B183340F25112094903
:101EC000083100900B48FFF763FF05480068401C8D
:101ED00003490860012101A812F004FBBDE70000DE
:101EE000D806002050A400204B040020D00600207B
:101EF00060A40020380E0020530400202DE9F04398
:101F00002DED028B83B081460027B84609F06CFFA7
:101F10000546FE4890F84C00042806D111F0D2FF87
:101F200003B0BDEC028BBDE8F08375B9F848C0780A
:101F3000022807D0F648C078052803D0F448C078B6
:101F4000062802D1012012F019F8F148B0F8150066
:101F5000032803D0002011F0D0F885E2EC48B0F857
:101F6000170001280ED112F017F8012011F0EAFF36
:101F7000032012F023F8E648C07808BB012011F0D6
:101F8000FDFF1DE0E248B0F8170003280CD1012046
:101F900012F002F8012011F0D5FF032012F00EF824
:101FA000012011F0EBFF0BE0012011F0F5FF012003
:101FB00011F0C8FF002012F001F8012011F0DEFF3F
:101FC00000200BF081FA002012F002F8D048B0F89F
:101FD0004F000290CE48B0F85100CD49B1F84F10F3
:101FE0004840CB49B1F84F100840C949A1F8530007
:101FF0000846B0F85100B1F84F104840C449B1F854
:1020000051100840C249A1F85500BDF80810C04859
:10201000A0F851109FEDBF8ADFEDBE8A012423E1B5
:10202000BDF8080000EA0406B6F5807F38D012DC5F
:10203000102E2BD008DC012E53D0022E4AD0042EB5
:1020400041D0082E54D137E0202E23D0402E25D069
:10205000802E4DD123E0B6F5805F29D009DCB6F59E
:10206000007F1FD0B6F5806F1DD0B6F5006F3FD151
:102070001DE0B6F5005F1CD0B6F5804F03D0B6F575
:10208000004F35D135E04FF0010832E0012011F06A
:102090009FFF2EE0032011F055FF2AE029E028E001
:1020A000012726E025E001200BF00EFA21E020E0D8
:1020B0001FE04FF001081CE0B7EE000A38EE000AFE
:1020C000B0EE408A15E0B7EE000A38EE400AB0EEF6
:1020D000408A0EE0B7EE000A38EEC00AF0EE408A01
:1020E00007E0B7EE000A38EE800AF0EE408A00E022
:1020F00000BF00BF8648B0F8530000EA0406B6F5FA
:10210000807F3BD012DC102E29D008DC012E50D06D
:10211000022E4DD0042E4AD0082E4BD146E0202E60
:102120001ED0402E1DD0802E44D126E0B6F5805F13
:1021300031D009DCB6F5007F21D0B6F5806F1FD015
:10214000B6F5006F36D11CE0B6F5005F2DD0B6F5C0
:10215000804F03D0B6F5004F2CD12CE02BE02AE0C5
:1021600029E06B48C07A012803D100206849C87271
:1021700002E001206649C8721DE01CE01BE01AE085
:1021800019E027B11DB1052011F0F8FE02E0012091
:1021900011F0F4FE0FE027B11DB1062011F0EEFEA4
:1021A00002E0012011F0EAFE05E004E003E002E0B5
:1021B00001E000E000BF00BF5548B0F8550000EA5C
:1021C0000406B6F5807F3FD012DC102E29D008DC43
:1021D000012E42D0022E3FD0042E3CD0082E3DD1FD
:1021E00038E0202E1ED0402E23D0802E36D121E084
:1021F000B6F5805F2CD009DCB6F5007F25D0B6F5AA
:10220000806F23D0B6F5006F28D120E0B6F5005FCF
:102210001FD0B6F5804F03D0B6F5004F1ED11EE09B
:102220001DE01CE03C48808A401C00B23A4988828C
:1022300015E014E0394890EDFE0ADFED390A30EE82
:10224000200A80EDFE0A0AE009E008E007E006E067
:1022500005E004E003E002E001E000E000BF00BFB1
:102260004FF6FF7000EA4404002C3FF7D9AE2A482D
:1022700080ED008AC0ED018A2548007A032818D134
:10228000B7EE000A244880ED020A0146B1F91400B5
:1022900000EBD0714910A0EB410101290ED11E487D
:1022A00090ED020AFFEE000A20EE200A80ED020AFD
:1022B00004E09FED180A184880ED020AB8F1000FFB
:1022C0000AD0022011F03EFE1648807820F001006E
:1022D000401C1449887005E01248807820F0010005
:1022E000104988700A48C078012803D00848C0788F
:1022F000032820D1094890EDFE0A0548B0F94100B5
:1023000000EE900AF8EEE00A0EE00000C0A6002001
:102310007E8300200000000058760020787C00209A
:10232000000034434B0400209FED501A00EEC10A18
:102330004F4880EDFE0A4F4890EDFE0A4E48B0F936
:10234000430000EE900AF8EEE00A9FED481A00EE16
:10235000C10A484880EDFE0A90EDFE0A4648B0F9F1
:10236000450000EE900AF8EEE00A9FED441A00EEF8
:10237000C10A404880EDFE0A3F4890F847000190AE
:102380003D4890F849009DF8041048409DF804101D
:102390000140394880F84B1090F849009DF804102E
:1023A0004840354991F849100140334880F84C10B5
:1023B0009DF8041080F849109DF8040020B1012018
:1023C0002F4981F8A00103E000202D4981F8A001E8
:1023D000294890F84B0018B10120274981F858008E
:1023E000254890F848000090234890F84A009DF84E
:1023F000001048409DF8001001401F4880F84D1023
:1024000090F84A009DF8001048401B4991F84A1086
:102410000140194880F84E109DF8001080F84A10CD
:102420009DF8000038B135B11348C078012802D1B9
:10243000022011F0A3FD104890F84E0030B10E4874
:10244000C078022802D1012011F098FD0D4890F8C3
:102450004D00062807D10B4890F84E00082802D1FD
:10246000002011F08BFD00BF00BF59E50AD7A33B48
:10247000787C0020787800207E8300206F12833AD9
:10248000D8830020C0A6002070B588B0044601A8FB
:1024900009F06EFC05460026FE48B0F8170001283A
:1024A0007DD0022802D003287AD110E1F948B0F893
:1024B0001500012875D0022802D0032872D107E048
:1024C00011F000FD0020F4490860F4490860FCE0C8
:1024D000012011F061FD032011F034FD002011F006
:1024E0006DFD012011F04AFD002011F071FDE94859
:1024F000B0F81100A0F5806000EE100AB8EEC00A36
:10250000DFEDE70A20EE200A9FEDE61AC0EE010A91
:1025100094ED041AE44890EDFE0A00EEC10A80ED45
:10252000FE0ADC48B0F81300A0F5806000EE100A47
:10253000B8EEC00ADFEDDD0A20EE200A9FEDD91AC1
:10254000C0EE010A94ED041AD94890EDFE0A00EE9F
:10255000810A80EDFE0ACF48B0F80F00A0F5806038
:1025600000EE100AB8EEC00AF7EE000A60EE200A8C
:102570009FEDCC1A80EE810AF0EE080A20EE200AC8
:10258000CC4880ED000AC348B0F80D00A0F580608B
:1025900000EE100AB8EEC00AF7EE000A03E040E1D0
:1025A00034E312E089E060EE200A9FEDBE1A80EE6F
:1025B000810AF0EE080A20EE200ABE4880ED010AEA
:1025C000BAEE000A80ED020A7FE0012011F0E4FC7F
:1025D000032011F0B7FC002011F0F0FC012011F0F5
:1025E000CDFC012011F0F4FCAA48B0F81100A0F5D0
:1025F000806000EE100AB8EEC00ADFEDA90A20EEF6
:10260000200A9FEDA81AC0EE010A94ED041AA6480C
:1026100090EDFE0A00EEC10A80EDFE0A9D48B0F87A
:102620001300A0F5806000EE100AB8EEC00ADFEDDE
:102630009F0A20EE200A9FED9B1AC0EE010A94ED3E
:10264000041A9B4890EDFE0A00EE810A80EDFE0A16
:102650009048B0F80F00A0F5806000EE100AB8EEC8
:10266000C00AF7EE000A20EE200ADFED8E0A80EEA7
:10267000201AB0EE080A21EE000A8E4880ED000A0A
:102680008448B0F80D00A0F5806000EE100AB8EEA6
:10269000C00AF7EE000A60EE200A9FED821A80EE73
:1026A000810AF0EE080A20EE200A824880ED010A35
:1026B000B2EE080A80ED020A07E011F003FC0020E8
:1026C000754908607549086000BF00BFA1E2714804
:1026D000B0F81B00022824D115B909F0BDFC98E21E
:1026E0000D20754981F85200012011F055FC0120A0
:1026F00011F028FC002011F061FC012011F03EFCDB
:10270000002011F065FC9DED030A6A4880ED000A87
:102710009DED040A80ED010A9FED680A80ED020A32
:102720007EE05C48B0F8150001280AD0022802D0EB
:10273000032871D102E009F0E5FD70E009F0E2FD47
:102740006DE015B909F088FC69E00D205A4981F85F
:102750005200012011F020FC002011F0F3FB0420B6
:1027600011F02CFC022011F009FC002011F030FCCB
:102770004848B0F81100A0F5806000EE100AB8EEED
:10278000C00ADFED470A20EE200A9FED461AC0EE90
:10279000010A94ED041A444890EDFE0A00EEC10AC5
:1027A00080EDFE0A3B48B0F81300A0F5806000EE13
:1027B000100AB8EEC00ADFED3D0A20EE200A9FEDB8
:1027C000391AC0EE010A94ED041A394890EDFE0A58
:1027D00000EE810A80EDFE0A9FED380A354880ED53
:1027E000000A9FED360A80ED010A9FED340A80ED64
:1027F000020A2848B0F80F00A0F58060B0F5A57F68
:1028000004DD01202E4981F8A00103E000202C49BD
:1028100081F8A00103E0FFE711F054FB00BF00BF07
:10282000F7E11C48B0F8150001287DD0022802D03D
:1028300003287AD19CE0012011F0AEFB012011F0B9
:1028400081FB002011F0BAFB012011F097FB002062
:1028500011F0BEFB00201B4981F831000E490860D1
:102860000C48B0F81100A0F5806000EE100AB8EE38
:10287000C00ADFED0B0A20EE200A9FED0A1AC0EE17
:10288000010A94ED041A084890EDFE0A00EEC10A10
:102890001AE000007E8300205C0400206004002019
:1028A0000000344300002544787C00200000C8422A
:1028B0007878002058760020C0A600200000000094
:1028C000D8830020E880002080EDFE0AD548B0F8CB
:1028D0001300A0F5806000EE100AB8EEC00A5FEDAC
:1028E0000D0A20EE200A1FED111AC0EE010A94ED28
:1028F000041ACD4890EDFE0A00EE810A80EDFE0A32
:10290000C848B0F80F00A0F5806000EE100AB8EEDD
:10291000C00AF7EE000A60EE200A1FED1E1A80EED4
:10292000810AF0EE080A01E0B1E06AE120EE200A37
:10293000BE4880ED000ABB48B0F80D00A0F58060ED
:1029400000EE100AB8EEC00AF7EE000A60EE200AA8
:102950001FED2C1A80EE810AF0EE080A20EE200A04
:10296000B24880ED010A1FED2B0A80ED020A4BE10F
:10297000012011F011FB052011F0E4FA002011F004
:102980001DFB012011F0FAFA012011F021FB0020BB
:10299000A74981F83100A748006878B9A64890EDAA
:1029A000FC0AB0EE401AFA21F7EE000AB1EE080A6E
:1029B000A2480AF035FA01209E4908609948B0F80B
:1029C0001100A0F5806000EE100AB8EEC00A5FEDBD
:1029D0004C0A20EE200A1FED4D1AC0EE010A94EDBC
:1029E000041A954890EDFE0A00EEC10A80EDFE0A39
:1029F0008C48B0F81300A0F5806000EE100AB8EE25
:102A0000C00A5FED560A20EE200A1FED5A1AC0EEEA
:102A1000010A94ED041A844890EDFE0A00EE810A42
:102A200080EDFE0A7F48B0F80F00A0F5806000EE50
:102A3000100AB8EEC00AF7EE000A60EE200A1FED99
:102A4000671A80EE810AF0EE080A20EE200A774825
:102A500080ED000A7348B0F80D00A0F5806000EE2C
:102A6000100AB8EEC00AF7EE000A60EE200A1FED69
:102A7000731A80EE810AF0EE080A20EE200A6B48F5
:102A800080ED010A1FED730A80ED020ABCE001200F
:102A900011F082FA022011F055FA012011F06EFABD
:102AA0006048B0F81300A0F58060002805DD5D489F
:102AB000B0F81300A0F5806005E05A48B0F81300A4
:102AC0004042A0F58060B0F5A57F15DC5548B0F810
:102AD0001100A0F58060002805DD5248B0F8110013
:102AE000A0F5806005E04F48B0F811004042A0F525
:102AF0008060B0F5A57F2FDD4A48B0F80F00A0F543
:102B00008060002805DD4748B0F80F00A0F5806020
:102B100005E04448B0F80F004042A0F58060B0F5F1
:102B2000A57F15DC3F48B0F80D00A0F580600028B7
:102B300005DD3C48B0F80D00A0F5806005E039489F
:102B4000B0F80D004042A0F58060B0F5A57F03DD30
:102B5000062011F033FA02E0032011F02FFA0020D2
:102B600011F036FA0020324981F831002D48B0F8D2
:102B70001100A0F5806000EE100AB8EEC00A5FED0B
:102B8000B80A20EE200A1FEDB91AC0EE010A94ED32
:102B9000041A294890EDFE0A00EEC10A80EDFE0AF3
:102BA0002048B0F81300A0F5806000EE100AB8EEDF
:102BB000C00A5FEDC20A20EE200A1FEDC61AC0EE61
:102BC000010A94ED041A184890EDFE0A00EE810AFD
:102BD00080EDFE0A1FEDC70A144880ED020A114875
:102BE000B0F80F00A0F58060B0F5A57F04DD0120EE
:102BF000134981F8A00103E00020114981F8A001E8
:102C000002E011F05FF900BF00BF02E011F05AF9D5
:102C100000BF00BF0348B0F81510A0F81B1008B0A3
:102C200070BD00007E830020787800205876002058
:102C3000E88000205C040020787C0020747600206E
:102C4000D883002010B5024802F0C0FB10BD000080
:102C50005C11002010B5024802F0B8FB10BD000066
:102C6000340F002010B5024802F0B0FB10BD000088
:102C7000940F00200146087810381823B0FBF3F2B7
:102C80000848805CC865032A05D908686FF3090005
:102C9000001D886503E008686FF309008865886D8A
:102CA0007047000008620108014600208A6A8B69AB
:102CB000CBB932B1012A0DD0022A03D0032A10D198
:102CC0000EE000BFCB6A03F08073B3F1807F00D1C8
:102CD000012007E0CB6AB3F1C07F00D1012001E001
:102CE00000E000BF34E08B69B3F5005F1AD132B168
:102CF000012A07D0022A03D0032A11D10AE000BF1B
:102D000001200EE0CB6A03F08073B3F1807F00D125
:102D1000012006E0CB6AB3F1C07F00D1012000E0C2
:102D200000BF15E032B1012A05D0022A04D0032ADF
:102D30000CD103E000BF00BF012008E0CB6A03F024
:102D40008073B3F1807F00D1012000E000BF00BF9D
:102D50007047000010B590F833300D2B05D19B4B18
:102D60001C680C605B684B6010BD12B190F8263097
:102D700043B9974B1C680C605B684B60012380F87B
:102D8000263020E1012A05D1924B1C680C605B685B
:102D90004B6018E1036800EE103AD0F81E3000EEE8
:102DA000903AF1EE600AB4EEE00AF1EE10FA06D8BD
:102DB000D0F81E3000EE103AB1EE400A13E003687E
:102DC00000EE103AD0F81E3000EE903AB4EEE00A71
:102DD000F1EE10FA04DBD0F81E3000EE103A02E0FB
:102DE000036800EE103A10EE103A0360436800EEFC
:102DF000103AD0F8223000EE903AF1EE600AB4EECC
:102E0000E00AF1EE10FA06D8D0F8223000EE103ABF
:102E1000B1EE400A13E0436800EE103AD0F82230D9
:102E200000EE903AB4EEE00AF1EE10FA04DBD0F8CE
:102E3000223000EE103A02E0436800EE103A10EE45
:102E4000103A4360C36800EE103AD0F81A3000EE32
:102E5000903AB1EE601ADFED601AF7EE000A41EE2B
:102E6000210AB4EEE00AF1EE10FA0CD8D0F81A30CC
:102E700000EE103AF1EE400A9FED571AB7EE000A45
:102E800000EE810A1FE0C36800EE903AD0F81A30D5
:102E900000EE103ADFED501AB7EE001A10EE211ACC
:102EA000F4EEC10AF1EE10FA0ADBD0F81A3000EEA7
:102EB000903A9FED491AB7EE000A10EE810A02E03F
:102EC000C36800EE103A10EE103AC3604389002B3D
:102ED00001DC002305E04389052B01DB052300E02D
:102EE000438943810389002B01DC002307E0038928
:102EF000B3F5FA7F02DB4FF4FA7300E00389038134
:102F0000036800EE103AD0F81E3000EE903A80EEE2
:102F1000201ADFED320A9FED310A01EE200ABCEEE5
:102F2000C00A10EE103A0382436800EE103AD0F85F
:102F3000223000EE903A80EE201ADFED290A9FED54
:102F4000280A01EE200ABCEEC00A10EE103A4382B5
:102F5000C36800EE103ADFED200A80EE201AD0F8A8
:102F60001A3000EE103AC1EE000A9FED1D1A9FEDD7
:102F70001C0A00EE810ABCEEC00A10EE103A038370
:102F8000038983824389C382038A1B0A0B70037CF3
:102F90004B70438AC3F307138B70037C1B071B0E14
:102FA000848A43EA1423CB70037D0B71C38AC3F375
:102FB00007134B71837D1B02DBB2048B43EA14239E
:102FC0008B71037ECB7100BFCEE60000F7050020B9
:102FD000E7050020EF05002000007A4400000047CC
:102FE0000000004500211A30017310EE101A4160F4
:102FF00010EE901A016011EE101A81601A387047B5
:103000002DE9F0472DED068B05460C46A87869782A
:1030100040EA0126E8780001297940EA2117687919
:10302000297901F00F0140EA0128A8791A34A07625
:10303000E879E076A7F5006000EE100AB8EEC00A65
:103040009FED301AC0EE010AA06800EE100A20EED3
:10305000800A10EE100AC4F81100A6F5004000EE38
:10306000100AB8EEC00A9FED281AC0EE010A606887
:1030700000EE100A20EE800ADFED240A80EE201A0E
:1030800011EE109A484612F00FFF41EC1A0B9FED1B
:10309000200B53EC102B12F0DDFC41EC190B9FEDD3
:1030A0001C0B53EC102B12F08DFA41EC180B12F0A4
:1030B00057FAC4F80D00A8F5006000EE100AB8EE4B
:1030C000C00A9FED101AC0EE010A206800EE100A37
:1030D00020EE800ADFED100A20EE200A10EE100A22
:1030E000C4F8150095F800A04FEA2A106076607EBB
:1030F0001A3C10B9002084F82600BDEC068BBDE810
:10310000F08700000000004500000047DB0F494049
:10311000000000000080664000007A4408B50848BE
:1031200040680090074900980968884204D2064820
:103130000068401C0449086002490098086008BD06
:10314000001000E0300500202C0500200C494868E4
:10315000F0EE400A00BF0A494968091A01EE101A48
:10316000F8EE411A074991ED001AB8EE411A20EE27
:10317000811AF4EEC11AF1EE10FAECD37047000098
:10318000001000E02005002010B52DED028B82B06C
:1031900004460E484068019020680199081A00EE24
:1031A000100AF8EE400A0A4890ED000AB8EE400A0C
:1031B00080EE801AB0EE418A01982060FFF7AEFFE2
:1031C000B0EE480A02B0BDEC028B10BD001000E06A
:1031D0002005002010B52DED028B00F081F811487C
:1031E000D0E90221104612F000FF00EE100A0D484F
:1031F000D0ED000AF8EE608ADFED0B0A40EE208A7F
:10320000D0E90421104612F0F0FE00EE100ADFEDC6
:10321000070A40EE208AB0EE688AB0EE480ABDEC9C
:10322000028B10BD108600206F12833ABD378635A1
:103230002DE9F04100F054F80D4800680D4948436D
:1032400000210B4A4FF47A77D2E90236A3FB072814
:1032500006FB078603FB016683187141044AD2E925
:1032600004021C1841EB020520462946BDE8F08106
:103270001086002040420F001249096841F0807119
:10328000104A11600021104A51601146096841F04E
:10329000010111600D4941430D4A11601146096851
:1032A0004FF47A72B1FBF2F10A4A116008490968D9
:1032B000064AB1FBF2F1084A11600021074A116089
:1032C00070470000FCED00E0001000E040420F00FD
:1032D0002005002024050020280500202C050020C2
:1032E00038B52D4840680090FFF718FF2B4800685C
:1032F0004FF0FF31A0FB01300099591840F1000058
:10330000274AC2E90010274800232549026803C95B
:10331000FDF784F8244A03C2234806C82148006800
:103320000024A1FB003502FB005001FB04011C48F6
:10333000D0E90020D21A60EB01001C49C1E900204D
:10334000194800681A4908601A480023174902689A
:1033500003C9FDF763F8164AC2E902011046D0E935
:10336000021314480068A1FB002503FB005001FB79
:1033700004010E48D0E900309A1A60EB01000E49B2
:10338000C1E900200D480023026803C9FDF746F893
:10339000074AC2E9040138BD001000E02C050020F6
:1033A00038050020200500204005002048050020A9
:1033B000108600202405002050050020280500204C
:1033C0007047D2ED020A92ED021AB6EE000A00EE44
:1033D000C10AD2ED030A92ED031A00EEC10AD0ED44
:1033E000000A20EE200AD2ED010A92ED021A60EEE8
:1033F000810A92ED001AD2ED031A41EE210A90EDF6
:10340000011A00EE810AD2ED010A92ED031A60EE74
:10341000810A92ED001AD2ED021A41EE610A90ED96
:10342000021A00EE810AF0EE000A20EE200A81ED79
:10343000000A92ED010AD2ED020A20EE200AD2ED36
:10344000000A92ED031A00EEC10AD0ED000A60EE08
:10345000200A92ED011AD2ED011AB6EE000A01EE31
:10346000610AD2ED031A92ED032AB0EE401A01EE82
:10347000C21AD0ED011AB0EE600A01EE210AD2EDB7
:10348000020A92ED031A60EE810A92ED001AD2ED63
:10349000011A41EE210A90ED021A00EE810AF0EEC7
:1034A000000A20EE200A81ED010A92ED010AD2ED18
:1034B000030A20EE200AD2ED000A92ED021A00EE75
:1034C000810AD0ED000A20EE200AD2ED020A92ED28
:1034D000031A60EE810A92ED001AD2ED011A41EE54
:1034E000610A90ED011A00EE810A92ED011AD2ED07
:1034F000011AF6EE000A41EE610A92ED021AD2EDCF
:10350000021A41EE610A90ED021A00EE810AF0EE15
:10351000000A20EE200A81ED020A704772B600BF51
:10352000FEE700002DE9F0412DED028B04460D462B
:10353000B0EE408AF0EE608A16461F4684ED258A7A
:103540006DB164B195ED000A84ED000A95ED010AB4
:1035500084ED010A95ED020A84ED020A0FE09FED69
:10356000180A84ED000A9FED160A84ED010A9FED0A
:10357000140A84ED020A9FED120A84ED250AC4EDB7
:10358000088A2686A4F86070022E04DD314604F114
:10359000340008F037FA022F04DD394604F16400E4
:1035A00008F030FA9FED070A84ED070A9FED040A40
:1035B000204600F009F8BDEC028BBDE8F081000068
:1035C000000000006F12033B10B52DED028B044686
:1035D000F0EE408A14B9BDEC028B10BD94ED078A61
:1035E000B4EE488AF1EE10FA0BD1B5EEC08AF1EED6
:1035F00010FA06D99FED1D0AB4EEC08AF1EE10FA5A
:1036000003DD9FED1B0AB0EE408AC4ED038AC4EDD2
:10361000048A9FED180A84ED090A9FED160A84EDCD
:103620000A0A9FED140A84ED0B0A9FED120A84ED3D
:10363000240A208E022807D9F0EE680AB0EE480A64
:1036400004F1340008F004FAB4F86000022807D945
:10365000DFED080AB0EE480A04F1640008F0F8F95A
:1036600004F11800FFF790FD00BFB4E7CDCCCC3DCE
:103670006F12033B0000000002460AB9032902D082
:10368000032A02D109B9012070470020FCE700009D
:1036900010B520220121DFED194A9FED184ADFED18
:1036A000183A9FED173ADFED152A9FED162ADFED48
:1036B000161A9FED121ADFED150A9FED150A15482F
:1036C00009F02CF920220121DFED0C4A9FED0B4A75
:1036D000DFED0B3A9FED0A3ADFED082A9FED092A4C
:1036E000DFED091A9FED051ADFED080A9FED080AC4
:1036F0000848B83009F012F910BD000000000000C1
:1037000000007A4427A0893BCDCC0C4000C0DA45AC
:1037100000007A46A876002010B52DED028BB0EEA1
:10372000408AF0EE608A0D48D0ED660AB0EE600A7D
:10373000F0EE480A08F086FF084880ED700AD0EDE8
:103740006E0AB0EE600AF0EE680AB83008F07AFF50
:10375000024880ED710ABDEC028B10BDA8760020F6
:1037600070B52DED028B05460C46B5F9000000EE54
:10377000100AB8EEC00ADFED160A20EE200AB0EEFD
:10378000408AB5F9020000EE100AB8EEC00AF1EE68
:10379000080A20EE200A84ED060ADFED0E0AB0EEDC
:1037A000480A20460DF0A6FF84ED050AB5F904008D
:1037B00000EE900AF8EEE00AB0EE600ADFED060ACD
:1037C00004F11C000FF08CFCBDEC028B70BD0000FE
:1037D000FFFF333D0000B4433333333FF0B5059D65
:1037E000012D0DD113F5804F01DC1F4C06E0B3F520
:1037F000804F02DB4FF4804400E01C4623460AE081
:103800001A4CA34200DC05E047F23054A34200DB2F
:1038100000E01C46234640F2FF14A14202D0B1F55D
:10382000FF7F0CD1012A1EDB042A1CDC561E74000B
:103830001E0A76B206555FB2661C875513E040F249
:10384000FF24A14202D0641EA1420CD1052A0ADB4A
:10385000072A08DC561F74001E0A76B206555FB2AE
:10386000661C875500BFF0BD00C0FFFFD08AFFFF78
:1038700030B5034605E013F8010B80EA0204044862
:10388000025D081EA1F10101F5D1104630BD000016
:103890002964010870B50A480468001D0568001D08
:1038A0000668344454B108220649204605F084FFD6
:1038B000042204491031284605F07EFF70BD000047
:1038C000107AFF1F6A06002010B5554808F0FCFF6B
:1038D0005348B83808F0F8FF524808F0F5FF51484F
:1038E000D0EDFA0AB0EE600A00F556700AF072FBED
:1038F0004C4890EDFA0A80EDFE0A90EDFA0A80ED50
:10390000F60A9FED490A80EDF40A9FED470A80ED23
:10391000F50A9FED450A80EDF80AD0EDFA0AB0EEFF
:10392000600A00F53070FFF74FFE9FED3F0A3C48FC
:10393000B830FFF749FE3D4890F83B00D0B13B4816
:1039400090F84D00052815D13648D0F8B50700EE9F
:10395000100ADFED370A30EE600ADFED360A60EE5E
:10396000200A9FED331A80EE810A10EE100A2D49CD
:10397000C1F88E072D4890F83C00C0B12B4890F854
:103980004E00072813D12748D0F87F0700EE100A11
:10399000DFED270A30EE600ADFED260A20EE200A6E
:1039A000DFED230A80EE201A234880EDD61A234843
:1039B00008F08AFF2048B83008F086FF2048D0ED94
:1039C0000B0AB0EE600A1F48FFF7FEFD9FED160AD6
:1039D0001C489838FFF7F8FD1948D0ED0B0AB0EEF7
:1039E000600A19480AF0F6FA154890ED0B0A1248D9
:1039F00080EDFE0A124890ED0B0A0F4880EDF30AA5
:103A00009FED090A80EDF10A9FED070A80EDF20AA9
:103A100000F06AFC00200A4981F83200888610BD57
:103A2000E87900207878002000000000C0A600207F
:103A300000003443DB0F4940787C0020E87D002003
:103A4000E8800020387F00207480002000B58DB011
:103A500000220121DFED5D4A9FED5C4ADFED5B3A1C
:103A60009FED5A3ADFED592A9FED582ADFED581A9B
:103A70009FED561ADFED550A9FED560A564808F09D
:103A80004DFF00220121DFED514A9FED504ADFED4D
:103A90004F3A9FED4E3ADFED4D2A9FED4C2AF2EE64
:103AA0000E1A9FED4A1ADFED490A9FED4C0A4A486B
:103AB000B83808F033FF00214948A0F896170521CF
:103AC000A0F898170021A0F860170521A0F8621748
:103AD000444A07CA0AAB07C305231A46DFED420A68
:103AE0000AA9B2EE040A4148FFF71CFD0020079026
:103AF0000890099005231A46DFED3B0A07A99FEDC0
:103B0000330A3A489838FFF70DFD00220121DFED16
:103B10002F4A9FED2E4ADFED2D3A9FED2C3ADFED37
:103B20002B2A9FED2A2AF2EE0E1A9FED281ADFEDBE
:103B3000270A9FED2F0A2F4808F0F0FE00220121EE
:103B4000DFED224A9FED214ADFED203A9FED1F3A3B
:103B5000DFED1E2A9FED1D2ADFED271A9FED1B1AB0
:103B6000DFED1A0A9FED1D0A2248B83808F0D6FE8C
:103B7000002004900590069005231A46DFED1A0AEE
:103B800004A99FED1E0A1E48FFF7CCFC00200190FF
:103B90000290039005231A46DFED130A01A99FED59
:103BA000190A17489838FFF7BDFCDFED170A9FED9B
:103BB000170A0E4898300AF023FADFED130A9FED3A
:103BC000140A14480AF01CFA0DB000BD00000000F1
:103BD000000070420000F042E879002000007A46C0
:103BE00078780020BC6501080AD7233C387B002088
:103BF00000003443E87D002000000C420000C84271
:103C0000387F00200000FA430AD7A33B00007A4423
:103C10000000FA447480002010B52DED028B10488E
:103C200090EDFA0ADFED0F0A20EE200AB0EE408A8E
:103C3000B0EE480A0EF06AFADFED0B0A60EE208A59
:103C4000B0EE480A0EF0B0F9DFED080A40EE808AC7
:103C50000348C0EDF88A90EDF80ABDEC028B10BD68
:103C60007878002035FA8E3C6CA2F1443771A84375
:103C700001490860704700007C04002008B500BFBF
:103C80000025A846FFF704FDFFF7E0FE0AF0AAFBB7
:103C90009FED641AF3EE040A9FED630A6348FFF791
:103CA000A1F9B3EE0E1AF2EE040A9FED5F0A5F4827
:103CB0003630FFF797F95E48FFF7DAFF5B48D430FC
:103CC00000F0C4F84FF4FA6010F0DEFBA8E011F049
:103CD000E1F900905748FFF757FA5648203880ED31
:103CE000090A10F0A7F9FDF709FC09F001F952489B
:103CF000C478022C03D0052C01D0062C01D1012060
:103D000000E000208146B9F1000F01D100F080FBF6
:103D1000012C03D1012D01D000F014FB2546072C06
:103D200017D2DFE804F004070A13160D100000F0A4
:103D30007BFD11E000F0C8F80EE000F0F1F80BE0B8
:103D400000F08CFD08E000F04BF905E000F0E6FD26
:103D500002E000F069FD00BF00BF384890F84A005B
:103D6000012805D1354890F84B00012800D100E02A
:103D70000020064626B1314890F84D00052804D0B1
:103D80009FED2F0A2F4880ED0E0A26B12B4890F8A0
:103D90004E00072804D09FED2A0A2A4880ED130A16
:103DA000264890F84F0009280BD1244890F850007D
:103DB000092806D1214890F851000B2801D1012093
:103DC00000E00020074617B1B8F1000F02D109F05A
:103DD000C1FC01E009F006FCB84607F04FFB1A48A9
:103DE000007800F0010008B907F05CFC1648006894
:103DF0000321B0FBF1F201FB120008B907F0DAFC75
:103E000007F094FC1048006808F09EFB0E4800681C
:103E1000401C0D4908600221684610F063FB00BF9A
:103E200055E7000000003442DC0F4940D07F0020FD
:103E30007878002034A700207E830020C0A60020D0
:103E4000000000000CA80020EC06002010B504467D
:103E500041F28831B6EE001AF1EE040AB9EE040A16
:103E6000204609F0C9FE204600F012F80020A08686
:103E70009FED060A84ED0E0A9FED040A84ED0F0AF9
:103E80009FED020A84ED100A10BD00000000000042
:103E90009FED0C0A80ED060A9FED0A0A80ED070AE5
:103EA0009FED080A80ED080A9FED060A80ED090AD9
:103EB0009FED040A80ED0A0A9FED020A80ED0B0ACD
:103EC000704700000000000010B52DED028B114C72
:103ED0000FF03EF9A4F62C00D0EDFE0AB0EE600A19
:103EE00000F08EFBB0EE408A0B4880ED0E8AA4F203
:103EF0002C40D0EDFE0AB0EE600A00F075F80648DE
:103F000080ED130A0120054981F83000BDEC028BD9
:103F100010BD0000A48000200CA80020E880002034
:103F200010B52DED028B00F09BFA254890EDFE0AAE
:103F3000B0EEC00ADFED230AB4EEE00AF1EE10FAAB
:103F400003DD90EDFA0A80EDFE0A1F4890EDFE0AAF
:103F5000DFED1E0A30EE600AB0EEC00A10EE104A25
:103F6000204611F0A1FF41EC180B9FED190B53EC0B
:103F7000102B11F033FD05D2174890ED0B0A1248B3
:103F800080EDFE0A0FF0E4F80D48D0EDFE0AB0EE29
:103F9000600A00F035FB114880ED0E0A0A48D0EDAA
:103FA000FE0AB0EE600A00F01FF80C4880ED130A1C
:103FB0000120094981F83000BDEC028B10BD0000E2
:103FC0007878002000007042787C002000C079449E
:103FD0002D431CEBE2361A3FE88000200CA800209D
:103FE00010B500F03BFC10BD10B52DED028BF0EECE
:103FF000408A00F09DFCE8B90020814908708148A2
:1040000090ED0B0A804880EDFE0A7E4890ED0B0A89
:104010007D4880EDF30A9FED7D0A80EDF10A9FED6A
:104020007B0A80EDF20A00F05FF99FED780ABDECA3
:10403000028B10BD72480078002851D101207049D0
:104040000870704890ED0B0A6F4880EDFE0A6D48CD
:1040500090ED0B0A6C4880EDF30A9FED6C0A80ED41
:10406000F10A9FED6A0A80EDF20A00F03DF9684816
:1040700008F02AFC6448B83008F026FC6148D0ED0E
:104080000B0AB0EE600A6348FFF79EFA9FED5F0AE5
:1040900060489838FFF798FA5A48D0ED0B0AB0EE0E
:1040A000600A5D4809F096FF5C48D0F87F0700EE93
:1040B000100ADFED5B0A30EE600ADFED5A0A20EEEF
:1040C000200ADFED570A80EE201A4F4880EDD61AFD
:1040D00000204C4981F8320088869FED4C0AA6E703
:1040E000B0EE680A4C4809F007FE474880EDF30A35
:1040F000494890ED040A444880EDF10A90EDF31A26
:10410000F0EE410A3F4890ED0B1AB0EE410A4048EC
:1041100008F098FA3C4890EDF11AF0EE410A90ED63
:10412000FB1AB0EE410AB83008F08CFA3A4890ED2C
:10413000051AF0EE410A90ED041AB0EE410A00F0C3
:1041400079F8B0EE408A324890ED0D0AB838D0EDDB
:104150000D0A30EE200A30EE080AF7EE000A20EED3
:10416000200AB83880EDF20A294890ED060AB0EE30
:10417000C00AF1EE040AB4EEE00AF1EE10FA17D22A
:104180002048808E401C1F4988860846808E9628CD
:1041900005DA9FED250A1E4880ED100A08E001208F
:1041A000184981F832009FED1E0A194880ED100A67
:1041B000144890F83200F8B9134890EDF20ADFED98
:1041C0001B0AB4EEE00AF1EE10FA02D89FED170ACE
:1041D0000FE00D4890EDF20ADFED150AB4EEE00AAB
:1041E000F1EE10FA02DB9FED120A02E0064890EDB4
:1041F000F20A054880EDF20A034890EDF20A16E74C
:1042000065040020E8800020787C00200000000089
:10421000E87D0020387F002074800020787800201E
:1042200000003443DB0F494000002043000096C4E7
:1042300000009644B0EE401A9FED272AF0EE421A95
:10424000264880EDF51AC0EDF60AF1EE082A81EE57
:10425000222AFFEE002AB4EEE22AF1EE10FA02D88A
:10426000BFEE002A11E0F1EE082A81EE222AF7EED5
:10427000002AB4EEE22AF1EE10FA02DBB7EE002AD1
:1042800003E0F1EE082A81EE222AF0EE421A9FEDB9
:10429000142A20EE822A114880EDF72A9FED0E2A7B
:1042A00021EE022A80EDF82A9FED0E2A21EE822AC5
:1042B00080EDF92A90EDF72AD0EDF82A32EE222A85
:1042C000D0EDF92A32EE222AF7EE002A22EE220A57
:1042D00080EDFA0A7047000000000000787C0020A2
:1042E000BA49AC3F00C0A2439FED0C0A0C4880EDD8
:1042F000F50A9FED0A0A80EDF60A9FED080A80EDA7
:10430000F70A9FED060A80EDF80A9FED040A80ED9A
:10431000F90A9FED020A80EDFA0A704700000000DA
:10432000787C0020064890F84A00012805D104480E
:1043300090F84B00012800D170470020FCE70000F6
:10434000C0A6002010B52DED028B2A4890EDFA0A88
:10435000F0EE408A284890ED0B0AB0EE408A2548DE
:10436000C0EDFE8AC0EDF68A9FED240A80EDF40AC6
:104370009FED220A80EDF50A00F5B87008F0A4FA66
:104380001C48B83008F0A0FA1A4808F09DFAB0EEC0
:10439000680A1B48FFF718F99FED180A1848983863
:1043A000FFF712F9174880EDFE8A80EDF38A9FED42
:1043B000130A80EDF10A9FED110A80EDF20A00F573
:1043C000B87008F081FA0F48B83008F07DFAB0EE06
:1043D000480A0D48FFF7F8F89FED080A0A48983890
:1043E000FFF7F2F8B0EE480A084809F0F3FDBDEC1B
:1043F000028B10BD78780020E880002000000000CB
:10440000387B0020787C0020387F002074800020DA
:10441000002003490870012002490870704700001D
:10442000DC060020DD060020F0EE401A30EEE10A46
:10443000B0EE402AB4EEC12AF1EE10FA02DD31EE00
:10444000810A7047B1EE410AB4EEC02AF1EE10FACB
:1044500002D231EEC10AF4E7B0EE600AF1E70000E3
:1044600000B52DED048B87B0684607F081FCB0B92C
:104470005848007810B1FFF765FF0AE0564890ED04
:10448000FA0A80EDFE0A554890ED0B0A544880ED7B
:10449000FE0AFFF7BDFF07B0BDEC048B00BD4D4821
:1044A000007830B9FFF74EFF01204A4908704D49A6
:1044B0000870494890EDFA0ADDED010A30EE600A15
:1044C000B0EEC00ADFED480AB4EEE00AF1EE10FAF1
:1044D0000FDC424890ED0B0ADDED000A30EE600A79
:1044E000B0EEC00ADFED410AB4EEE00AF1EE10FAD8
:1044F0000EDD394890EDFA0A80EDFE0A374890ED5E
:104500000B0A374880EDFE0A012036490870C2E7E1
:104510003448007850B99DED010A2F4880EDFE0A1D
:104520009DED000A2E4880EDFE0AB4E72A4890ED82
:10453000FD8AB5EEC08AF1EE10FA06DD9FED2C0A79
:10454000B4EEC08AF1EE10FA03D99FED2A0AB0EE5C
:10455000408A9FED290A68EE008A9FED280A28EE1E
:10456000009A9DED011AF0EE410A1B4890EDFE1AEB
:10457000B0EE410AB0EE681AFFF756FF164880ED1C
:10458000FE0A9DED001AF0EE410A154890EDFE1A64
:10459000B0EE410AB0EE491AFFF746FF104880ED31
:1045A000FE0A0D4890EDFE0ADDED010AB4EE600A48
:1045B000F1EE10FA0CD10A4890EDFE0ADDED000A8A
:1045C000B4EE600AF1EE10FA02D10020054908703D
:1045D00000BF60E7DC06002078780020E88000203B
:1045E000787C0020DD0600200000704200008C4234
:1045F0000AD7A33C6F12033B0000C84200003443BB
:1046000010B52DED028BB0EE408A00F0FDF8C0B978
:10461000002074490870744890EDFA0A80EDFE0A93
:1046200090EDFA0A80EDF60A9FED700A80EDF40A2B
:104630009FED6E0A80EDF50A9FED6C0ABDEC028BD2
:1046400010BD6848007800284ED1012065490870E7
:10465000654890EDFA0A80EDFE0A90EDFA0A80EDC9
:10466000F60A9FED620A80EDF40A9FED600A80ED84
:10467000F50A00F5B87008F027F95B48B83008F083
:1046800023F9594808F020F95748D0EDFA0AB0EE5E
:10469000600A00F5567009F09DFC5348D0EDFA0A07
:1046A000B0EE600A00F53070FEF78EFF9FED4F0A06
:1046B0004F48FEF789FF4C48D0F8B50700EE100AC6
:1046C000DFED4C0A30EE600ADFED4B0A60EE200AA7
:1046D0009FED481A80EE810A10EE100A4249C1F897
:1046E0008E079FED420AA9E7B0EE480A434809F059
:1046F00003FB3D4880EDF60A90EDDA0A80EDF40AFE
:1047000090EDF61AF0EE410A90EDFA1AB0EE410A79
:1047100000F5B87007F096FF334890EDF41AF0EE0C
:10472000410A90EDF91AB0EE410AB83007F08AFF5D
:104730002D4890EDF40AF1EE080A80EE201ABFEE43
:10474000000AB4EEC01AF1EE10FA02D8BFEE000A69
:1047500017E0254890EDF40AB1EE081AC0EE010A00
:10476000B7EE000AF4EEC00AF1EE10FA02DBB7EE83
:10477000000A06E01C48D0EDF40AB1EE081A80EEFB
:10478000810AF0EE408A184890EDDB0ADFED170A47
:1047900020EE200AD0EDF40A9FED191A01EE200A4E
:1047A000DFED180A00EEA80A80EDAE0A90ED690A66
:1047B000D0ED3B0A30EE200AD0EDAE0A30EE200AF2
:1047C000F7EE000A20EE200A80EDF50AFFF724FA42
:1047D0000548D0EDF50A30EE200A80EDF50A90ED9F
:1047E000F50A2BE764040020787800200000000020
:1047F000A07A002000003443DB0F4940D07B00202A
:10480000657A8E3F436CDD4310B5FFF78BFD30B109
:10481000044890F84D00052801D1012010BD00206A
:10482000FCE70000C0A6002010B50EF091FCFFF7D9
:104830004BF89FED070A074880ED0E0A9FED040A2A
:1048400080ED130A0020044981F8300010BD0000FB
:10485000000000000CA80020E880002010B52DED1D
:10486000028BFFF7FDFD254890EDFE0AB0EEC00A71
:10487000DFED230AB4EEE00AF1EE10FA03DD90ED6D
:10488000FA0A80EDFE0A1F4890EDFE0ADFED1E0ACF
:1048900030EE600AB0EEC00A10EE104A204611F069
:1048A00003FB41EC180B9FED190B53EC102B11F08F
:1048B00095F805D2174890ED0B0A124880EDFE0AD4
:1048C0000EF046FC0D48D0EDFE0AB0EE600AFFF790
:1048D00097FE114880ED0E0A0A48D0EDFE0AB0EEB0
:1048E000600AFFF781FB0C4880ED130A012009499B
:1048F00081F83000BDEC028B10BD000078780020FC
:1049000000007042787C002000C079442D431CEBED
:10491000E2361A3FE88000200CA8002010B50CF009
:1049200041FE0120014981F8300010BDE8800020DF
:1049300010B5FFF7F7FC30B1044890F84E00072897
:1049400001D1012010BD0020FCE70000C0A600201E
:1049500010B5024692F82030012B01D0022B06D16F
:1049600010684069084314686061002010BD506AF7
:1049700040F4802050620120F8E7F0B504460D466F
:104980001E4694F8207020688368A86800B900E08B
:1049900000BF012F01D0022F7DD103F0806030B91C
:1049A00003F0006018B903F0805000287ED0C3F3F4
:1049B0000161012088403060A86860B9B5F800C086
:1049C000E86840EA4C5C206800F5C07000EB01101C
:1049D000C0F800C00FE0D5E901C040EACC00D5F82E
:1049E0000CC040EA0C00D4F800C00CF5C07C0CEB05
:1049F000011CCCF80000D5F810C0206800F5C0708C
:104A000000EB0110C0F804C0287D01280ED12068F9
:104A100000F5C07000EB0110406840F4807C206815
:104A200000F5C07000EB0110C0F804C0D07900069A
:104A300092F806C040EA0C4092F805C040EA0C200B
:104A400092F804C040EA0C00D4F800C00CF5C07C19
:104A50000CEB011CCCF80C00D078000692F802C0D8
:104A600040EA0C4092F801C040EA0C2092F800C0E5
:104A700040EA0C00D4F800C00CF5C07C0CEB011C23
:104A8000CCF80800206800F5C07000EB0110006849
:104A900040F0010C01E00FE008E0206800F5C07074
:104AA00000EB0110C0F800C00020F0BD606A40F4C7
:104AB000001060620120F8E7606A40F480206062C4
:104AC0000120F2E7F0B504460A46216894F8205028
:104AD000012D01D0022D7ED1424901F500710868F7
:104AE00040F001000860086820F47C500860086805
:104AF000566A40EA06200860107D00F01F0601207B
:104B000000FA06F3C8699843C861A1F50071D0693D
:104B1000C8B9D1F80C029843C1F80C02908880B251
:104B2000968940EA064601F51070576940F83760EB
:104B3000108880B2168940EA064601F51070576960
:104B400000EBC7004660D069012819D1D1F80C02EA
:104B50001843C1F80C02908880B2168840EA0646D5
:104B600001F51070576940F83760908980B2168956
:104B700040EA064601F51070576900EBC700466031
:104B8000906928B9D1F804029843C1F8040204E0FE
:104B9000D1F804021843C1F80402106928B9D1F809
:104BA00014029843C1F8140204E0D1F81402184327
:104BB000C1F81402106A012804D1D1F81C0218436C
:104BC000C1F81C02D1F8000220F00100C1F8000277
:104BD0000020F0BDFFE7606A40F4802060620120A1
:104BE000F7E7000000640040704770B5044694F891
:104BF0002050012D01D0022D7DD151B92068C0680F
:104C000000F0030080B9606A40F400106062012087
:104C100070BD2068006900F0030028B9606A40F4A4
:104C2000001060620120F3E7206800F5D87000EB07
:104C30000110006800F004009060906840B920689E
:104C400000F5D87000EB01100068400D106007E01F
:104C5000206800F5D87000EB01100068C0085060B3
:104C6000206800F5D87000EB0110006800F0020029
:104C7000D060206800F5D87000EB0110406800F0AB
:104C80000F00082802D30820106108E0206800F512
:104C9000D87000EB0110406800F00F001061206830
:104CA00000F5D87000EB0110406800F47F40000A66
:104CB0009061206800F5D87000EB01104068000C8E
:104CC0005061206800F5D87000EB01108068187002
:104CD000206800F5D87000EB0110806800F47F4078
:104CE000000A5870206800F5D87000EB0110806849
:104CF00000F47F0000E03CE0000C9870206800F5B4
:104D0000D87000EB01108068000ED870206800F5A4
:104D1000D87000EB0110C0681871206800F5D870D9
:104D200000EB0110C06800F47F40000A5871206851
:104D300000F5D87000EB0110C06800F47F00000C93
:104D40009871206800F5D87000EB0110C068000E63
:104D5000D87131B92068C06840F020002668F06042
:104D600005E02068006940F02000266830610020DE
:104D70004EE7606A40F480206062012048E7014607
:104D8000002091F82020012A01D0022A11D10B68BD
:104D90009B6803F0806303B1401C0B689B6803F0C1
:104DA000006303B1401C0B689B6803F0805303B1A0
:104DB000401C70472DE9F05F0446002520684669D5
:104DC0002068D0F80490206887682068D0F80CA08C
:104DD0002068D0F810B02068D0F8188006F00100E4
:104DE000002855D007F00100C0B10120216888607B
:104DF00007F0020018B1204600F0E1FA0EE007F0DB
:104E0000040010B145F4006508E007F0080010B197
:104E100045F4805502E0204600F0D0FA07F4807097
:104E2000C8B14FF480702168886007F4007018B131
:104E3000204600F0C6FA0EE007F4806010B145F499
:104E4000005508E007F4006010B145F4804502E029
:104E5000204600F0B5FA07F48030C8B14FF4803036
:104E60002168886007F4003018B1204600F0ABFAE2
:104E70000EE007F4802010B145F4004508E007F487
:104E8000002010B145F4803502E0204600F09AFA87
:104E900006F0080038B10AF0100020B145F40075A2
:104EA00010202168C86006F0040040B10AF0080034
:104EB00028B108202168C860204600F02DFA06F0CD
:104EC000020038B12068C06800F0030010B120462D
:104ED00000F023FA06F0400038B10BF0100020B1CA
:104EE00045F4806510202168086106F0200040B17B
:104EF0000BF0080028B1082021680861204600F066
:104F00001CFA06F0100038B12068006900F00300B8
:104F100010B1204600F012FA06F4003040B109F05A
:104F2000100028B1102021684860204600F016FAD1
:104F300006F4803040B109F0080028B1082021684B
:104F40004860204600F040FA06F4004088B309F0BB
:104F5000040078B306F4807020B108F0010008B1B5
:104F600045F0010506F4007020B108F0020008B118
:104F700045F0020506F4806020B108F0040008B195
:104F800045F0040506F40060A0B108F0700088B197
:104F900008F07000402817D006DC10280BD020281D
:104FA0000CD0302819D10CE0502810D0602814D132
:104FB00010E01DE019E045F008050FE045F0100590
:104FC0000CE045F0200509E045F0400506E045F01D
:104FD000800503E045F4807500E000BF00BF206855
:104FE000806920F070002168886104202168486091
:104FF0002DB1606A284360622046FFF7F5FDBDE8E9
:10500000F09F70B504460CB9012070BD94F82000E3
:1050100010B9204600F0B0F82068006840F00100A8
:105020002168086000F07CFC05460DE000F078FC8B
:10503000401B0A2808D9606A40F4003060620520ED
:1050400084F820000120E0E72068406800F00100BB
:105050000028EBD02068006820F00200216808607A
:1050600000F05EFC05460DE000F05AFC401B0A28EB
:1050700008D9606A40F400306062052084F820009E
:105080000120C2E72068406800F002000028EBD150
:10509000207E012806D12068006840F08000216849
:1050A000086005E02068006820F080002168086042
:1050B000607E012806D12068006840F04000216829
:1050C000086005E02068006820F040002168086062
:1050D000A07E012806D12068006840F020002168E9
:1050E000086005E02068006820F020002168086062
:1050F000E07E012806D12068006820F010002168B9
:10510000086005E02068006840F010002168086031
:10511000207F012806D12068006840F0080021683F
:10512000086005E02068006820F008002168086039
:10513000607F012806D12068006840F004002168E3
:10514000086005E02068006820F00400216808601D
:10515000D4E9020108432169084361690843616891
:10516000491E08432168C86100206062012084F85C
:105170002000002049E7000010B586B00446142145
:1051800001A8FBF763FA5E492068884251D15D4867
:105190000068401C5B4908600846006801280FD180
:1051A00000BF002000905848006840F00070564949
:1051B00008600846006800F00070009000BF00BF63
:1051C00000BF0020009050481038006840F00800F0
:1051D0004D49103908600846006800F0080000904A
:1051E00000BF00BF03200190022002900020039026
:1051F000032004900920059001A9444800F090FA8A
:1052000000220521132000F073FD132000F05CFD47
:1052100000220521142000F06BFD142000F054FD45
:1052200000220521152000F063FD152000F04CFD43
:1052300064E037492068884260D100BF00200090B8
:105240003148006840F080602F49086008460068D7
:1052500000F08060009000BF00BF2A480068401C3A
:10526000284908600846006801280FD100BF0020C7
:1052700000902548006840F0007023490860084607
:10528000006800F00070009000BF00BF00BF002069
:1052900000901D481038006840F002001A4910398B
:1052A00008600846006800F00200009000BF00BFE0
:1052B00060200190022002900020039003200490BF
:1052C0000920059001A9134800F02AFA00220521BF
:1052D0003F2000F00DFD3F2000F0F6FC00220521EC
:1052E000402000F005FD402000F0EEFC00220521EA
:1052F000412000F0FDFC412000F0E6FC06B010BDAE
:10530000006400402800002040380240000C0240A9
:105310000068004000040240704710B58AB004469F
:1053200001AB03AA00212046FFF75FFC01AA03A9F5
:10533000204605F011FE0AB010BD704710B58AB0C6
:10534000044601AB03AA01212046FFF74EFC01AA47
:1053500003A9204605F000FE0AB010BD704770B5E5
:10536000044694F82000012822D1022084F820006D
:105370002068006820F001002168086000F0D0FA81
:1053800005460DE000F0CCFA401B0A2808D9606AF7
:1053900040F400306062052084F82000012070BDD8
:1053A0002068406800F001000028EBD16062F6E759
:1053B000606A40F4002060620120F0E770477047A7
:1053C000704770477047704770470000F8B5044653
:1053D000002000908C4800684FF41651B0FBF1F7A4
:1053E000A56D2E6894F85C1008208840304098B174
:1053F0002068006800F0040070B12068006820F0A8
:1054000004002168086094F85C1008208840A860B7
:10541000606D40F00100606594F85C1001208840E8
:10542000304068B12068406900F0800040B194F8D5
:105430005C1001208840A860606D40F0020060654B
:1054400094F85C1004208840304068B120680068FF
:1054500000F0020040B194F85C1004208840A8607D
:10546000606D40F00400606594F85C101020884086
:10547000304078B32068006800F0080050B394F81A
:105480005C1010208840A8602068006800F480202C
:1054900080B12068006800F4002028B9206CC8B1F1
:1054A0002046216C884715E0A06C98B12046A16C7D
:1054B00088470FE02068006800F4807028B92068F1
:1054C000006820F0080021680860206C10B12046B8
:1054D000216C884794F85C102020884030400028D8
:1054E00065D02068006800F0100000285FD094F8B4
:1054F0005C1020208840A86094F83500052828D149
:105500002068006820F01600216808602068406963
:1055100020F0800021684861206C08B9A06C28B197
:105520002068006820F008002168086094F85C108A
:105530003F208840A860012084F8350000BF00208B
:1055400084F8340000BF206D10B12046216D8847DB
:10555000F8BD2068006800F4802080B120680068F1
:1055600000F4002028B9606C10B12046616C8847B7
:105570001DE0E06BD8B12046E16B884717E020685A
:10558000006800F4807068B92068006820F010009E
:1055900021680860012084F8350000BF002084F8ED
:1055A000340000BFE06B10B12046E16B8847606DAE
:1055B00038B3606D00F00100F0B1052084F83500CB
:1055C0002068006820F001002168086000BF009892
:1055D000401C0090B84200D905E02068006800F047
:1055E00001000028F3D100BF012084F8350000BF7E
:1055F000002084F8340000BFE06C10B12046E16C5C
:10560000884700BFA4E70000380000202DE9F041E2
:105610000446002500F084F9074614B90120BDE8CE
:10562000F081606A00B100BF022084F8350000BF3D
:10563000002084F8340000BF2068006820F00100DA
:10564000216808600AE000F06BF9C01B052805D945
:1056500020206065032084F83500E0E720680068BA
:1056600000F001000028EED12068056821480540BF
:10567000D4E901010843E1680843216908436169ED
:105680000843A1690843E1690843216A08430543C7
:10569000606A042803D1D4E90B010843054320685C
:1056A00005602068456925F00705606A0543606A62
:1056B00004280DD1A06A0543E06A48B12046FDF7F1
:1056C000F3FA28B140206065012084F83500A6E790
:1056D000206845612046FDF7CDFA064694F85C1037
:1056E0003F208840B06000206065012084F83500CC
:1056F000002094E73F8010F070B5044600F010F9E8
:1057000006462546681C10B104480078054400BFD1
:1057100000F006F9801BA842FAD370BD34000020C7
:10572000F8B502460B460025002400200021D6E0F3
:10573000012606FA01F51E6806EA0504AC4274D19A
:105740001E7906F00306012E04D01E7906F003062A
:10575000022E13D190684F000326BE40B0434F0085
:10576000DE68BE4030439060506801268E40B043F2
:105770001E79C6F300168E40304350601E7906F045
:105780000306032E09D0D0684F000326BE40B04365
:105790004F009E68BE403043D0601E7906F003067D
:1057A000022E13D1CF0802F1200656F827004E072B
:1057B000F70E0F26BE40B0434F07FF0E1E69BE40D6
:1057C0003043CF0802F1200646F8270010684F004A
:1057D0000326BE40B0431E7906F003064F00BE40CC
:1057E000304310605E6806F44036002E76D000BF6D
:1057F000002600963C4E366846F480463A4F3E609E
:105800003E46366806F48046009600BF00BF374E1D
:105810008F0856F827008E07370F0F26BE40B0437B
:10582000334EB24202D1002624E057E0314EB2425C
:1058300001D101261EE0304EB24201D1022619E00C
:105840002E4EB24201D1032614E02D4EB24201D1B8
:1058500004260FE02B4EB24201D105260AE02A4E63
:10586000B24201D1062605E0284EB24201D10726F8
:1058700000E008268F073F0FBE4030431B4E8F08C5
:1058800046F82700224E3068A0435E6806F4801672
:1058900006B120431E4E3060361D3068A0435E685E
:1058A00006F4001606B12043194E361D3060184E1E
:1058B000361F3068A0435E6806F4003606B1204308
:1058C000134E361F3060361F3068A0435E6806F402
:1058D000803606B120430E4E083E3060491C102928
:1058E000FFF426AFF8BD00004438024008380140FC
:1058F000000002400004024000080240000C024088
:10590000001002400014024000180240001C024037
:10591000083C01400AB1816101E00B0483617047DA
:1059200001480068704700002C00002070B5044654
:105930000CB9012070BD94F83D0028B9002084F80E
:105940003C00204600F0DAF8242084F83D0020686E
:10595000006820F00100216808602068006840F4B9
:105960000040216808602068006820F40040216839
:10597000086001F0A9F905465C496068884206D8CC
:105980005B48854201D2012007E0002005E059482C
:10599000854201D2012000E00020012800D1C9E7A2
:1059A0005548B5FBF0F62068406820F03F003043D2
:1059B000216848604D496068884201D8701C07E042
:1059C0004FF4967070434FF47A71B0FBF1F0401CC5
:1059D0002168096A21F03F010843216808624349B0
:1059E0006068884214D8681E61684900B0FBF1F015
:1059F000401CC0F30B00042801D204203DE0681EC7
:105A000061684900B0FBF1F0401CC0F30B0034E0CA
:105A1000A06838B9681E616801EB4101B0FBF1F084
:105A2000401C0AE0681E616801EBC10202EB011133
:105A3000B0FBF1F0401C40F48040C0F30B0008B90B
:105A400001201AE0A06848B9681E616801EB4101B5
:105A5000B0FBF1F0401CC0F30B000CE0681E616865
:105A600001EBC10202EB0111B0FBF1F0401CC0F3ED
:105A70000B0040F4804040F400402168C9694CF6B6
:105A8000FF72914308432168C861D4E907010843C4
:105A90002168096821F0C001084321680860D4E941
:105AA000031008432168896848F2FF329143084394
:105AB00021688860D4E9050108432168C96821F09C
:105AC000FF0108432168C8602068006840F00100B9
:105AD0002168086000202064202084F83D00002018
